{
  "address": "0xffBb3069B332644668D3cDb49AFF03E1831d2ee8",
  "abi": [
    {
      "inputs": [],
      "name": "DiamondWritable__InvalidInitializationParameters",
      "type": "error"
    },
    {
      "inputs": [],
      "name": "DiamondWritable__RemoveTargetNotZeroAddress",
      "type": "error"
    },
    {
      "inputs": [],
      "name": "DiamondWritable__ReplaceTargetIsIdentical",
      "type": "error"
    },
    {
      "inputs": [],
      "name": "DiamondWritable__SelectorAlreadyAdded",
      "type": "error"
    },
    {
      "inputs": [],
      "name": "DiamondWritable__SelectorIsImmutable",
      "type": "error"
    },
    {
      "inputs": [],
      "name": "DiamondWritable__SelectorNotFound",
      "type": "error"
    },
    {
      "inputs": [],
      "name": "DiamondWritable__SelectorNotSpecified",
      "type": "error"
    },
    {
      "inputs": [],
      "name": "DiamondWritable__TargetHasNoCode",
      "type": "error"
    },
    {
      "inputs": [],
      "name": "ERC165Base__InvalidInterfaceId",
      "type": "error"
    },
    {
      "inputs": [],
      "name": "Ownable__NotOwner",
      "type": "error"
    },
    {
      "inputs": [],
      "name": "Ownable__NotTransitiveOwner",
      "type": "error"
    },
    {
      "inputs": [],
      "name": "Proxy__ImplementationIsNotContract",
      "type": "error"
    },
    {
      "inputs": [],
      "name": "SafeOwnable__NotNomineeOwner",
      "type": "error"
    },
    {
      "anonymous": false,
      "inputs": [
        {
          "components": [
            {
              "internalType": "address",
              "name": "target",
              "type": "address"
            },
            {
              "internalType": "enum IDiamondWritableInternal.FacetCutAction",
              "name": "action",
              "type": "uint8"
            },
            {
              "internalType": "bytes4[]",
              "name": "selectors",
              "type": "bytes4[]"
            }
          ],
          "indexed": false,
          "internalType": "struct IDiamondWritableInternal.FacetCut[]",
          "name": "facetCuts",
          "type": "tuple[]"
        },
        {
          "indexed": false,
          "internalType": "address",
          "name": "target",
          "type": "address"
        },
        {
          "indexed": false,
          "internalType": "bytes",
          "name": "data",
          "type": "bytes"
        }
      ],
      "name": "DiamondCut",
      "type": "event"
    },
    {
      "anonymous": false,
      "inputs": [
        {
          "indexed": true,
          "internalType": "address",
          "name": "previousOwner",
          "type": "address"
        },
        {
          "indexed": true,
          "internalType": "address",
          "name": "newOwner",
          "type": "address"
        }
      ],
      "name": "OwnershipTransferred",
      "type": "event"
    },
    {
      "stateMutability": "payable",
      "type": "fallback"
    },
    {
      "inputs": [],
      "name": "acceptOwnership",
      "outputs": [],
      "stateMutability": "nonpayable",
      "type": "function"
    },
    {
      "inputs": [
        {
          "components": [
            {
              "internalType": "address",
              "name": "target",
              "type": "address"
            },
            {
              "internalType": "enum IDiamondWritableInternal.FacetCutAction",
              "name": "action",
              "type": "uint8"
            },
            {
              "internalType": "bytes4[]",
              "name": "selectors",
              "type": "bytes4[]"
            }
          ],
          "internalType": "struct IDiamondWritableInternal.FacetCut[]",
          "name": "facetCuts",
          "type": "tuple[]"
        },
        {
          "internalType": "address",
          "name": "target",
          "type": "address"
        },
        {
          "internalType": "bytes",
          "name": "data",
          "type": "bytes"
        }
      ],
      "name": "diamondCut",
      "outputs": [],
      "stateMutability": "nonpayable",
      "type": "function"
    },
    {
      "inputs": [
        {
          "internalType": "bytes4",
          "name": "selector",
          "type": "bytes4"
        }
      ],
      "name": "facetAddress",
      "outputs": [
        {
          "internalType": "address",
          "name": "facet",
          "type": "address"
        }
      ],
      "stateMutability": "view",
      "type": "function"
    },
    {
      "inputs": [],
      "name": "facetAddresses",
      "outputs": [
        {
          "internalType": "address[]",
          "name": "addresses",
          "type": "address[]"
        }
      ],
      "stateMutability": "view",
      "type": "function"
    },
    {
      "inputs": [
        {
          "internalType": "address",
          "name": "facet",
          "type": "address"
        }
      ],
      "name": "facetFunctionSelectors",
      "outputs": [
        {
          "internalType": "bytes4[]",
          "name": "selectors",
          "type": "bytes4[]"
        }
      ],
      "stateMutability": "view",
      "type": "function"
    },
    {
      "inputs": [],
      "name": "facets",
      "outputs": [
        {
          "components": [
            {
              "internalType": "address",
              "name": "target",
              "type": "address"
            },
            {
              "internalType": "bytes4[]",
              "name": "selectors",
              "type": "bytes4[]"
            }
          ],
          "internalType": "struct IDiamondReadable.Facet[]",
          "name": "diamondFacets",
          "type": "tuple[]"
        }
      ],
      "stateMutability": "view",
      "type": "function"
    },
    {
      "inputs": [],
      "name": "getFallbackAddress",
      "outputs": [
        {
          "internalType": "address",
          "name": "fallbackAddress",
          "type": "address"
        }
      ],
      "stateMutability": "view",
      "type": "function"
    },
    {
      "inputs": [],
      "name": "nomineeOwner",
      "outputs": [
        {
          "internalType": "address",
          "name": "",
          "type": "address"
        }
      ],
      "stateMutability": "view",
      "type": "function"
    },
    {
      "inputs": [],
      "name": "owner",
      "outputs": [
        {
          "internalType": "address",
          "name": "",
          "type": "address"
        }
      ],
      "stateMutability": "view",
      "type": "function"
    },
    {
      "inputs": [
        {
          "internalType": "address",
          "name": "fallbackAddress",
          "type": "address"
        }
      ],
      "name": "setFallbackAddress",
      "outputs": [],
      "stateMutability": "nonpayable",
      "type": "function"
    },
    {
      "inputs": [
        {
          "internalType": "bytes4",
          "name": "interfaceId",
          "type": "bytes4"
        }
      ],
      "name": "supportsInterface",
      "outputs": [
        {
          "internalType": "bool",
          "name": "",
          "type": "bool"
        }
      ],
      "stateMutability": "view",
      "type": "function"
    },
    {
      "inputs": [
        {
          "internalType": "address",
          "name": "account",
          "type": "address"
        }
      ],
      "name": "transferOwnership",
      "outputs": [],
      "stateMutability": "nonpayable",
      "type": "function"
    },
    {
      "stateMutability": "payable",
      "type": "receive"
    }
  ],
  "transactionHash": "0x3d55e48fe446307c6caad21b00c298620ee14e1b222ef07a26f97d7f1d256135",
  "args": [],
  "numDeployments": 1,
  "solcInputHash": "247edfb3bcd8e1f7f0e80cdf785dc6f4",
  "bytecode": "0x60806040523480156200001157600080fd5b5060408051600c8082526101a0820190925260009160208201610180803683370190505090506000632c40805960e01b82826200004e8162000d9d565b93508151811062000063576200006362000dc7565b6001600160e01b031990921660209283029190910190910152639142376560e01b8282620000918162000d9d565b935081518110620000a657620000a662000dc7565b6001600160e01b031990921660209283029190910190910152620000d3632f40adcf60e21b600162000480565b6307e4c70760e21b8282620000e88162000d9d565b935081518110620000fd57620000fd62000dc7565b6001600160e01b0319909216602092830291909101909101526200012a6307e4c70760e21b600162000480565b637a0ed62760e01b82826200013f8162000d9d565b93508151811062000154576200015462000dc7565b6001600160e01b0319909216602092830291909101909101526356fe50af60e11b8282620001828162000d9d565b93508151811062000197576200019762000dc7565b6001600160e01b0319909216602092830291909101909101526314bbdacb60e21b8282620001c58162000d9d565b935081518110620001da57620001da62000dc7565b6001600160e01b0319909216602092830291909101909101526366ffd66360e11b8282620002088162000d9d565b9350815181106200021d576200021d62000dc7565b6001600160e01b0319909216602092830291909101909101526200024a6348e2b09360e01b600162000480565b6301ffc9a760e01b82826200025f8162000d9d565b93508151811062000274576200027462000dc7565b6001600160e01b031990921660209283029190910190910152620002a16301ffc9a760e01b600162000480565b638da5cb5b60e01b8282620002b68162000d9d565b935081518110620002cb57620002cb62000dc7565b6001600160e01b03199092166020928302919091019091015263455a8a8560e11b8282620002f98162000d9d565b9350815181106200030e576200030e62000dc7565b6001600160e01b03199092166020928302919091019091015263f2fde38b60e01b82826200033c8162000d9d565b93508151811062000351576200035162000dc7565b6001600160e01b0319909216602092830291909101909101526379ba509760e01b82826200037f8162000d9d565b93508151811062000394576200039462000dc7565b6001600160e01b031990921660209283029190910190910152620003c16307f5828d60e41b600162000480565b604080516001808252818301909252600091816020015b60408051606080820183526000808352602083015291810191909152815260200190600190039081620003d8579050506040805160608101909152308152909150602081016000815260200184815250816000815181106200043e576200043e62000dc7565b60200260200101819052506200046c81600060405180602001604052806000815250620004f260201b60201c565b6200047733620006d2565b50505062000f79565b6001600160e01b03198083161415620004ac5760405163b0a19dd560e01b815260040160405180910390fd5b80620004c26200074660201b62000d181760201c565b6001600160e01b03199390931660009081526020939093526040909220805460ff19169215159290921790915550565b6000620005096200076a60201b62000d3c1760201c565b600181015490915061ffff8116908190600090600716156200053d5750600381901c60009081526002840160205260409020545b60005b87518110156200064057600088828151811062000561576200056162000dc7565b60200260200101519050600081602001519050816040015151600014156200059c5760405163eb6c3aeb60e01b815260040160405180910390fd5b6000816002811115620005b357620005b362000ddd565b1415620005d357620005c8878686856200078e565b909550935062000635565b6001816002811115620005ea57620005ea62000ddd565b14156200060357620005fd8783620008ed565b62000635565b60028160028111156200061a576200061a62000ddd565b141562000635576200062f8786868562000a4c565b90955093505b505060010162000540565b508282146200065d5760018401805461ffff191661ffff84161790555b60078216156200068057600382901c600090815260028501602052604090208190555b7f8faa70878671ccd212d20771b795c50af8fd3ff6cf27f4bde57e5d4de0aeb673878787604051620006b59392919062000e54565b60405180910390a1620006c9868662000c72565b50505050505050565b6000620006e962000d7360201b62000d601760201c565b80546040519192506001600160a01b03808516929116907f8be0079c531659141344cd1fd0a4f28419497f9722a3daafe3b4186f6b6457e090600090a380546001600160a01b0319166001600160a01b0392909216919091179055565b7ffc606c433378e3a7e0a6a531deac289b66caa1b4aa8554fd4ab2c6f1570f92d890565b7f177481ac65e4292921c69f62d1cc7f57541261e5d61c8175cf4e36a01c9bfc9390565b805160009081906001600160a01b03163014801590620007ce5750620007cc83600001516001600160a01b031662000d9760201b620003581760201c565b155b15620007ed57604051633ddc5cab60e21b815260040160405180910390fd5b60005b836040015151811015620008e05760008460400151828151811062000819576200081962000dc7565b6020908102919091018101516001600160e01b031981166000908152918a9052604090912054909150606081901c156200086657604051634923a77160e11b815260040160405180910390fd5b85516001600160e01b0319838116600081815260208d90526040902060609390931b6001600160601b0319168b1790925560058a901b60e090811692831c91831c19999099161797811415620008d057600389901c600090815260028b0160205260408120989098555b50505060019586019501620007f0565b5093959294509192505050565b6200091081600001516001600160a01b031662000d9760201b620003581760201c565b6200092e57604051633ddc5cab60e21b815260040160405180910390fd5b60005b81604001515181101562000a47576000826040015182815181106200095a576200095a62000dc7565b6020908102919091018101516001600160e01b03198116600090815291869052604090912054909150606081901c80620009a7576040516337e25a9760e11b815260040160405180910390fd5b6001600160a01b038116301415620009d25760405163e983573160e01b815260040160405180910390fd5b84516001600160a01b038281169116141562000a01576040516330baabf360e11b815260040160405180910390fd5b5083516001600160e01b031992909216600090815260208690526040902060609290921b6001600160601b0319166001600160601b039190911617905560010162000931565b505050565b805160009081906001600160a01b03161562000a7b57604051633ab3490960e21b815260040160405180910390fd5b600385901c6007861660005b85604001515181101562000c5e5760008660400151828151811062000ab05762000ab062000dc7565b6020908102919091018101516001600160e01b031981166000908152918c9052604090912054909150606081901c62000afc576040516337e25a9760e11b815260040160405180910390fd5b606081901c30141562000b225760405163e983573160e01b815260040160405180910390fd5b8862000b4c57600019909401600081815260028c0160205260409020549850936007935062000b54565b600019909301925b600584901b89901b6000806001600160e01b03198084169086161462000ba7576001600160e01b03198316600090815260208f90526040902080546001600160601b0319166001600160601b0386161790555b50506001600160e01b03198316600090815260208d90526040812055611fff600383901c1660e0600584901b1687821462000c0c57600082815260028f016020526040902080546001600160e01b031980841c19909116908516831c17905562000c30565b80836001600160e01b031916901c816001600160e01b031960001b901c198d16179b505b8662000c4c57600088815260028f01602052604081208190559b505b50506001909301925062000a87915050565b5060039190911b1796939550929350505050565b8051156001600160a01b038316151462000c9f576040516326df4ccd60e01b815260040160405180910390fd5b6001600160a01b0382161562000d6f576001600160a01b038216301462000cfd5762000cdf826001600160a01b031662000d9760201b620003581760201c565b62000cfd57604051633ddc5cab60e21b815260040160405180910390fd5b6000826001600160a01b03168260405162000d19919062000f5b565b600060405180830381855af49150503d806000811462000d56576040519150601f19603f3d011682016040523d82523d6000602084013e62000d5b565b606091505b505090508062000a47573d6000803e3d6000fd5b5050565b7f8a22373512790c48b83a1fe2efdd2888d4a917bcdc24d0adf63e60f67168046090565b3b151590565b600060001982141562000dc057634e487b7160e01b600052601160045260246000fd5b5060010190565b634e487b7160e01b600052603260045260246000fd5b634e487b7160e01b600052602160045260246000fd5b60005b8381101562000e1057818101518382015260200162000df6565b8381111562000e20576000848401525b50505050565b6000815180845262000e4081602086016020860162000df3565b601f01601f19169290920160200192915050565b60006060808301818452808751808352608092508286019150828160051b8701016020808b0160005b8481101562000f2957898403607f19018652815180516001600160a01b0316855283810151898601906003811062000ec557634e487b7160e01b600052602160045260246000fd5b868601526040918201519186018a905281519081905290840190600090898701905b8083101562000f135783516001600160e01b031916825292860192600192909201919086019062000ee7565b5097850197955050509082019060010162000e7d565b50506001600160a01b038a1690880152868103604088015262000f4d818962000e26565b9a9950505050505050505050565b6000825162000f6f81846020870162000df3565b9190910192915050565b611ddd8062000f896000396000f3fe6080604052600436106100cb5760003560e01c80638ab5150a11610074578063adfca15e1161004e578063adfca15e146102a3578063cdffacc6146102d0578063f2fde38b14610329576100d2565b80638ab5150a146102595780638da5cb5b1461026e5780639142376514610283576100d2565b806352ef6b2c116100a557806352ef6b2c1461020057806379ba5097146102225780637a0ed62714610237576100d2565b806301ffc9a7146101435780631f931c1c146101b15780632c408059146101d3576100d2565b366100d257005b60006100dc610349565b90506001600160a01b0381163b61011f576040517f87c9fc3400000000000000000000000000000000000000000000000000000000815260040160405180910390fd5b3660008037600080366000845af43d6000803e80801561013e573d6000f35b3d6000fd5b34801561014f57600080fd5b5061019c61015e366004611781565b6001600160e01b03191660009081527ffc606c433378e3a7e0a6a531deac289b66caa1b4aa8554fd4ab2c6f1570f92d8602052604090205460ff1690565b60405190151581526020015b60405180910390f35b3480156101bd57600080fd5b506101d16101cc366004611803565b61035e565b005b3480156101df57600080fd5b506101e86103e8565b6040516001600160a01b0390911681526020016101a8565b34801561020c57600080fd5b5061021561041b565b6040516101a891906118b5565b34801561022e57600080fd5b506101d16105f8565b34801561024357600080fd5b5061024c610654565b6040516101a89190611947565b34801561026557600080fd5b506101e8610ab6565b34801561027a57600080fd5b506101e8610ac0565b34801561028f57600080fd5b506101d161029e3660046119c4565b610aca565b3480156102af57600080fd5b506102c36102be3660046119c4565b610b50565b6040516101a891906119df565b3480156102dc57600080fd5b506101e86102eb366004611781565b6001600160e01b03191660009081527f177481ac65e4292921c69f62d1cc7f57541261e5d61c8175cf4e36a01c9bfc93602052604090205460601c90565b34801561033557600080fd5b506101d16103443660046119c4565b610cd6565b6000610353610d84565b905090565b3b151590565b610366610df7565b6001600160a01b0316336001600160a01b03161461039757604051632f7a8ee160e01b815260040160405180910390fd5b6103e16103a48587611ab5565b8484848080601f016020809104026020016040519081016040528093929190818152602001838380828437600092019190915250610e2a92505050565b5050505050565b60006103537f177481ac65e4292921c69f62d1cc7f57541261e5d61c8175cf4e36a01c9bfc96546001600160a01b031690565b7f177481ac65e4292921c69f62d1cc7f57541261e5d61c8175cf4e36a01c9bfc94546060907f177481ac65e4292921c69f62d1cc7f57541261e5d61c8175cf4e36a01c9bfc939061ffff1667ffffffffffffffff81111561047e5761047e611a21565b6040519080825280602002602001820160405280156104a7578160200160208202803683370190505b50915060008060005b600184015461ffff168210156105f0576000818152600285016020526040812054905b60088110156105db57836104e681611bff565b600188015490955061ffff168511159050610500576105db565b600581901b82901b6001600160e01b0319811660009081526020889052604081205460601c90805b8881101561057e578a818151811061054257610542611c1a565b60200260200101516001600160a01b0316836001600160a01b0316141561056c576001915061057e565b8061057681611bff565b915050610528565b50801561058d575050506105c9565b818a89815181106105a0576105a0611c1a565b6001600160a01b0390921660209283029190910190910152876105c281611bff565b9850505050505b806105d381611bff565b9150506104d3565b505080806105e890611bff565b9150506104b0565b505082525090565b610600611027565b6001600160a01b0316336001600160a01b03161461064a576040517fefd1052d00000000000000000000000000000000000000000000000000000000815260040160405180910390fd5b61065261104f565b565b7f177481ac65e4292921c69f62d1cc7f57541261e5d61c8175cf4e36a01c9bfc94546060907f177481ac65e4292921c69f62d1cc7f57541261e5d61c8175cf4e36a01c9bfc939061ffff1667ffffffffffffffff8111156106b7576106b7611a21565b6040519080825280602002602001820160405280156106fd57816020015b6040805180820190915260008152606060208201528152602001906001900390816106d55790505b50600182015490925060009061ffff1667ffffffffffffffff81111561072557610725611a21565b60405190808252806020026020018201604052801561074e578160200160208202803683370190505b50905060008060005b600185015461ffff16821015610a44576000818152600286016020526040812054905b6008811015610a2f578361078d81611bff565b600189015490955061ffff1685111590506107a757610a2f565b600581901b82901b6001600160e01b0319811660009081526020899052604081205460601c90805b888110156108ed57826001600160a01b03168c82815181106107f3576107f3611c1a565b6020026020010151600001516001600160a01b031614156108db57838c828151811061082157610821611c1a565b6020026020010151602001518b838151811061083f5761083f611c1a565b602002602001015160ff168151811061085a5761085a611c1a565b60200260200101906001600160e01b03191690816001600160e01b0319168152505060ff8a828151811061089057610890611c1a565b602002602001015160ff16106108a557600080fd5b8981815181106108b7576108b7611c1a565b6020026020010180518091906108cc90611c30565b60ff16905250600191506108ed565b806108e581611bff565b9150506107cf565b5080156108fc57505050610a1d565b818b898151811061090f5761090f611c1a565b60209081029190910101516001600160a01b03909116905260018a015461ffff1667ffffffffffffffff81111561094857610948611a21565b604051908082528060200260200182016040528015610971578160200160208202803683370190505b508b898151811061098457610984611c1a565b602002602001015160200181905250828b89815181106109a6576109a6611c1a565b6020026020010151602001516000815181106109c4576109c4611c1a565b60200260200101906001600160e01b03191690816001600160e01b0319168152505060018989815181106109fa576109fa611c1a565b60ff9092166020928302919091019091015287610a1681611bff565b9850505050505b80610a2781611bff565b91505061077a565b50508080610a3c90611bff565b915050610757565b5060005b82811015610aab576000848281518110610a6457610a64611c1a565b602002602001015160ff1690506000878381518110610a8557610a85611c1a565b602002602001015160200151905081815250508080610aa390611bff565b915050610a48565b508185525050505090565b6000610353611027565b6000610353610df7565b610ad2610df7565b6001600160a01b0316336001600160a01b031614610b0357604051632f7a8ee160e01b815260040160405180910390fd5b7f177481ac65e4292921c69f62d1cc7f57541261e5d61c8175cf4e36a01c9bfc96805473ffffffffffffffffffffffffffffffffffffffff19166001600160a01b03831617905550565b50565b7f177481ac65e4292921c69f62d1cc7f57541261e5d61c8175cf4e36a01c9bfc94546060907f177481ac65e4292921c69f62d1cc7f57541261e5d61c8175cf4e36a01c9bfc939061ffff1667ffffffffffffffff811115610bb357610bb3611a21565b604051908082528060200260200182016040528015610bdc578160200160208202803683370190505b50915060008060005b600184015461ffff16821015610ccc576000818152600285016020526040812054905b6008811015610cb75783610c1b81611bff565b600188015490955061ffff168511159050610c3557610cb7565b600581901b82901b6001600160e01b0319811660009081526020889052604090205460601c6001600160a01b038a161415610ca45780888781518110610c7d57610c7d611c1a565b6001600160e01b03199092166020928302919091019091015285610ca081611bff565b9650505b5080610caf81611bff565b915050610c08565b50508080610cc490611bff565b915050610be5565b5050825250919050565b610cde610df7565b6001600160a01b0316336001600160a01b031614610d0f57604051632f7a8ee160e01b815260040160405180910390fd5b610b4d81611096565b7ffc606c433378e3a7e0a6a531deac289b66caa1b4aa8554fd4ab2c6f1570f92d890565b7f177481ac65e4292921c69f62d1cc7f57541261e5d61c8175cf4e36a01c9bfc9390565b7f8a22373512790c48b83a1fe2efdd2888d4a917bcdc24d0adf63e60f67168046090565b600080356001600160e01b03191681527f177481ac65e4292921c69f62d1cc7f57541261e5d61c8175cf4e36a01c9bfc93602052604090205460601c80610df457507f177481ac65e4292921c69f62d1cc7f57541261e5d61c8175cf4e36a01c9bfc96546001600160a01b031690565b90565b60007f8a22373512790c48b83a1fe2efdd2888d4a917bcdc24d0adf63e60f6716804605b546001600160a01b0316919050565b7f177481ac65e4292921c69f62d1cc7f57541261e5d61c8175cf4e36a01c9bfc94547f177481ac65e4292921c69f62d1cc7f57541261e5d61c8175cf4e36a01c9bfc939061ffff811690819060009060071615610e995750600381901c60009081526002840160205260409020545b60005b8751811015610f9b576000888281518110610eb957610eb9611c1a565b6020026020010151905060008160200151905081604001515160001415610f0c576040517feb6c3aeb00000000000000000000000000000000000000000000000000000000815260040160405180910390fd5b6000816002811115610f2057610f20611c50565b1415610f3c57610f32878686856110e6565b9095509350610f91565b6001816002811115610f5057610f50611c50565b1415610f6557610f608783611243565b610f91565b6002816002811115610f7957610f79611c50565b1415610f9157610f8b878686856113a5565b90955093505b5050600101610e9c565b50828214610fb75760018401805461ffff191661ffff84161790555b6007821615610fd957600382901c600090815260028501602052604090208190555b7f8faa70878671ccd212d20771b795c50af8fd3ff6cf27f4bde57e5d4de0aeb67387878760405161100c93929190611cc2565b60405180910390a161101e86866115e0565b50505050505050565b60007f24aa1f7b31fd188a8d3ecfb06bc55c806040e59b03bd4396283442fce6617890610e1b565b611058336116dd565b7f24aa1f7b31fd188a8d3ecfb06bc55c806040e59b03bd4396283442fce6617890805473ffffffffffffffffffffffffffffffffffffffff19169055565b7f24aa1f7b31fd188a8d3ecfb06bc55c806040e59b03bd4396283442fce6617890805473ffffffffffffffffffffffffffffffffffffffff19166001600160a01b038316179055610b4d81818181565b805160009081906001600160a01b0316301480159061110e575082516001600160a01b03163b155b1561112c57604051633ddc5cab60e21b815260040160405180910390fd5b60005b8360400151518110156112365760008460400151828151811061115457611154611c1a565b6020908102919091018101516001600160e01b031981166000908152918a9052604090912054909150606081901c156111b9576040517f92474ee200000000000000000000000000000000000000000000000000000000815260040160405180910390fd5b85516001600160e01b0319838116600081815260208d90526040902060609390931b6bffffffffffffffffffffffff19168b1790925560058a901b60e090811692831c91831c1999909916179781141561122757600389901c600090815260028b0160205260408120989098555b5050506001958601950161112f565b5093959294509192505050565b80516001600160a01b03163b61126c57604051633ddc5cab60e21b815260040160405180910390fd5b60005b8160400151518110156113a05760008260400151828151811061129457611294611c1a565b6020908102919091018101516001600160e01b03198116600090815291869052604090912054909150606081901c806112e0576040516337e25a9760e11b815260040160405180910390fd5b6001600160a01b03811630141561130a5760405163e983573160e01b815260040160405180910390fd5b84516001600160a01b0382811691161415611351576040517f617557e600000000000000000000000000000000000000000000000000000000815260040160405180910390fd5b5083516001600160e01b031992909216600090815260208690526040902060609290921b6bffffffffffffffffffffffff19166bffffffffffffffffffffffff9190911617905560010161126f565b505050565b805160009081906001600160a01b0316156113ec576040517feacd242400000000000000000000000000000000000000000000000000000000815260040160405180910390fd5b600385901c6007861660005b8560400151518110156115cc5760008660400151828151811061141d5761141d611c1a565b6020908102919091018101516001600160e01b031981166000908152918c9052604090912054909150606081901c611468576040516337e25a9760e11b815260040160405180910390fd5b606081901c30141561148d5760405163e983573160e01b815260040160405180910390fd5b886114b557600019909401600081815260028c016020526040902054985093600793506114bd565b600019909301925b600584901b89901b6000806001600160e01b031980841690861614611519576001600160e01b03198316600090815260208f90526040902080546bffffffffffffffffffffffff19166bffffffffffffffffffffffff86161790555b50506001600160e01b03198316600090815260208d90526040812055611fff600383901c1660e0600584901b1687821461157c57600082815260028f016020526040902080546001600160e01b031980841c19909116908516831c1790556115a0565b80836001600160e01b031916901c816001600160e01b031960001b901c198d16179b505b866115bb57600088815260028f01602052604081208190559b505b5050600190930192506113f8915050565b5060039190911b1796939550929350505050565b8051156001600160a01b0383161514611625576040517f26df4ccd00000000000000000000000000000000000000000000000000000000815260040160405180910390fd5b6001600160a01b038216156116d9576001600160a01b038216301461166c576001600160a01b0382163b61166c57604051633ddc5cab60e21b815260040160405180910390fd5b6000826001600160a01b0316826040516116869190611d8b565b600060405180830381855af49150503d80600081146116c1576040519150601f19603f3d011682016040523d82523d6000602084013e6116c6565b606091505b50509050806113a0573d6000803e3d6000fd5b5050565b7f8a22373512790c48b83a1fe2efdd2888d4a917bcdc24d0adf63e60f67168046080546040516001600160a01b038481169216907f8be0079c531659141344cd1fd0a4f28419497f9722a3daafe3b4186f6b6457e090600090a3805473ffffffffffffffffffffffffffffffffffffffff19166001600160a01b0392909216919091179055565b80356001600160e01b03198116811461177c57600080fd5b919050565b60006020828403121561179357600080fd5b61179c82611764565b9392505050565b80356001600160a01b038116811461177c57600080fd5b60008083601f8401126117cc57600080fd5b50813567ffffffffffffffff8111156117e457600080fd5b6020830191508360208285010111156117fc57600080fd5b9250929050565b60008060008060006060868803121561181b57600080fd5b853567ffffffffffffffff8082111561183357600080fd5b818801915088601f83011261184757600080fd5b81358181111561185657600080fd5b8960208260051b850101111561186b57600080fd5b60208301975080965050611881602089016117a3565b9450604088013591508082111561189757600080fd5b506118a4888289016117ba565b969995985093965092949392505050565b6020808252825182820181905260009190848201906040850190845b818110156118f65783516001600160a01b0316835292840192918401916001016118d1565b50909695505050505050565b600081518084526020808501945080840160005b8381101561193c5781516001600160e01b03191687529582019590820190600101611916565b509495945050505050565b60006020808301818452808551808352604092508286019150828160051b87010184880160005b838110156119b657888303603f19018552815180516001600160a01b031684528701518784018790526119a387850182611902565b958801959350509086019060010161196e565b509098975050505050505050565b6000602082840312156119d657600080fd5b61179c826117a3565b6020808252825182820181905260009190848201906040850190845b818110156118f65783516001600160e01b031916835292840192918401916001016119fb565b634e487b7160e01b600052604160045260246000fd5b6040516060810167ffffffffffffffff81118282101715611a5a57611a5a611a21565b60405290565b604051601f8201601f1916810167ffffffffffffffff81118282101715611a8957611a89611a21565b604052919050565b600067ffffffffffffffff821115611aab57611aab611a21565b5060051b60200190565b6000611ac8611ac384611a91565b611a60565b83815260208082019190600586811b860136811115611ae657600080fd5b865b81811015611bdc57803567ffffffffffffffff80821115611b095760008081fd5b818a01915060608236031215611b1f5760008081fd5b611b27611a37565b611b30836117a3565b81528683013560038110611b445760008081fd5b8188015260408381013583811115611b5c5760008081fd5b939093019236601f850112611b7357600092508283fd5b83359250611b83611ac384611a91565b83815292871b84018801928881019036851115611ba05760008081fd5b948901945b84861015611bc557611bb686611764565b82529489019490890190611ba5565b918301919091525088525050948301948301611ae8565b5092979650505050505050565b634e487b7160e01b600052601160045260246000fd5b6000600019821415611c1357611c13611be9565b5060010190565b634e487b7160e01b600052603260045260246000fd5b600060ff821660ff811415611c4757611c47611be9565b60010192915050565b634e487b7160e01b600052602160045260246000fd5b60005b83811015611c81578181015183820152602001611c69565b83811115611c90576000848401525b50505050565b60008151808452611cae816020860160208601611c66565b601f01601f19169290920160200192915050565b6000606080830181845280875180835260808601915060808160051b87010192506020808a016000805b84811015611d5b57898703607f19018652825180516001600160a01b031688528481015160038110611d2c57634e487b7160e01b84526021600452602484fd5b88860152604090810151908801899052611d4889890182611902565b9750509483019491830191600101611cec565b5050506001600160a01b0389169087015250508381036040850152611d808186611c96565b979650505050505050565b60008251611d9d818460208701611c66565b919091019291505056fea26469706673582212208916f942c0f0409050f53428b4b46b417e4935987163f19a04121642055555ca64736f6c63430008080033",
  "devdoc": {
    "kind": "dev",
    "methods": {
      "diamondCut((address,uint8,bytes4[])[],address,bytes)": {
        "params": {
          "data": "optional initialization function call data",
          "facetCuts": "array of structured Diamond facet update data",
          "target": "optional target of initialization delegatecall"
        }
      },
      "facetAddress(bytes4)": {
        "params": {
          "selector": "function selector to query"
        },
        "returns": {
          "facet": "facet address (zero address if not found)"
        }
      },
      "facetAddresses()": {
        "returns": {
          "addresses": "array of facet addresses"
        }
      },
      "facetFunctionSelectors(address)": {
        "params": {
          "facet": "address of facet to query"
        },
        "returns": {
          "selectors": "array of function selectors"
        }
      },
      "facets()": {
        "returns": {
          "diamondFacets": "array of structured facet data"
        }
      },
      "getFallbackAddress()": {
        "returns": {
          "fallbackAddress": "address of fallback implementation"
        }
      },
      "owner()": {
        "returns": {
          "_0": "contract owner"
        }
      },
      "setFallbackAddress(address)": {
        "params": {
          "fallbackAddress": "address of fallback implementation"
        }
      },
      "supportsInterface(bytes4)": {
        "params": {
          "interfaceId": "interface id"
        },
        "returns": {
          "_0": "bool whether interface is supported"
        }
      },
      "transferOwnership(address)": {
        "params": {
          "account": "address of new owner"
        }
      }
    },
    "version": 1
  },
  "userdoc": {
    "kind": "user",
    "methods": {
      "acceptOwnership()": {
        "notice": "accept transfer of contract ownership"
      },
      "diamondCut((address,uint8,bytes4[])[],address,bytes)": {
        "notice": "update diamond facets and optionally execute arbitrary initialization function"
      },
      "facetAddress(bytes4)": {
        "notice": "get the address of the facet associated with given selector"
      },
      "facetAddresses()": {
        "notice": "get addresses of all facets used by diamond"
      },
      "facetFunctionSelectors(address)": {
        "notice": "get all selectors for given facet address"
      },
      "facets()": {
        "notice": "get all facets and their selectors"
      },
      "getFallbackAddress()": {
        "notice": "query the address of the fallback implementation"
      },
      "nomineeOwner()": {
        "notice": "get the nominated owner who has permission to call acceptOwnership"
      },
      "owner()": {
        "notice": "get the ERC173 contract owner"
      },
      "setFallbackAddress(address)": {
        "notice": "set the address of the fallback implementation"
      },
      "supportsInterface(bytes4)": {
        "notice": "query whether contract has registered support for given interface"
      },
      "transferOwnership(address)": {
        "notice": "transfer contract ownership to new account"
      }
    },
    "version": 1
  },
  "storageLayout": {
    "storage": [],
    "types": null
  }
}