{
  "address": "0x14624A5b4DC647914De0D51C1a414EB62b2B4D18",
  "abi": [
    {
      "inputs": [],
      "name": "AddressUtils__NotContract",
      "type": "error"
    },
    {
      "inputs": [],
      "name": "ERC165Base__InvalidInterfaceId",
      "type": "error"
    },
    {
      "inputs": [],
      "name": "ERC721Base__BalanceQueryZeroAddress",
      "type": "error"
    },
    {
      "inputs": [],
      "name": "ERC721Base__ERC721ReceiverNotImplemented",
      "type": "error"
    },
    {
      "inputs": [],
      "name": "ERC721Base__InvalidOwner",
      "type": "error"
    },
    {
      "inputs": [],
      "name": "ERC721Base__MintToZeroAddress",
      "type": "error"
    },
    {
      "inputs": [],
      "name": "ERC721Base__NonExistentToken",
      "type": "error"
    },
    {
      "inputs": [],
      "name": "ERC721Base__NotOwnerOrApproved",
      "type": "error"
    },
    {
      "inputs": [],
      "name": "ERC721Base__NotTokenOwner",
      "type": "error"
    },
    {
      "inputs": [],
      "name": "ERC721Base__SelfApproval",
      "type": "error"
    },
    {
      "inputs": [],
      "name": "ERC721Base__TokenAlreadyMinted",
      "type": "error"
    },
    {
      "inputs": [],
      "name": "ERC721Base__TransferToZeroAddress",
      "type": "error"
    },
    {
      "inputs": [],
      "name": "ERC721Metadata__NonExistentToken",
      "type": "error"
    },
    {
      "inputs": [],
      "name": "EnumerableMap__IndexOutOfBounds",
      "type": "error"
    },
    {
      "inputs": [],
      "name": "EnumerableMap__NonExistentKey",
      "type": "error"
    },
    {
      "inputs": [],
      "name": "EnumerableSet__IndexOutOfBounds",
      "type": "error"
    },
    {
      "inputs": [],
      "name": "PRBMathSD59x18__AbsInputTooSmall",
      "type": "error"
    },
    {
      "inputs": [],
      "name": "PRBMathSD59x18__DivInputTooSmall",
      "type": "error"
    },
    {
      "inputs": [
        {
          "internalType": "uint256",
          "name": "rAbs",
          "type": "uint256"
        }
      ],
      "name": "PRBMathSD59x18__DivOverflow",
      "type": "error"
    },
    {
      "inputs": [],
      "name": "PRBMathSD59x18__MulInputTooSmall",
      "type": "error"
    },
    {
      "inputs": [
        {
          "internalType": "uint256",
          "name": "rAbs",
          "type": "uint256"
        }
      ],
      "name": "PRBMathSD59x18__MulOverflow",
      "type": "error"
    },
    {
      "inputs": [
        {
          "internalType": "uint256",
          "name": "rAbs",
          "type": "uint256"
        }
      ],
      "name": "PRBMathSD59x18__PowuOverflow",
      "type": "error"
    },
    {
      "inputs": [
        {
          "internalType": "uint256",
          "name": "prod1",
          "type": "uint256"
        }
      ],
      "name": "PRBMath__MulDivFixedPointOverflow",
      "type": "error"
    },
    {
      "inputs": [
        {
          "internalType": "uint256",
          "name": "prod1",
          "type": "uint256"
        },
        {
          "internalType": "uint256",
          "name": "denominator",
          "type": "uint256"
        }
      ],
      "name": "PRBMath__MulDivOverflow",
      "type": "error"
    },
    {
      "inputs": [],
      "name": "SolidStateERC721__PayableApproveNotSupported",
      "type": "error"
    },
    {
      "inputs": [],
      "name": "SolidStateERC721__PayableTransferNotSupported",
      "type": "error"
    },
    {
      "anonymous": false,
      "inputs": [
        {
          "indexed": true,
          "internalType": "address",
          "name": "owner",
          "type": "address"
        },
        {
          "indexed": true,
          "internalType": "address",
          "name": "operator",
          "type": "address"
        },
        {
          "indexed": true,
          "internalType": "uint256",
          "name": "tokenId",
          "type": "uint256"
        }
      ],
      "name": "Approval",
      "type": "event"
    },
    {
      "anonymous": false,
      "inputs": [
        {
          "indexed": true,
          "internalType": "address",
          "name": "owner",
          "type": "address"
        },
        {
          "indexed": true,
          "internalType": "address",
          "name": "operator",
          "type": "address"
        },
        {
          "indexed": false,
          "internalType": "bool",
          "name": "approved",
          "type": "bool"
        }
      ],
      "name": "ApprovalForAll",
      "type": "event"
    },
    {
      "anonymous": false,
      "inputs": [
        {
          "indexed": true,
          "internalType": "uint256",
          "name": "tokenId",
          "type": "uint256"
        },
        {
          "indexed": true,
          "internalType": "uint256",
          "name": "salePrice",
          "type": "uint256"
        },
        {
          "indexed": true,
          "internalType": "uint256",
          "name": "saleAmount",
          "type": "uint256"
        }
      ],
      "name": "Bought",
      "type": "event"
    },
    {
      "anonymous": false,
      "inputs": [
        {
          "indexed": true,
          "internalType": "address",
          "name": "account",
          "type": "address"
        },
        {
          "indexed": true,
          "internalType": "address",
          "name": "token",
          "type": "address"
        },
        {
          "indexed": true,
          "internalType": "uint256",
          "name": "amount",
          "type": "uint256"
        }
      ],
      "name": "ERC20RewardsClaimed",
      "type": "event"
    },
    {
      "anonymous": false,
      "inputs": [
        {
          "indexed": true,
          "internalType": "address",
          "name": "account",
          "type": "address"
        },
        {
          "indexed": true,
          "internalType": "uint256",
          "name": "amount",
          "type": "uint256"
        }
      ],
      "name": "FRClaimed",
      "type": "event"
    },
    {
      "anonymous": false,
      "inputs": [
        {
          "indexed": true,
          "internalType": "uint256",
          "name": "tokenId",
          "type": "uint256"
        },
        {
          "indexed": true,
          "internalType": "uint256",
          "name": "soldPrice",
          "type": "uint256"
        },
        {
          "indexed": true,
          "internalType": "uint256",
          "name": "allocatedFR",
          "type": "uint256"
        }
      ],
      "name": "FRDistributed",
      "type": "event"
    },
    {
      "anonymous": false,
      "inputs": [
        {
          "indexed": true,
          "internalType": "uint256",
          "name": "tokenId",
          "type": "uint256"
        },
        {
          "indexed": true,
          "internalType": "uint256",
          "name": "salePrice",
          "type": "uint256"
        }
      ],
      "name": "Listed",
      "type": "event"
    },
    {
      "anonymous": false,
      "inputs": [
        {
          "indexed": true,
          "internalType": "address",
          "name": "account",
          "type": "address"
        },
        {
          "indexed": true,
          "internalType": "uint256",
          "name": "amount",
          "type": "uint256"
        }
      ],
      "name": "ORClaimed",
      "type": "event"
    },
    {
      "anonymous": false,
      "inputs": [
        {
          "indexed": true,
          "internalType": "uint256",
          "name": "tokenId",
          "type": "uint256"
        },
        {
          "indexed": true,
          "internalType": "uint256",
          "name": "soldPrice",
          "type": "uint256"
        },
        {
          "indexed": true,
          "internalType": "uint256",
          "name": "allocatedFR",
          "type": "uint256"
        }
      ],
      "name": "ORDistributed",
      "type": "event"
    },
    {
      "anonymous": false,
      "inputs": [
        {
          "indexed": true,
          "internalType": "address",
          "name": "from",
          "type": "address"
        },
        {
          "indexed": true,
          "internalType": "address",
          "name": "to",
          "type": "address"
        },
        {
          "indexed": true,
          "internalType": "uint256",
          "name": "tokenId",
          "type": "uint256"
        }
      ],
      "name": "OTokenTransfer",
      "type": "event"
    },
    {
      "anonymous": false,
      "inputs": [
        {
          "indexed": true,
          "internalType": "uint256",
          "name": "tokenId",
          "type": "uint256"
        }
      ],
      "name": "OTokensDistributed",
      "type": "event"
    },
    {
      "anonymous": false,
      "inputs": [
        {
          "indexed": true,
          "internalType": "address",
          "name": "from",
          "type": "address"
        },
        {
          "indexed": true,
          "internalType": "address",
          "name": "to",
          "type": "address"
        },
        {
          "indexed": true,
          "internalType": "uint256",
          "name": "tokenId",
          "type": "uint256"
        }
      ],
      "name": "Transfer",
      "type": "event"
    },
    {
      "anonymous": false,
      "inputs": [
        {
          "indexed": true,
          "internalType": "uint256",
          "name": "tokenId",
          "type": "uint256"
        }
      ],
      "name": "Unlisted",
      "type": "event"
    },
    {
      "inputs": [
        {
          "internalType": "address",
          "name": "operator",
          "type": "address"
        },
        {
          "internalType": "uint256",
          "name": "tokenId",
          "type": "uint256"
        }
      ],
      "name": "approve",
      "outputs": [],
      "stateMutability": "payable",
      "type": "function"
    },
    {
      "inputs": [
        {
          "internalType": "address",
          "name": "operator",
          "type": "address"
        },
        {
          "internalType": "uint256",
          "name": "tokenId",
          "type": "uint256"
        },
        {
          "internalType": "uint256",
          "name": "amount",
          "type": "uint256"
        }
      ],
      "name": "approve",
      "outputs": [],
      "stateMutability": "nonpayable",
      "type": "function"
    },
    {
      "inputs": [
        {
          "internalType": "address",
          "name": "account",
          "type": "address"
        }
      ],
      "name": "balanceOf",
      "outputs": [
        {
          "internalType": "uint256",
          "name": "",
          "type": "uint256"
        }
      ],
      "stateMutability": "view",
      "type": "function"
    },
    {
      "inputs": [
        {
          "internalType": "uint256",
          "name": "tokenId",
          "type": "uint256"
        },
        {
          "internalType": "address",
          "name": "account",
          "type": "address"
        }
      ],
      "name": "balanceOfOTokens",
      "outputs": [
        {
          "internalType": "uint256",
          "name": "",
          "type": "uint256"
        }
      ],
      "stateMutability": "view",
      "type": "function"
    },
    {
      "inputs": [
        {
          "internalType": "uint256",
          "name": "tokenId",
          "type": "uint256"
        },
        {
          "internalType": "uint256",
          "name": "amount",
          "type": "uint256"
        }
      ],
      "name": "buy",
      "outputs": [],
      "stateMutability": "payable",
      "type": "function"
    },
    {
      "inputs": [
        {
          "internalType": "address",
          "name": "account",
          "type": "address"
        }
      ],
      "name": "getAllottedFR",
      "outputs": [
        {
          "internalType": "uint256",
          "name": "",
          "type": "uint256"
        }
      ],
      "stateMutability": "view",
      "type": "function"
    },
    {
      "inputs": [
        {
          "internalType": "address",
          "name": "account",
          "type": "address"
        }
      ],
      "name": "getAllottedOR",
      "outputs": [
        {
          "internalType": "uint256",
          "name": "",
          "type": "uint256"
        }
      ],
      "stateMutability": "view",
      "type": "function"
    },
    {
      "inputs": [
        {
          "internalType": "address",
          "name": "account",
          "type": "address"
        },
        {
          "internalType": "address",
          "name": "token",
          "type": "address"
        }
      ],
      "name": "getAllottedTokens",
      "outputs": [
        {
          "internalType": "uint256",
          "name": "",
          "type": "uint256"
        }
      ],
      "stateMutability": "view",
      "type": "function"
    },
    {
      "inputs": [
        {
          "internalType": "uint256",
          "name": "tokenId",
          "type": "uint256"
        }
      ],
      "name": "getApproved",
      "outputs": [
        {
          "internalType": "address",
          "name": "",
          "type": "address"
        }
      ],
      "stateMutability": "view",
      "type": "function"
    },
    {
      "inputs": [
        {
          "internalType": "uint256",
          "name": "tokenId",
          "type": "uint256"
        }
      ],
      "name": "getApprovedAmount",
      "outputs": [
        {
          "internalType": "uint256",
          "name": "",
          "type": "uint256"
        }
      ],
      "stateMutability": "view",
      "type": "function"
    },
    {
      "inputs": [
        {
          "internalType": "uint256",
          "name": "tokenId",
          "type": "uint256"
        }
      ],
      "name": "getAssetInfo",
      "outputs": [
        {
          "internalType": "uint256",
          "name": "",
          "type": "uint256"
        },
        {
          "internalType": "uint256",
          "name": "",
          "type": "uint256"
        }
      ],
      "stateMutability": "view",
      "type": "function"
    },
    {
      "inputs": [
        {
          "internalType": "uint256",
          "name": "tokenId",
          "type": "uint256"
        }
      ],
      "name": "getFRInfo",
      "outputs": [
        {
          "internalType": "uint8",
          "name": "numGenerations",
          "type": "uint8"
        },
        {
          "internalType": "uint256",
          "name": "percentOfProfit",
          "type": "uint256"
        },
        {
          "internalType": "uint256",
          "name": "successiveRatio",
          "type": "uint256"
        },
        {
          "internalType": "uint256",
          "name": "lastSoldPrice",
          "type": "uint256"
        },
        {
          "internalType": "uint256",
          "name": "ownerAmount",
          "type": "uint256"
        },
        {
          "internalType": "address[]",
          "name": "addressesInFR",
          "type": "address[]"
        }
      ],
      "stateMutability": "view",
      "type": "function"
    },
    {
      "inputs": [
        {
          "internalType": "uint256",
          "name": "tokenId",
          "type": "uint256"
        }
      ],
      "name": "getListInfo",
      "outputs": [
        {
          "internalType": "uint256",
          "name": "",
          "type": "uint256"
        },
        {
          "internalType": "uint256",
          "name": "",
          "type": "uint256"
        },
        {
          "internalType": "address",
          "name": "",
          "type": "address"
        },
        {
          "internalType": "bool",
          "name": "",
          "type": "bool"
        }
      ],
      "stateMutability": "view",
      "type": "function"
    },
    {
      "inputs": [],
      "name": "getManagerInfo",
      "outputs": [
        {
          "internalType": "address",
          "name": "untradingManager",
          "type": "address"
        },
        {
          "internalType": "uint256",
          "name": "managerCut",
          "type": "uint256"
        }
      ],
      "stateMutability": "view",
      "type": "function"
    },
    {
      "inputs": [
        {
          "internalType": "uint256",
          "name": "tokenId",
          "type": "uint256"
        }
      ],
      "name": "getORInfo",
      "outputs": [
        {
          "internalType": "uint256",
          "name": "ORatio",
          "type": "uint256"
        },
        {
          "internalType": "uint256",
          "name": "rewardRatio",
          "type": "uint256"
        },
        {
          "internalType": "address",
          "name": "paymentToken",
          "type": "address"
        },
        {
          "internalType": "address[]",
          "name": "holders",
          "type": "address[]"
        }
      ],
      "stateMutability": "view",
      "type": "function"
    },
    {
      "inputs": [],
      "name": "getUnderlyingTokenAddress",
      "outputs": [
        {
          "internalType": "address",
          "name": "",
          "type": "address"
        }
      ],
      "stateMutability": "view",
      "type": "function"
    },
    {
      "inputs": [
        {
          "internalType": "address",
          "name": "account",
          "type": "address"
        },
        {
          "internalType": "address",
          "name": "operator",
          "type": "address"
        }
      ],
      "name": "isApprovedForAll",
      "outputs": [
        {
          "internalType": "bool",
          "name": "",
          "type": "bool"
        }
      ],
      "stateMutability": "view",
      "type": "function"
    },
    {
      "inputs": [
        {
          "internalType": "uint256",
          "name": "tokenId",
          "type": "uint256"
        },
        {
          "internalType": "uint256",
          "name": "amount",
          "type": "uint256"
        },
        {
          "internalType": "uint256",
          "name": "salePrice",
          "type": "uint256"
        }
      ],
      "name": "list",
      "outputs": [],
      "stateMutability": "nonpayable",
      "type": "function"
    },
    {
      "inputs": [],
      "name": "name",
      "outputs": [
        {
          "internalType": "string",
          "name": "",
          "type": "string"
        }
      ],
      "stateMutability": "view",
      "type": "function"
    },
    {
      "inputs": [
        {
          "internalType": "uint256",
          "name": "tokenId",
          "type": "uint256"
        }
      ],
      "name": "ownerOf",
      "outputs": [
        {
          "internalType": "address",
          "name": "",
          "type": "address"
        }
      ],
      "stateMutability": "view",
      "type": "function"
    },
    {
      "inputs": [
        {
          "internalType": "address",
          "name": "account",
          "type": "address"
        },
        {
          "internalType": "address",
          "name": "token",
          "type": "address"
        }
      ],
      "name": "releaseAllottedTokens",
      "outputs": [],
      "stateMutability": "nonpayable",
      "type": "function"
    },
    {
      "inputs": [
        {
          "internalType": "address payable",
          "name": "account",
          "type": "address"
        }
      ],
      "name": "releaseFR",
      "outputs": [],
      "stateMutability": "nonpayable",
      "type": "function"
    },
    {
      "inputs": [
        {
          "internalType": "address payable",
          "name": "account",
          "type": "address"
        }
      ],
      "name": "releaseOR",
      "outputs": [],
      "stateMutability": "nonpayable",
      "type": "function"
    },
    {
      "inputs": [
        {
          "internalType": "address",
          "name": "from",
          "type": "address"
        },
        {
          "internalType": "address",
          "name": "to",
          "type": "address"
        },
        {
          "internalType": "uint256",
          "name": "tokenId",
          "type": "uint256"
        }
      ],
      "name": "safeTransferFrom",
      "outputs": [],
      "stateMutability": "payable",
      "type": "function"
    },
    {
      "inputs": [
        {
          "internalType": "address",
          "name": "from",
          "type": "address"
        },
        {
          "internalType": "address",
          "name": "to",
          "type": "address"
        },
        {
          "internalType": "uint256",
          "name": "tokenId",
          "type": "uint256"
        },
        {
          "internalType": "bytes",
          "name": "data",
          "type": "bytes"
        }
      ],
      "name": "safeTransferFrom",
      "outputs": [],
      "stateMutability": "payable",
      "type": "function"
    },
    {
      "inputs": [
        {
          "internalType": "address",
          "name": "operator",
          "type": "address"
        },
        {
          "internalType": "bool",
          "name": "status",
          "type": "bool"
        }
      ],
      "name": "setApprovalForAll",
      "outputs": [],
      "stateMutability": "nonpayable",
      "type": "function"
    },
    {
      "inputs": [
        {
          "internalType": "uint256",
          "name": "newManagerCut",
          "type": "uint256"
        }
      ],
      "name": "setManagerCut",
      "outputs": [],
      "stateMutability": "nonpayable",
      "type": "function"
    },
    {
      "inputs": [
        {
          "internalType": "bytes4",
          "name": "interfaceId",
          "type": "bytes4"
        }
      ],
      "name": "supportsInterface",
      "outputs": [
        {
          "internalType": "bool",
          "name": "",
          "type": "bool"
        }
      ],
      "stateMutability": "view",
      "type": "function"
    },
    {
      "inputs": [],
      "name": "symbol",
      "outputs": [
        {
          "internalType": "string",
          "name": "",
          "type": "string"
        }
      ],
      "stateMutability": "view",
      "type": "function"
    },
    {
      "inputs": [
        {
          "internalType": "uint256",
          "name": "index",
          "type": "uint256"
        }
      ],
      "name": "tokenByIndex",
      "outputs": [
        {
          "internalType": "uint256",
          "name": "",
          "type": "uint256"
        }
      ],
      "stateMutability": "view",
      "type": "function"
    },
    {
      "inputs": [
        {
          "internalType": "address",
          "name": "owner",
          "type": "address"
        },
        {
          "internalType": "uint256",
          "name": "index",
          "type": "uint256"
        }
      ],
      "name": "tokenOfOwnerByIndex",
      "outputs": [
        {
          "internalType": "uint256",
          "name": "",
          "type": "uint256"
        }
      ],
      "stateMutability": "view",
      "type": "function"
    },
    {
      "inputs": [
        {
          "internalType": "uint256",
          "name": "tokenId",
          "type": "uint256"
        }
      ],
      "name": "tokenURI",
      "outputs": [
        {
          "internalType": "string",
          "name": "",
          "type": "string"
        }
      ],
      "stateMutability": "view",
      "type": "function"
    },
    {
      "inputs": [],
      "name": "totalSupply",
      "outputs": [
        {
          "internalType": "uint256",
          "name": "",
          "type": "uint256"
        }
      ],
      "stateMutability": "view",
      "type": "function"
    },
    {
      "inputs": [
        {
          "internalType": "address",
          "name": "from",
          "type": "address"
        },
        {
          "internalType": "address",
          "name": "to",
          "type": "address"
        },
        {
          "internalType": "uint256",
          "name": "tokenId",
          "type": "uint256"
        }
      ],
      "name": "transferFrom",
      "outputs": [],
      "stateMutability": "payable",
      "type": "function"
    },
    {
      "inputs": [
        {
          "internalType": "address",
          "name": "from",
          "type": "address"
        },
        {
          "internalType": "address",
          "name": "to",
          "type": "address"
        },
        {
          "internalType": "uint256",
          "name": "tokenId",
          "type": "uint256"
        },
        {
          "internalType": "uint256",
          "name": "amount",
          "type": "uint256"
        }
      ],
      "name": "transferFrom",
      "outputs": [],
      "stateMutability": "nonpayable",
      "type": "function"
    },
    {
      "inputs": [
        {
          "internalType": "address",
          "name": "to",
          "type": "address"
        },
        {
          "internalType": "uint256",
          "name": "tokenId",
          "type": "uint256"
        },
        {
          "internalType": "uint256",
          "name": "amount",
          "type": "uint256"
        }
      ],
      "name": "transferOTokens",
      "outputs": [],
      "stateMutability": "nonpayable",
      "type": "function"
    },
    {
      "inputs": [
        {
          "internalType": "uint256",
          "name": "tokenId",
          "type": "uint256"
        }
      ],
      "name": "unlist",
      "outputs": [],
      "stateMutability": "nonpayable",
      "type": "function"
    },
    {
      "inputs": [
        {
          "internalType": "address",
          "name": "to",
          "type": "address"
        },
        {
          "internalType": "uint256",
          "name": "tokenId",
          "type": "uint256"
        },
        {
          "internalType": "uint8",
          "name": "sigV",
          "type": "uint8"
        },
        {
          "internalType": "bytes32",
          "name": "sigR",
          "type": "bytes32"
        },
        {
          "internalType": "bytes32",
          "name": "sigS",
          "type": "bytes32"
        }
      ],
      "name": "unwrap",
      "outputs": [],
      "stateMutability": "nonpayable",
      "type": "function"
    },
    {
      "inputs": [
        {
          "internalType": "address",
          "name": "to",
          "type": "address"
        },
        {
          "internalType": "uint256",
          "name": "tokenAmount",
          "type": "uint256"
        },
        {
          "internalType": "address",
          "name": "paymentToken",
          "type": "address"
        },
        {
          "internalType": "uint8",
          "name": "numGenerations",
          "type": "uint8"
        },
        {
          "internalType": "uint256",
          "name": "rewardRatio",
          "type": "uint256"
        },
        {
          "internalType": "uint256",
          "name": "ORatio",
          "type": "uint256"
        }
      ],
      "name": "wrap",
      "outputs": [
        {
          "internalType": "uint256",
          "name": "",
          "type": "uint256"
        }
      ],
      "stateMutability": "nonpayable",
      "type": "function"
    }
  ],
  "transactionHash": "0xe637b67db89a648d4bda37c45ae6a16a8fd42c71cbc79e381a4d101dab18bc9e",
  "args": [],
  "numDeployments": 1,
  "solcInputHash": "9fe8d29b97eac31a832b643c42051194",
  "bytecode": "0x608060405234801561001057600080fd5b50615ef980620000216000396000f3fe6080604052600436106102a05760003560e01c8063644026341161016e578063cd19f95f116100cb578063e985e9c51161007f578063efc7377a11610064578063efc7377a146108e5578063f637d95014610985578063fe99049a146109ed57600080fd5b8063e985e9c514610848578063e9d805181461086857600080fd5b8063e112ce77116100b0578063e112ce77146107aa578063e428ce43146107f6578063e85280f21461082857600080fd5b8063cd19f95f14610716578063d6febde81461079757600080fd5b8063b598590511610122578063b9cc28e811610107578063b9cc28e8146106b6578063bf5a4dd3146106d6578063c87b56dd146106f657600080fd5b8063b59859051461064e578063b88d4fde146106a357600080fd5b806370a082311161015357806370a08231146105f957806395d89b4114610619578063a22cb4651461062e57600080fd5b806364402634146105a95780636be3da26146105c957600080fd5b806332dea1951161021c5780634f6ccce7116101d05780635da6916a116101b55780635da6916a14610549578063603f3fcf146105695780636352211e1461058957600080fd5b80634f6ccce71461050957806354193d331461052957600080fd5b8063426a849311610201578063426a84931461049957806342842e0e146104b9578063440f5fd2146104cc57600080fd5b806332dea1951461042457806338e0e89b1461044457600080fd5b80631667a9f71161027357806319aeb4901161025857806319aeb490146103d157806323b872dd146103f15780632f745c591461040457600080fd5b80631667a9f71461034957806318160ddd146103bc57600080fd5b806301ffc9a7146102a557806306fdde03146102da578063081812fc146102fc578063095ea7b314610334575b600080fd5b3480156102b157600080fd5b506102c56102c0366004615641565b610a0d565b60405190151581526020015b60405180910390f35b3480156102e657600080fd5b506102ef610a50565b6040516102d191906156b6565b34801561030857600080fd5b5061031c6103173660046156c9565b610a5f565b6040516001600160a01b0390911681526020016102d1565b6103476103423660046156f7565b610a6a565b005b34801561035557600080fd5b506103ae610364366004615723565b6001600160a01b0391821660009081527f2bdc8c6d1bbe8471e8d4da02782043d3836700165c400eb80193f5ff5e83843d6020908152604080832093909416825291909152205490565b6040519081526020016102d1565b3480156103c857600080fd5b506103ae610a78565b3480156103dd57600080fd5b506103476103ec36600461575c565b610a82565b6103476103ff366004615788565b610c58565b34801561041057600080fd5b506103ae61041f3660046156f7565b610c68565b34801561043057600080fd5b5061034761043f3660046157c9565b610c7b565b34801561045057600080fd5b506103ae61045f3660046157c9565b6001600160a01b031660009081527f2bdc8c6d1bbe8471e8d4da02782043d3836700165c400eb80193f5ff5e83843c602052604090205490565b3480156104a557600080fd5b506103476104b43660046157e6565b610e01565b6103476104c7366004615788565b610ed4565b3480156104d857600080fd5b507fb49c8c57f283d8c9573eb96dfc83676d44502092b7b768c974851c545d2d89ff546001600160a01b031661031c565b34801561051557600080fd5b506103ae6105243660046156c9565b610edf565b34801561053557600080fd5b506103ae610544366004615831565b610eea565b34801561055557600080fd5b506103476105643660046156c9565b610fc8565b34801561057557600080fd5b50610347610584366004615723565b611048565b34801561059557600080fd5b5061031c6105a43660046156c9565b6111d8565b3480156105b557600080fd5b506103476105c43660046157c9565b6111e3565b3480156105d557600080fd5b506105e96105e43660046156c9565b611369565b6040516102d194939291906158d8565b34801561060557600080fd5b506103ae6106143660046157c9565b61143d565b34801561062557600080fd5b506102ef611448565b34801561063a57600080fd5b50610347610649366004615914565b611452565b34801561065a57600080fd5b506103ae6106693660046157c9565b6001600160a01b031660009081527f9e2510b4d59b813edef0dae2e1b6c87ee280a0f5524ef39bc6fe83ba371c55d0602052604090205490565b6103476106b1366004615958565b61145c565b3480156106c257600080fd5b506103476106d1366004615a38565b61146e565b3480156106e257600080fd5b506103476106f13660046156c9565b6118a3565b34801561070257600080fd5b506102ef6107113660046156c9565b6119b1565b34801561072257600080fd5b506107787f0a1932f308d56cf212053f1aaa8899548ab6083c0b2a38fcc19b4420795eedf1547f0a1932f308d56cf212053f1aaa8899548ab6083c0b2a38fcc19b4420795eedf2546001600160a01b0390911691565b604080516001600160a01b0390931683526020830191909152016102d1565b6103476107a5366004615a88565b6119bc565b3480156107b657600080fd5b506103ae6107c53660046156c9565b60009081527f9e2510b4d59b813edef0dae2e1b6c87ee280a0f5524ef39bc6fe83ba371c55cf602052604090205490565b34801561080257600080fd5b506108166108113660046156c9565b611b33565b6040516102d196959493929190615aaa565b34801561083457600080fd5b506103476108433660046157e6565b611bf4565b34801561085457600080fd5b506102c5610863366004615723565b611f4e565b34801561087457600080fd5b506103ae610883366004615ade565b60009182527f2bdc8c6d1bbe8471e8d4da02782043d3836700165c400eb80193f5ff5e83843b60209081526040808420548452600080516020615ea483398151915282528084206001600160a01b039390931684526004909201905290205490565b3480156108f157600080fd5b506109546109003660046156c9565b60009081527f9e2510b4d59b813edef0dae2e1b6c87ee280a0f5524ef39bc6fe83ba371c55cd602052604090208054600182015460029092015490926001600160a01b03821691600160a01b900460ff1690565b6040516102d1949392919093845260208401929092526001600160a01b031660408301521515606082015260800190565b34801561099157600080fd5b506109d86109a03660046156c9565b60009081527f9e2510b4d59b813edef0dae2e1b6c87ee280a0f5524ef39bc6fe83ba371c55ce60205260409020600181015490549091565b604080519283526020830191909152016102d1565b3480156109f957600080fd5b50610347610a08366004615b03565b611f9d565b6001600160e01b0319811660009081527ffc606c433378e3a7e0a6a531deac289b66caa1b4aa8554fd4ab2c6f1570f92d8602052604081205460ff165b92915050565b6060610a5a612000565b905090565b6000610a4a826120b1565b610a748282612114565b5050565b6000610a5a61217d565b610a8c33846121a8565b610b035760405162461bcd60e51b815260206004820152602e60248201527f455243353137333a206c6973742063616c6c6572206973206e6f74206f776e6560448201527f72206e6f7220617070726f76656400000000000000000000000000000000000060648201526084015b60405180910390fd5b60008381527f9e2510b4d59b813edef0dae2e1b6c87ee280a0f5524ef39bc6fe83ba371c55ce6020526040902060010154600080516020615e8483398151915290831115610b935760405162461bcd60e51b815260206004820152601360248201527f616d6f756e7420697320746f6f206c61726765000000000000000000000000006044820152606401610afa565b6040518060800160405280838152602001848152602001610bb13390565b6001600160a01b039081168252600160209283018190526000888152600a86018452604080822086518155948601519285019290925584820151600290940180546060909601511515600160a01b0274ffffffffffffffffffffffffffffffffffffffffff1990961694909316939093179390931790559051839186917f1ea45e30b31292f9d7c5d37d275b2feca555f13f47dce0fdea2f47e8852ecd789190a350505050565b610c638383836121fe565b505050565b6000610c74838361223c565b9392505050565b6001600160a01b03811660009081527f9e2510b4d59b813edef0dae2e1b6c87ee280a0f5524ef39bc6fe83ba371c55d06020526040902054600080516020615e8483398151915290610d0f5760405162461bcd60e51b815260206004820152601160248201527f4e6f204652205061796d656e74206475650000000000000000000000000000006044820152606401610afa565b6001600160a01b0382166000818152600d83016020526040808220805490839055905190929083908381818185875af1925050503d8060008114610d6f576040519150601f19603f3d011682016040523d82523d6000602084013e610d74565b606091505b5050905080610dc55760405162461bcd60e51b815260206004820152601460248201527f4661696c656420746f2072656c656173652046520000000000000000000000006044820152606401610afa565b60405182906001600160a01b038616907f5a9202ceea6770814401fd72940be33fb25a4b30d55ca69183766ad7feb3e5ef90600090a350505050565b60008281527f9e2510b4d59b813edef0dae2e1b6c87ee280a0f5524ef39bc6fe83ba371c55ce6020526040902060010154600080516020615e8483398151915290821115610eb65760405162461bcd60e51b8152602060048201526024808201527f417070726f76616c20616d6f756e74206578636565647320617373657420616d60448201527f6f756e74000000000000000000000000000000000000000000000000000000006064820152608401610afa565b610ec0848461227d565b6000928352600c0160205260409091205550565b610c638383836123bd565b6000610a4a826123d8565b600080610efb88888888888861240b565b905060007fb49c8c57f283d8c9573eb96dfc83676d44502092b7b768c974851c545d2d89ff80549091506001600160a01b03166323b872dd336040516001600160e01b031960e084901b1681526001600160a01b039091166004820152306024820152604481018b9052606401602060405180830381600087803b158015610f8257600080fd5b505af1158015610f96573d6000803e3d6000fd5b505050506040513d601f19601f82011682018060405250810190610fba9190615b49565b509098975050505050505050565b7f0a1932f308d56cf212053f1aaa8899548ab6083c0b2a38fcc19b4420795eedf180546001600160a01b031633146110425760405162461bcd60e51b815260206004820152601460248201527f43616c6c6572206e6f74207065726d69747465640000000000000000000000006044820152606401610afa565b60010155565b6001600160a01b0382811660009081527f2bdc8c6d1bbe8471e8d4da02782043d3836700165c400eb80193f5ff5e83843d6020908152604080832093851683529290522054600080516020615ea4833981519152906110e95760405162461bcd60e51b815260206004820152600e60248201527f4e6f205061796d656e74206475650000000000000000000000000000000000006044820152606401610afa565b6001600160a01b03838116600081815260038401602090815260408083209487168084529490915280822080549290555163a9059cbb60e01b8152600481019290925260248201819052919063a9059cbb90604401602060405180830381600087803b15801561115857600080fd5b505af115801561116c573d6000803e3d6000fd5b505050506040513d601f19601f820116820180604052508101906111909190615b49565b5080836001600160a01b0316856001600160a01b03167f20a17e8069eb1d67676a98bd16777f25b9c270125a6eba1e452cac5eb602eade60405160405180910390a450505050565b6000610a4a82612698565b6001600160a01b03811660009081527f2bdc8c6d1bbe8471e8d4da02782043d3836700165c400eb80193f5ff5e83843c6020526040902054600080516020615ea4833981519152906112775760405162461bcd60e51b815260206004820152601160248201527f4e6f204f52205061796d656e74206475650000000000000000000000000000006044820152606401610afa565b6001600160a01b0382166000818152600283016020526040808220805490839055905190929083908381818185875af1925050503d80600081146112d7576040519150601f19603f3d011682016040523d82523d6000602084013e6112dc565b606091505b505090508061132d5760405162461bcd60e51b815260206004820152601460248201527f4661696c656420746f2072656c65617365204f520000000000000000000000006044820152606401610afa565b60405182906001600160a01b038616907f3feca93bd3b961b230c096b1ef22dba609260c0c044ff23600c1c76075b50a4690600090a350505050565b60008181527f2bdc8c6d1bbe8471e8d4da02782043d3836700165c400eb80193f5ff5e83843b6020908152604080832054808452600080516020615ea4833981519152808452828520805460018201546002830154600390930180548751818a0281018a0190985280885289988998606098966001600160a01b03169392909183919083018282801561142557602002820191906000526020600020905b81546001600160a01b03168152600190910190602001808311611407575b50505050509050955095509550955050509193509193565b6000610a4a82612707565b6060610a5a612789565b610a7482826127ba565b6114688484848461286f565b50505050565b600080516020615e848339815191527fb49c8c57f283d8c9573eb96dfc83676d44502092b7b768c974851c545d2d89ff6114a833876121a8565b6114f45760405162461bcd60e51b815260206004820152601c60248201527f43616c6c6572206973206e6f74206f776e6572206f6620746f6b656e000000006044820152606401610afa565b60008681526009830160205260409020600401546001146117ea57604080517f483665e9e07e6be4695ecf90c93d681970aae53296f2918718e155b6db14f3456020808301919091526001600160a01b038a168284015260608083018a9052835180840390910181526080830190935282519201919091207f6f3b2823da9934e3b96d58a132e5174fa0cfcdf3f481cf96f364cdf70ae1154480547f190100000000000000000000000000000000000000000000000000000000000060a085015260a284015260c283018290529160009060e20160408051601f198184030181528282528051602091820120600080855291840180845281905260ff8c1692840192909252606083018a9052608083018990529092509060019060a0016020604051602081039080840390855afa158015611633573d6000803e3d6000fd5b50505060206040510351905060006116687f0a1932f308d56cf212053f1aaa8899548ab6083c0b2a38fcc19b4420795eedf190565b60008c81527f2bdc8c6d1bbe8471e8d4da02782043d3836700165c400eb80193f5ff5e83843b6020908152604080832054808452600080516020615ea48339815191529283905290832093945090929091805b6003830154811015611767576001600160a01b03821660009081526004840160208190526040822054600386018054919391859081106116fd576116fd615b66565b60009182526020808320909101546001600160a01b0316835282019290925260400190205411156117555782600301818154811061173d5761173d615b66565b6000918252602090912001546001600160a01b031691505b8061175f81615b92565b9150506116bb565b5084546001600160a01b03878116911614806117945750806001600160a01b0316866001600160a01b0316145b6117e05760405162461bcd60e51b815260206004820152601a60248201527f496e76616c6964207369676e61747572652070726f76696465640000000000006044820152606401610afa565b5050505050505050505b80546000878152600b840160205260409020600101546001600160a01b0390911690611815886128ae565b60405163a9059cbb60e01b81526001600160a01b038a811660048301526024820183905283169063a9059cbb90604401602060405180830381600087803b15801561185f57600080fd5b505af1158015611873573d6000803e3d6000fd5b505050506040513d601f19601f820116820180604052508101906118979190615b49565b50505050505050505050565b6118ad33826121a8565b61191f5760405162461bcd60e51b815260206004820152603060248201527f455243353137333a20756e6c6973742063616c6c6572206973206e6f74206f7760448201527f6e6572206e6f7220617070726f766564000000000000000000000000000000006064820152608401610afa565b60008181527f9e2510b4d59b813edef0dae2e1b6c87ee280a0f5524ef39bc6fe83ba371c55cd602052604080822082815560018101839055600201805474ffffffffffffffffffffffffffffffffffffffffff1916905551600080516020615e848339815191529183917f6318005f6dc5a71d3e4ad5b4d1fe455ef3402d62b64573777af55bb6bfe3daab9190a25050565b6060610a4a826128e7565b60008281527f2bdc8c6d1bbe8471e8d4da02782043d3836700165c400eb80193f5ff5e83843b6020908152604080832054808452600080516020615ea4833981519152928390529220600201549091906001600160a01b031680611a2957611a248585612af5565b611b2c565b60008581527f9e2510b4d59b813edef0dae2e1b6c87ee280a0f5524ef39bc6fe83ba371c55cd602052604081208054600190910154600080516020615e848339815191529291611a8491611a7e908990612b01565b90612b16565b90506001600160a01b0383166323b872dd336040516001600160e01b031960e084901b1681526001600160a01b03909116600482015230602482015260448101849052606401602060405180830381600087803b158015611ae457600080fd5b505af1158015611af8573d6000803e3d6000fd5b505050506040513d601f19601f82011682018060405250810190611b1c9190615b49565b50611b2987876001612b22565b50505b5050505050565b600080808080606081600080516020615e848339815191526000898152600982016020908152604091829020805460018201546002830154600384015460048501546005909501805488518189028101890190995280895298995060ff9094169792969195909493928391830182828015611bd757602002820191906000526020600020905b81546001600160a01b03168152600190910190602001808311611bb9575b505050505090509650965096509650965096505091939550919395565b600080516020615ea48339815191526001600160a01b038416611c595760405162461bcd60e51b815260206004820152601c60248201527f7472616e7366657220746f20746865207a65726f2061646472657373000000006044820152606401610afa565b6001600160a01b038416331415611cb25760405162461bcd60e51b815260206004820152601060248201527f7472616e7366657220746f2073656c66000000000000000000000000000000006044820152606401610afa565b60008211611d025760405162461bcd60e51b815260206004820152601460248201527f7472616e7366657220616d6f756e7420697320300000000000000000000000006044820152606401610afa565b60008381526001820160209081526040808320548084528483528184203385526004019092529091205483811015611d7c5760405162461bcd60e51b815260206004820152601f60248201527f7472616e7366657220616d6f756e7420657863656564732062616c616e6365006044820152606401610afa565b60008281526020848152604080832033845260040190915280822086840390556001600160a01b03881682529020805485019055611dba8482615bad565b611ed35760005b600083815260208590526040902060030154811015611e8a576000838152602085905260409020600301805433919083908110611e0057611e00615b66565b6000918252602090912001546001600160a01b03161415611e78576000838152602085905260409020600301805488919083908110611e4157611e41615b66565b9060005260206000200160006101000a8154816001600160a01b0302191690836001600160a01b0316021790555050505050505050565b80611e8281615b92565b915050611dc1565b5060405162461bcd60e51b815260206004820152600960248201527f4e6f7420466f756e6400000000000000000000000000000000000000000000006044820152606401610afa565b6000828152602084815260408220600301805460018101825590835291200180546001600160a01b0319166001600160a01b0388169081179091558590336001600160a01b03167fcabb64bf74c3918e2dead3a14bbffbb72db126018e7ec25b6477447c50022fac60405160405180910390a4505050505050565b6001600160a01b0380831660009081527f3c7bf052874fa81625121783266a03507bd2cd48b16e571c01a04e8dd3fb07aa6020908152604080832093851683529290529081205460ff16610c74565b611fa8338383612d02565b611ff45760405162461bcd60e51b815260206004820181905260248201527f63616c6c6572206973206e6f74206f776e6572206e6f7220617070726f7665646044820152606401610afa565b61146884848484612df3565b60607f99574a7094154bb123ae6ae102096f0bf9679b85a5cd1e727aaa0ae5f132e6b1805461202e90615bc4565b80601f016020809104026020016040519081016040528092919081815260200182805461205a90615bc4565b80156120a75780601f1061207c576101008083540402835291602001916120a7565b820191906000526020600020905b81548152906001019060200180831161208a57829003601f168201915b5050505050905090565b60006120bc82612e01565b6120d95760405163c1b843ef60e01b815260040160405180910390fd5b5060009081527f3c7bf052874fa81625121783266a03507bd2cd48b16e571c01a04e8dd3fb07a960205260409020546001600160a01b031690565b61211e828261227d565b60009081527f9e2510b4d59b813edef0dae2e1b6c87ee280a0f5524ef39bc6fe83ba371c55ce60209081526040808320600101547f9e2510b4d59b813edef0dae2e1b6c87ee280a0f5524ef39bc6fe83ba371c55cf9092529091205550565b6000610a5a7f3c7bf052874fa81625121783266a03507bd2cd48b16e571c01a04e8dd3fb07a6612e2d565b60008181527f9e2510b4d59b813edef0dae2e1b6c87ee280a0f5524ef39bc6fe83ba371c55ce6020526040812060010154600080516020615e84833981519152906121f69085908590612d02565b949350505050565b61220a83838334612e37565b61221433826121a8565b61223157604051632f5de44f60e01b815260040160405180910390fd5b610c63838383612e74565b6001600160a01b03821660009081527f3c7bf052874fa81625121783266a03507bd2cd48b16e571c01a04e8dd3fb07a860205260408120610c749083612ec4565b612288828234612ed0565b600061229382612698565b9050806001600160a01b0316836001600160a01b031614156122c85760405163424a22cb60e01b815260040160405180910390fd5b336001600160a01b0382161480159061232457506001600160a01b03811660009081527f3c7bf052874fa81625121783266a03507bd2cd48b16e571c01a04e8dd3fb07aa6020908152604080832033845290915290205460ff16155b1561234257604051632f5de44f60e01b815260040160405180910390fd5b60008281527f3c7bf052874fa81625121783266a03507bd2cd48b16e571c01a04e8dd3fb07a9602052604080822080546001600160a01b0319166001600160a01b0387811691821790925591518593918516917f8c5be1e5ebec7d5bd14f71427d1e84f3dd0314c0f7b2291e5b200ac8c7c3b92591a4505050565b610c638383836040518060200160405280600081525061286f565b60006124047f3c7bf052874fa81625121783266a03507bd2cd48b16e571c01a04e8dd3fb07a683612f08565b5092915050565b600060058460ff1610158015612425575060148460ff1611155b6124975760405162461bcd60e51b815260206004820152602760248201527f6e756d47656e65726174696f6e73206d757374206265206265747765656e203560448201527f20616e64203230000000000000000000000000000000000000000000000000006064820152608401610afa565b66b1a2bc2ec5000083101580156124b657506706f05b59d3b200008311155b6125285760405162461bcd60e51b815260206004820152602660248201527f726577617264526174696f206d757374206265206265747765656e203525206160448201527f6e642035302500000000000000000000000000000000000000000000000000006064820152608401610afa565b66b1a2bc2ec50000821015801561254757506706f05b59d3b200008211155b6125b95760405162461bcd60e51b815260206004820152602160248201527f4f526174696f206d757374206265206265747765656e20352520616e6420353060448201527f25000000000000000000000000000000000000000000000000000000000000006064820152608401610afa565b600060646126036716744a6d6e9500006125de60ff8916670de0b6b3a7640000615bff565b6125e89190615bad565b6125fd60ff8916670de0b6b3a7640000615bff565b90612b01565b61260d9190615c34565b612618906064615bff565b9050600061263861263185670de0b6b3a7640000615bad565b8690612b16565b90506126448585612b16565b935061264e612f24565b7f0bec8ab077af1e12783ac8c970bca6dada042613c1ff87b4d0953dea6b0115fc5461267d8a8287898c612f5e565b61268b8a828b8a86886130bb565b9998505050505050505050565b6000806126c57f3c7bf052874fa81625121783266a03507bd2cd48b16e571c01a04e8dd3fb07a684613100565b90506001600160a01b038116610a4a576040517f7e1a7d8b00000000000000000000000000000000000000000000000000000000815260040160405180910390fd5b60006001600160a01b038216612749576040517f810ff97000000000000000000000000000000000000000000000000000000000815260040160405180910390fd5b6001600160a01b03821660009081527f3c7bf052874fa81625121783266a03507bd2cd48b16e571c01a04e8dd3fb07a860205260409020610a4a90612e2d565b60607f99574a7094154bb123ae6ae102096f0bf9679b85a5cd1e727aaa0ae5f132e6b1600101805461202e90615bc4565b6001600160a01b0382163314156127e45760405163424a22cb60e01b815260040160405180910390fd5b3360008181527f3c7bf052874fa81625121783266a03507bd2cd48b16e571c01a04e8dd3fb07aa602090815260408083206001600160a01b03871680855290835292819020805460ff191686151590811790915590519081529192917f17307eab39ab6107e8899845ad3d59bd9653f200f220920489ca2b5937696c31910160405180910390a35050565b61287b84848434612e37565b61288533836121a8565b6128a257604051632f5de44f60e01b815260040160405180910390fd5b6114688484848461310c565b6128b781613159565b60009081527f2bdc8c6d1bbe8471e8d4da02782043d3836700165c400eb80193f5ff5e83843b6020526040812055565b60606128f282612e01565b612928576040517f2382d38000000000000000000000000000000000000000000000000000000000815260040160405180910390fd5b60008281527f99574a7094154bb123ae6ae102096f0bf9679b85a5cd1e727aaa0ae5f132e6b46020526040812080547f99574a7094154bb123ae6ae102096f0bf9679b85a5cd1e727aaa0ae5f132e6b192919061298490615bc4565b80601f01602080910402602001604051908101604052809291908181526020018280546129b090615bc4565b80156129fd5780601f106129d2576101008083540402835291602001916129fd565b820191906000526020600020905b8154815290600101906020018083116129e057829003601f168201915b505050505090506000826002018054612a1590615bc4565b80601f0160208091040260200160405190810160405280929190818152602001828054612a4190615bc4565b8015612a8e5780601f10612a6357610100808354040283529160200191612a8e565b820191906000526020600020905b815481529060010190602001808311612a7157829003601f168201915b50505050509050805160001415612aa757509392505050565b815115612ada578082604051602001612ac1929190615c48565b6040516020818303038152906040529350505050919050565b80612ae486613237565b604051602001612ac1929190615c48565b610a7482826000612b22565b6000610c7483670de0b6b3a764000084613369565b6000610c748383613450565b60008381527f9e2510b4d59b813edef0dae2e1b6c87ee280a0f5524ef39bc6fe83ba371c55cd6020526040902060020154600080516020615e8483398151915290600160a01b900460ff161515600114612bbe5760405162461bcd60e51b815260206004820152601360248201527f546f6b656e206973206e6f74206c6973746564000000000000000000000000006044820152606401610afa565b6000848152600a82016020526040902060010154831115612c215760405162461bcd60e51b815260206004820152601e60248201527f42757920616d6f756e742065786365656473206c69737420616d6f756e7400006044820152606401610afa565b6000848152600a8201602052604081208054600190910154612c499190611a7e908790612b01565b90508280612c5657503481145b612ca25760405162461bcd60e51b815260206004820181905260248201527f73616c65507269636520616e64206d73672e76616c7565206d69736d617463686044820152606401610afa565b6000858152600a83016020526040902060020154612ccc906001600160a01b031633878785613545565b8381867f871cca9c30ebd3d38d92d08304561880d6466ddb658d2fd88e501a929c497fd960405160405180910390a45050505050565b6000600080516020615e84833981519152612d1c84612e01565b612d395760405163c1b843ef60e01b815260040160405180910390fd5b6000612d4485612698565b9050806001600160a01b0316866001600160a01b03161480612d9a5750856001600160a01b0316612d74866120b1565b6001600160a01b0316148015612d9a57506000858152600c830160205260409020548411155b80612de957506001600160a01b0380821660009081527f3c7bf052874fa81625121783266a03507bd2cd48b16e571c01a04e8dd3fb07aa60209081526040808320938a168352929052205460ff165b9695505050505050565b611468848484846000613545565b6000610a4a7f3c7bf052874fa81625121783266a03507bd2cd48b16e571c01a04e8dd3fb07a6836139c7565b6000610a4a825490565b8015612e6f576040517f22b1813900000000000000000000000000000000000000000000000000000000815260040160405180910390fd5b611468565b60008181527f9e2510b4d59b813edef0dae2e1b6c87ee280a0f5524ef39bc6fe83ba371c55ce6020526040902060010154600080516020615e848339815191529061146890859085908590612df3565b6000610c7483836139df565b8015610c63576040517fb56d7c1b00000000000000000000000000000000000000000000000000000000815260040160405180910390fd5b6000808080612f178686613a44565b9097909650945050505050565b60017f0bec8ab077af1e12783ac8c970bca6dada042613c1ff87b4d0953dea6b0115fc8054600090612f57908490615c77565b9091555050565b60008481527f2bdc8c6d1bbe8471e8d4da02782043d3836700165c400eb80193f5ff5e83843b60209081526040808320879055600080516020615ea483398151915280835281842087815560018101879055600280820180546001600160a01b0319166001600160a01b038981169190911790915584518086019095527f0a1932f308d56cf212053f1aaa8899548ab6083c0b2a38fcc19b4420795eedf1805482168652908c1685870152958a905293829052909392613024926003909201919061555a565b50600181015460008781526020848152604080832085546001600160a01b03168452600401909152902081905561306390670de0b6b3a7640000615bad565b6000878152602084815260408083206001600160a01b038c16845260040190915280822092909255905187917fe33b4df6ca519196f49edc783e3efade92579814fa72600f8104e5db7439d4a691a250505050505050565b6130f886868686868660006001816040519080825280602002602001820160405280156130f2578160200160208202803683370190505b50613ac0565b505050505050565b6000610c748383613cfe565b613117848484612e74565b61312384848484613d79565b611468576040517f9ff10cdd00000000000000000000000000000000000000000000000000000000815260040160405180910390fd5b61316281613e8d565b60008181527f9e2510b4d59b813edef0dae2e1b6c87ee280a0f5524ef39bc6fe83ba371c55cc60205260408120805460ff1916815560018101829055600281018290556003810182905560048101829055600080516020615e84833981519152916131d060058301826155bf565b50600601805460ff191690556000918252600a81016020908152604080842084815560018181018690556002909101805474ffffffffffffffffffffffffffffffffffffffffff19169055600b8401835281852085815501849055600c9092019052812055565b60608161327757505060408051808201909152600181527f3000000000000000000000000000000000000000000000000000000000000000602082015290565b8160005b81156132a1578061328b81615b92565b915061329a9050600a83615c34565b915061327b565b60008167ffffffffffffffff8111156132bc576132bc615942565b6040519080825280601f01601f1916602001820160405280156132e6576020820181803683370190505b5090505b84156121f6576132fb600183615bad565b9150613308600a86615c8f565b613313906030615c77565b60f81b81838151811061332857613328615b66565b60200101907effffffffffffffffffffffffffffffffffffffffffffffffffffffffffffff1916908160001a905350613362600a86615c34565b94506132ea565b6000808060001985870985870292508281108382030391505080600014156133a45783828161339a5761339a615c1e565b0492505050610c74565b8381106133e7576040517f773cc18c0000000000000000000000000000000000000000000000000000000081526004810182905260248101859052604401610afa565b60008486880960026001871981018816978890046003810283188082028403028082028403028082028403028082028403028082028403029081029092039091026000889003889004909101858311909403939093029303949094049190911702949350505050565b60008080600019848609848602925082811083820303915050670de0b6b3a764000081106134ad576040517fd31b340200000000000000000000000000000000000000000000000000000000815260048101829052602401610afa565b600080670de0b6b3a76400008688099150506706f05b59d3b1ffff8111826134e75780670de0b6b3a7640000850401945050505050610a4a565b6204000082850304939091119091037d40000000000000000000000000000000000000000000000000000000000002919091177faccb18165bd6fe31ae1cf318dc5b51eee0e1ba569b88cd74c1773b91fac106690201905092915050565b836001600160a01b0316856001600160a01b031614156135a75760405162461bcd60e51b815260206004820152601060248201527f7472616e7366657220746f2073656c66000000000000000000000000000000006044820152606401610afa565b60008381527f9e2510b4d59b813edef0dae2e1b6c87ee280a0f5524ef39bc6fe83ba371c55ce6020526040902060010154600080516020615e84833981519152908311156136375760405162461bcd60e51b815260206004820152601360248201527f616d6f756e7420697320746f6f206c61726765000000000000000000000000006044820152606401610afa565b60005b60008581526009830160205260409020600501548110156136fb576000858152600983016020526040902060050180546001600160a01b03881691908390811061368657613686615b66565b6000918252602090912001546001600160a01b031614156136e95760405162461bcd60e51b815260206004820181905260248201527f416c726561647920696e2074686520465220736c6964696e672077696e646f776044820152606401610afa565b806136f381615b92565b91505061363a565b506000848152600b8201602090815260408083205460098501909252822060030154829161374991879161372f9190613fa5565b6137398789613fa5565b6137439190615ca3565b906140a9565b905060008113156137625761375f86858361419d565b91505b6000868152600b8401602052604081206001015486146137f757613788888888886141c6565b90508584600b01600089815260200190815260200160002060010160008282546137b29190615bad565b909155505060008781527f3c7bf052874fa81625121783266a03507bd2cd48b16e571c01a04e8dd3fb07a96020526040902080546001600160a01b03191690556138c4565b613802898989614217565b61381d89898960405180602001604052806000815250613d79565b61388f5760405162461bcd60e51b815260206004820152603260248201527f4552433732313a207472616e7366657220746f206e6f6e20455243373231526560448201527f63656976657220696d706c656d656e74657200000000000000000000000000006064820152608401610afa565b60008781526009850160205260408120600381018790556004018054916138b583615b92565b91905055506138c488886143ea565b6000878152600c850160209081526040808320839055600a87019091529020600201546001600160a01b03811690600160a01b900460ff16801561391a57506000888152600a8601602052604090206001015487105b15613972576000888152600a860160205260408120805488929061393f908490615bad565b90915550506000888152600a8601602052604081206001018054899290613967908490615bad565b909155506139ad9050565b6000888152600a8601602052604081208181556001810191909155600201805474ffffffffffffffffffffffffffffffffffffffffff191690555b85156118975761189788826139c2878a615bad565b61455f565b60008181526001830160205260408120541515610c74565b81546000908210613a1c576040517fe637bf3b00000000000000000000000000000000000000000000000000000000815260040160405180910390fd5b826000018281548110613a3157613a31615b66565b9060005260206000200154905092915050565b815460009081908310613a83576040517f117ec13800000000000000000000000000000000000000000000000000000000815260040160405180910390fd5b6000846000018481548110613a9a57613a9a615b66565b906000526020600020906002020190508060000154816001015492509250509250929050565b60008660ff16118015613ad35750600085115b8015613ae75750670de0b6b3a76400008511155b8015613af35750600084115b8015613aff5750600087115b8015613b0b5750600082115b613b575760405162461bcd60e51b815260206004820152601360248201527f496e76616c6964204461746120506173736564000000000000000000000000006044820152606401610afa565b613b61898961464f565b613b7d60008a8a60405180602001604052806000815250613d79565b613bef5760405162461bcd60e51b815260206004820152603260248201527f4552433732313a207472616e7366657220746f206e6f6e20455243373231526560448201527f63656976657220696d706c656d656e74657200000000000000000000000000006064820152608401610afa565b6000600080516020615e8483398151915290506040518060e001604052808860ff168152602001878152602001868152602001858152602001848152602001838152602001600115158152508160090160008b815260200190815260200160002060008201518160000160006101000a81548160ff021916908360ff1602179055506020820151816001015560408201518160020155606082015181600301556080820151816004015560a0820151816005019080519060200190613cb592919061555a565b5060c091909101516006909101805460ff1916911515919091179055613cdb8a8a6143ea565b6000988952600b0160205250506040909520848155600101939093555050505050565b600081815260018301602052604081205480613d46576040517ff551fb1400000000000000000000000000000000000000000000000000000000815260040160405180910390fd5b836000016001820381548110613d5e57613d5e615b66565b90600052602060002090600202016001015491505092915050565b60006001600160a01b0384163b613d92575060016121f6565b6000613e3d63150b7a0260e01b33888787604051602401613db69493929190615ce2565b604051602081830303815290604052907bffffffffffffffffffffffffffffffffffffffffffffffffffffffff19166020820180517bffffffffffffffffffffffffffffffffffffffffffffffffffffffff8381831617835250505050604051806060016040528060328152602001615e52603291396001600160a01b0388169190614788565b9050600081806020019051810190613e559190615d14565b6001600160e01b0319167f150b7a02000000000000000000000000000000000000000000000000000000001492505050949350505050565b6000613e9882612698565b9050613ea681600084614797565b6001600160a01b03811660009081527f3c7bf052874fa81625121783266a03507bd2cd48b16e571c01a04e8dd3fb07a8602052604090207f3c7bf052874fa81625121783266a03507bd2cd48b16e571c01a04e8dd3fb07a690613f0990846147a2565b50613f1481846147ae565b50600083815260038201602052604080822080546001600160a01b0319169055518491906001600160a01b038516907f8c5be1e5ebec7d5bd14f71427d1e84f3dd0314c0f7b2291e5b200ac8c7c3b925908390a460405183906000906001600160a01b038516907fddf252ad1be2c89b69c2b068fc378daa952ba7f163c4a11628f55a4df523b3ef908390a4505050565b6000600160ff1b831480613fbc5750600160ff1b82145b15613ff3576040517fb3c754a300000000000000000000000000000000000000000000000000000000815260040160405180910390fd5b600080600085126140045784614009565b846000035b915060008412614019578361401e565b836000035b9050600061403583670de0b6b3a764000084613369565b90506001600160ff1b0381111561407b576040517f7cb4bef500000000000000000000000000000000000000000000000000000000815260048101829052602401610afa565b600019808713908613808218600114614094578261409d565b61409d83615d31565b98975050505050505050565b6000600160ff1b8314806140c05750600160ff1b82145b156140f7576040517f3406846c00000000000000000000000000000000000000000000000000000000815260040160405180910390fd5b60008060008512614108578461410d565b846000035b91506000841261411d5783614122565b836000035b905060006141308383613450565b90506001600160ff1b03811115614176576040517fbf79e8d900000000000000000000000000000000000000000000000000000000815260048101829052602401610afa565b60001980871390861380821860011461418f578261409d565b505060000395945050505050565b6000806141ab8585856147ba565b905060006141ba8686866149a7565b9050612de98282615c77565b6000806141d586868686614b9a565b60009586527f2bdc8c6d1bbe8471e8d4da02782043d3836700165c400eb80193f5ff5e83843b6020526040808720548288529620959095555092949350505050565b600061422282612698565b9050836001600160a01b0316816001600160a01b03161461426f576040517f0f2db4ad00000000000000000000000000000000000000000000000000000000815260040160405180910390fd5b6001600160a01b0383166142af576040517f40311a0900000000000000000000000000000000000000000000000000000000815260040160405180910390fd5b6142ba848484614797565b6001600160a01b03841660009081527f3c7bf052874fa81625121783266a03507bd2cd48b16e571c01a04e8dd3fb07a8602052604090207f3c7bf052874fa81625121783266a03507bd2cd48b16e571c01a04e8dd3fb07a69061431d90846147a2565b506001600160a01b038416600090815260028201602052604090206143429084614cda565b5061434e818486614ce6565b50600083815260038201602052604080822080546001600160a01b0319169055518491906001600160a01b038516907f8c5be1e5ebec7d5bd14f71427d1e84f3dd0314c0f7b2291e5b200ac8c7c3b925908390a482846001600160a01b0316866001600160a01b03167fddf252ad1be2c89b69c2b068fc378daa952ba7f163c4a11628f55a4df523b3ef60405160405180910390a45050505050565b60008181527f9e2510b4d59b813edef0dae2e1b6c87ee280a0f5524ef39bc6fe83ba371c55cc60205260409020805460059091018054600080516020615e848339815191529260ff1611156144695780546001810182556000828152602090200180546001600160a01b0319166001600160a01b038616179055611468565b60005b815461447a90600190615bad565b811015614508578161448d826001615c77565b8154811061449d5761449d615b66565b9060005260206000200160009054906101000a90046001600160a01b03168282815481106144cd576144cd615b66565b600091825260209091200180546001600160a01b0319166001600160a01b03929092169190911790558061450081615b92565b91505061446c565b5080548490829061451b90600190615bad565b8154811061452b5761452b615b66565b9060005260206000200160006101000a8154816001600160a01b0302191690836001600160a01b0316021790555050505050565b60008381527f2bdc8c6d1bbe8471e8d4da02782043d3836700165c400eb80193f5ff5e83843b6020908152604080832054808452600080516020615ea4833981519152928390529220600201549091906001600160a01b0316806145cd576145c8868686614cfc565b6130f8565b60405163a9059cbb60e01b81526001600160a01b0386811660048301526024820186905282169063a9059cbb90604401602060405180830381600087803b15801561461757600080fd5b505af115801561462b573d6000803e3d6000fd5b505050506040513d601f19601f82011682018060405250810190611b299190615b49565b6001600160a01b03821661468f576040517f23e5311a00000000000000000000000000000000000000000000000000000000815260040160405180910390fd5b61469881612e01565b156146cf576040517f6c35dbd800000000000000000000000000000000000000000000000000000000815260040160405180910390fd5b6146db60008383614797565b6001600160a01b03821660009081527f3c7bf052874fa81625121783266a03507bd2cd48b16e571c01a04e8dd3fb07a8602052604090207f3c7bf052874fa81625121783266a03507bd2cd48b16e571c01a04e8dd3fb07a69061473e9083614cda565b5061474a818385614ce6565b5060405182906001600160a01b038516906000907fddf252ad1be2c89b69c2b068fc378daa952ba7f163c4a11628f55a4df523b3ef908290a4505050565b60606121f68484600085614dc5565b610c63838383614e9b565b6000610c748383614ea6565b6000610c748383614f60565b60008381527f2bdc8c6d1bbe8471e8d4da02782043d3836700165c400eb80193f5ff5e83843b6020908152604080832054808452600080516020615ea483398151915292839052908320600281015490546001600160a01b03909116908490614824908790612b16565b905060005b60008481526020869052604090206003015481101561496957600084815260208690526040812060030180548390811061486557614865615b66565b6000918252602090912001546001600160a01b03908116915084166148e8576000858152602087815260408083206001600160a01b03851684526004019091529020546148b3908490612b16565b6001600160a01b0382166000908152600288016020526040812080549091906148dd908490615c77565b909155506149569050565b6000858152602087815260408083206001600160a01b0385168452600401909152902054614917908490612b16565b6001600160a01b038083166000908152600389016020908152604080832093891683529290529081208054909190614950908490615c77565b90915550505b508061496181615b92565b915050614829565b508094508087897f203f543c39cd9297a8eb66a22189a127d3e94b5e54d52bfef63fec603138edf160405160405180910390a4505050509392505050565b60008381527f9e2510b4d59b813edef0dae2e1b6c87ee280a0f5524ef39bc6fe83ba371c55cc602090815260408083206005018054825181850281018501909352808352600080516020615e84833981519152938593929190830182828015614a3957602002820191906000526020600020905b81546001600160a01b03168152600190910190602001808311614a1b575b5050505050905060018151038152805160001415614a5c57600092505050610c74565b600086815260098301602052604081206001808201546002830154600490930154614ab79389939091614a8f9190615bad565b60008c8152600989016020526040902054614aaf9060019060ff16615d47565b60ff16615048565b905060005b8151811015614b3f57600088815260098501602052604090206005018054614b2d918a9184908110614af057614af0615b66565b9060005260206000200160009054906101000a90046001600160a01b0316848481518110614b2057614b20615b66565b60200260200101516151a3565b80614b3781615b92565b915050614abc565b506000878152600984016020526040902060010154614b5f908690612b16565b93508386887f0362ef0ca7c60bdd7789f855ba29ed06265c4c942f6562c9e0007dbcb1e107c760405160405180910390a45050509392505050565b600080614ba561526f565b60008681527f9e2510b4d59b813edef0dae2e1b6c87ee280a0f5524ef39bc6fe83ba371c55cc60209081526040808320815160e081018352815460ff1681526001820154818501526002820154818401526003820154606082015260048201546080820152600582018054845181870281018701909552808552969750600080516020615e84833981519152969194929360a0860193909290830182828015614c7757602002820191906000526020600020905b81546001600160a01b03168152600190910190602001808311614c59575b505050505081526020016006820160009054906101000a900460ff1615151515815250509050614cce8884888460000151856020015186604001518b88608001516001614cc49190615c77565b8960a00151613ac0565b50909695505050505050565b6000610c74838361529f565b60006121f684846001600160a01b0385166152e2565b6000826001600160a01b03168260405160006040518083038185875af1925050503d8060008114614d49576040519150601f19603f3d011682016040523d82523d6000602084013e614d4e565b606091505b50509050806114685760405162461bcd60e51b815260206004820152602560248201527f455243353137333a204661696c656420746f2073656e642045544820746f206c60448201527f69737465720000000000000000000000000000000000000000000000000000006064820152608401610afa565b6060843b614dff576040517f89c35afc00000000000000000000000000000000000000000000000000000000815260040160405180910390fd5b600080866001600160a01b03168587604051614e1b9190615d6a565b60006040518083038185875af1925050503d8060008114614e58576040519150601f19603f3d011682016040523d82523d6000602084013e614e5d565b606091505b50915091508115614e715791506121f69050565b805115614e815780518082602001fd5b8360405162461bcd60e51b8152600401610afa91906156b6565b610c6383838361537f565b6000818152600183016020526040812054801561240457835460009085906000198101908110614ed857614ed8615b66565b9060005260206000200154905080856000016001840381548110614efe57614efe615b66565b6000918252602080832090910192909255918252600186019052604090208190558354849080614f3057614f30615d86565b60008281526020808220830160001990810183905590920190925593815260019485019093525050604081205590565b6000818152600183016020526040812054801561503e57835460009085906000198101908110614f9257614f92615b66565b9060005260206000209060020201905080856000016001840381548110614fbb57614fbb615b66565b6000918252602080832084546002909302019182556001938401549184019190915592548152908601909152604090208190558354849080614fff57614fff615d86565b6000828152602080822060026000199094019384020182815560019081018390559290935585815286820190925260408220919091559150610a4a9050565b6000915050610a4a565b6060600061505684846153c3565b905060008167ffffffffffffffff81111561507357615073615942565b60405190808252806020026020018201604052801561509c578160200160208202803683370190505b50905060015b6150ad836001615c77565b81101561519757600087670de0b6b3a76400001461514c5760006150d189866153d9565b6150e390670de0b6b3a7640000615ca3565b905060006150fc6150f5600186615bad565b8b906153d9565b9050600061510a8d8d6140a9565b9050600061512a6151238d670de0b6b3a7640000615ca3565b83906140a9565b9050836151378483615d9c565b6151419190615e23565b94505050505061515d565b61515a846125fd8c8c612b16565b90505b80836151698487615bad565b8151811061517957615179615b66565b6020908102919091010152508061518f81615b92565b9150506150a2565b50979650505050505050565b60008381527f2bdc8c6d1bbe8471e8d4da02782043d3836700165c400eb80193f5ff5e83843b6020908152604080832054808452600080516020615ea4833981519152928390529220600201549091906001600160a01b03168061520c576145c88686866154b4565b6001600160a01b0385811660009081527f2bdc8c6d1bbe8471e8d4da02782043d3836700165c400eb80193f5ff5e83843d6020908152604080832093851683529290529081208054869290615262908490615c77565b9091555050505050505050565b6000615279612f24565b507f0bec8ab077af1e12783ac8c970bca6dada042613c1ff87b4d0953dea6b0115fc5490565b6000818152600183016020526040812054610a4a575081546001808201845560008481526020808220909301849055845493815293810190915260409092205590565b600082815260018401602052604081205480615347575050604080518082018252838152602080820184815286546001818101895560008981528481209551600290930290950191825591519082015586548684528188019092529290912055610c74565b8285600001600183038154811061536057615360615b66565b9060005260206000209060020201600101819055506000915050610c74565b6001600160a01b038216610c635760008181527f99574a7094154bb123ae6ae102096f0bf9679b85a5cd1e727aaa0ae5f132e6b460205260408120610c63916155e0565b60008183106153d25781610c74565b5090919050565b6000806153e584615505565b9050600080846001161161540157670de0b6b3a7640000615403565b815b9050600184901c5b801561543b5761541b8384613450565b92506001811615615433576154308284613450565b91505b60011c61540b565b6001600160ff1b0382111561547f576040517fffb15bcd00000000000000000000000000000000000000000000000000000000815260048101839052602401610afa565b600080871280156154935750856001166001145b9050806154a057826154a9565b6154a983615d31565b979650505050505050565b6001600160a01b03821660009081527f9e2510b4d59b813edef0dae2e1b6c87ee280a0f5524ef39bc6fe83ba371c55d06020526040812080548392906154fb908490615c77565b9091555050505050565b6000600160ff1b821415615545576040517f741d0b8c00000000000000000000000000000000000000000000000000000000815260040160405180910390fd5b600082126155535781610a4a565b5060000390565b8280548282559060005260206000209081019282156155af579160200282015b828111156155af57825182546001600160a01b0319166001600160a01b0390911617825560209092019160019091019061557a565b506155bb929150615616565b5090565b50805460008255906000526020600020908101906155dd9190615616565b50565b5080546155ec90615bc4565b6000825580601f106155fc575050565b601f0160209004906000526020600020908101906155dd91905b5b808211156155bb5760008155600101615617565b6001600160e01b0319811681146155dd57600080fd5b60006020828403121561565357600080fd5b8135610c748161562b565b60005b83811015615679578181015183820152602001615661565b838111156114685750506000910152565b600081518084526156a281602086016020860161565e565b601f01601f19169290920160200192915050565b602081526000610c74602083018461568a565b6000602082840312156156db57600080fd5b5035919050565b6001600160a01b03811681146155dd57600080fd5b6000806040838503121561570a57600080fd5b8235615715816156e2565b946020939093013593505050565b6000806040838503121561573657600080fd5b8235615741816156e2565b91506020830135615751816156e2565b809150509250929050565b60008060006060848603121561577157600080fd5b505081359360208301359350604090920135919050565b60008060006060848603121561579d57600080fd5b83356157a8816156e2565b925060208401356157b8816156e2565b929592945050506040919091013590565b6000602082840312156157db57600080fd5b8135610c74816156e2565b6000806000606084860312156157fb57600080fd5b8335615806816156e2565b95602085013595506040909401359392505050565b803560ff8116811461582c57600080fd5b919050565b60008060008060008060c0878903121561584a57600080fd5b8635615855816156e2565b955060208701359450604087013561586c816156e2565b935061587a6060880161581b565b92506080870135915060a087013590509295509295509295565b600081518084526020808501945080840160005b838110156158cd5781516001600160a01b0316875295820195908201906001016158a8565b509495945050505050565b8481528360208201526001600160a01b0383166040820152608060608201526000612de96080830184615894565b80151581146155dd57600080fd5b6000806040838503121561592757600080fd5b8235615932816156e2565b9150602083013561575181615906565b634e487b7160e01b600052604160045260246000fd5b6000806000806080858703121561596e57600080fd5b8435615979816156e2565b93506020850135615989816156e2565b925060408501359150606085013567ffffffffffffffff808211156159ad57600080fd5b818701915087601f8301126159c157600080fd5b8135818111156159d3576159d3615942565b604051601f8201601f19908116603f011681019083821181831017156159fb576159fb615942565b816040528281528a6020848701011115615a1457600080fd5b82602086016020830137600060208483010152809550505050505092959194509250565b600080600080600060a08688031215615a5057600080fd5b8535615a5b816156e2565b945060208601359350615a706040870161581b565b94979396509394606081013594506080013592915050565b60008060408385031215615a9b57600080fd5b50508035926020909101359150565b60ff8716815285602082015284604082015283606082015282608082015260c060a0820152600061409d60c0830184615894565b60008060408385031215615af157600080fd5b823591506020830135615751816156e2565b60008060008060808587031215615b1957600080fd5b8435615b24816156e2565b93506020850135615b34816156e2565b93969395505050506040820135916060013590565b600060208284031215615b5b57600080fd5b8151610c7481615906565b634e487b7160e01b600052603260045260246000fd5b634e487b7160e01b600052601160045260246000fd5b6000600019821415615ba657615ba6615b7c565b5060010190565b600082821015615bbf57615bbf615b7c565b500390565b600181811c90821680615bd857607f821691505b60208210811415615bf957634e487b7160e01b600052602260045260246000fd5b50919050565b6000816000190483118215151615615c1957615c19615b7c565b500290565b634e487b7160e01b600052601260045260246000fd5b600082615c4357615c43615c1e565b500490565b60008351615c5a81846020880161565e565b835190830190615c6e81836020880161565e565b01949350505050565b60008219821115615c8a57615c8a615b7c565b500190565b600082615c9e57615c9e615c1e565b500690565b600080831283600160ff1b01831281151615615cc157615cc1615b7c565b836001600160ff1b03018313811615615cdc57615cdc615b7c565b50500390565b60006001600160a01b03808716835280861660208401525083604083015260806060830152612de9608083018461568a565b600060208284031215615d2657600080fd5b8151610c748161562b565b6000600160ff1b82141561555357615553615b7c565b600060ff821660ff841680821015615d6157615d61615b7c565b90039392505050565b60008251615d7c81846020870161565e565b9190910192915050565b634e487b7160e01b600052603160045260246000fd5b60006001600160ff1b03600084136000841385830485118282161615615dc457615dc4615b7c565b600160ff1b6000871286820588128184161615615de357615de3615b7c565b60008712925087820587128484161615615dff57615dff615b7c565b87850587128184161615615e1557615e15615b7c565b505050929093029392505050565b600082615e3257615e32615c1e565b600160ff1b821460001984141615615e4c57615e4c615b7c565b50059056fe4552433732313a207472616e7366657220746f206e6f6e20455243373231526563656976657220696d706c656d656e7465729e2510b4d59b813edef0dae2e1b6c87ee280a0f5524ef39bc6fe83ba371c55c32bdc8c6d1bbe8471e8d4da02782043d3836700165c400eb80193f5ff5e83843aa2646970667358221220915adf7be66175af5e674c8718e8e4f361552e0f5a1cd5d782803000bb9e638a64736f6c63430008080033",
  "devdoc": {
    "kind": "dev",
    "methods": {
      "approve(address,uint256)": {
        "params": {
          "operator": "address to be approved",
          "tokenId": "token to approve"
        }
      },
      "balanceOf(address)": {
        "returns": {
          "_0": "quantity of tokens held"
        }
      },
      "getApproved(uint256)": {
        "params": {
          "tokenId": "token to query"
        },
        "returns": {
          "_0": "address approved to spend token"
        }
      },
      "isApprovedForAll(address,address)": {
        "params": {
          "account": "address to query for approval granted",
          "operator": "address to query for approval received"
        },
        "returns": {
          "_0": "whether operator is approved to spend tokens held by account"
        }
      },
      "ownerOf(uint256)": {
        "params": {
          "tokenId": "token to query"
        },
        "returns": {
          "_0": "token owner"
        }
      },
      "safeTransferFrom(address,address,uint256)": {
        "params": {
          "from": "sender of token",
          "to": "receiver of token",
          "tokenId": "token id"
        }
      },
      "safeTransferFrom(address,address,uint256,bytes)": {
        "params": {
          "data": "data payload",
          "from": "sender of token",
          "to": "receiver of token",
          "tokenId": "token id"
        }
      },
      "setApprovalForAll(address,bool)": {
        "params": {
          "operator": "address to be approved",
          "status": "approval status"
        }
      },
      "supportsInterface(bytes4)": {
        "params": {
          "interfaceId": "interface id"
        },
        "returns": {
          "_0": "bool whether interface is supported"
        }
      },
      "tokenByIndex(uint256)": {
        "params": {
          "index": "position in global token list to query"
        },
        "returns": {
          "_0": "id of retrieved token"
        }
      },
      "tokenOfOwnerByIndex(address,uint256)": {
        "params": {
          "index": "position in owner's token list to query",
          "owner": "token holder to query"
        },
        "returns": {
          "_0": "id of retrieved token"
        }
      },
      "totalSupply()": {
        "returns": {
          "_0": "total supply"
        }
      },
      "transferFrom(address,address,uint256)": {
        "params": {
          "from": "sender of token",
          "to": "receiver of token",
          "tokenId": "token id"
        }
      }
    },
    "version": 1
  },
  "userdoc": {
    "errors": {
      "PRBMathSD59x18__AbsInputTooSmall()": [
        {
          "notice": "Emitted when the input is MIN_SD59x18."
        }
      ],
      "PRBMathSD59x18__DivInputTooSmall()": [
        {
          "notice": "Emitted when one of the inputs is MIN_SD59x18."
        }
      ],
      "PRBMathSD59x18__DivOverflow(uint256)": [
        {
          "notice": "Emitted when one of the intermediary unsigned results overflows SD59x18."
        }
      ],
      "PRBMathSD59x18__MulInputTooSmall()": [
        {
          "notice": "Emitted when one of the inputs is MIN_SD59x18."
        }
      ],
      "PRBMathSD59x18__MulOverflow(uint256)": [
        {
          "notice": "Emitted when the intermediary absolute result overflows SD59x18."
        }
      ],
      "PRBMathSD59x18__PowuOverflow(uint256)": [
        {
          "notice": "Emitted when the intermediary absolute result overflows SD59x18."
        }
      ],
      "PRBMath__MulDivFixedPointOverflow(uint256)": [
        {
          "notice": "Emitted when the result overflows uint256."
        }
      ],
      "PRBMath__MulDivOverflow(uint256,uint256)": [
        {
          "notice": "Emitted when the result overflows uint256."
        }
      ]
    },
    "kind": "user",
    "methods": {
      "approve(address,uint256)": {
        "notice": "grant approval to given account to spend token"
      },
      "balanceOf(address)": {
        "notice": "query the balance of given address"
      },
      "getApproved(uint256)": {
        "notice": "get approval status for given token"
      },
      "isApprovedForAll(address,address)": {
        "notice": "query approval status of given operator with respect to given address"
      },
      "name()": {
        "notice": "inheritdoc IERC721Metadata"
      },
      "ownerOf(uint256)": {
        "notice": "query the owner of given token"
      },
      "safeTransferFrom(address,address,uint256)": {
        "notice": "transfer token between given addresses, checking for ERC721Receiver implementation if applicable"
      },
      "safeTransferFrom(address,address,uint256,bytes)": {
        "notice": "transfer token between given addresses, checking for ERC721Receiver implementation if applicable"
      },
      "setApprovalForAll(address,bool)": {
        "notice": "grant approval to or revoke approval from given account to spend all tokens held by sender"
      },
      "supportsInterface(bytes4)": {
        "notice": "query whether contract has registered support for given interface"
      },
      "symbol()": {
        "notice": "inheritdoc IERC721Metadata"
      },
      "tokenByIndex(uint256)": {
        "notice": "get token at given internal storage index"
      },
      "tokenOfOwnerByIndex(address,uint256)": {
        "notice": "get token of given owner at given internal storage index"
      },
      "tokenURI(uint256)": {
        "notice": "inheritdoc IERC721Metadata"
      },
      "totalSupply()": {
        "notice": "get total token supply"
      },
      "transferFrom(address,address,uint256)": {
        "notice": "transfer token between given addresses, without checking for ERC721Receiver implementation if applicable"
      }
    },
    "version": 1
  },
  "storageLayout": {
    "storage": [],
    "types": null
  }
}