{
  "address": "0xBaB02c76F50fB344C37D87EaCd2317D12c9b987F",
  "abi": [
    {
      "inputs": [
        {
          "internalType": "address",
          "name": "unDiamond",
          "type": "address"
        }
      ],
      "stateMutability": "nonpayable",
      "type": "constructor"
    },
    {
      "inputs": [],
      "name": "Ownable__NotOwner",
      "type": "error"
    },
    {
      "inputs": [],
      "name": "Ownable__NotTransitiveOwner",
      "type": "error"
    },
    {
      "anonymous": false,
      "inputs": [
        {
          "indexed": true,
          "internalType": "address",
          "name": "previousOwner",
          "type": "address"
        },
        {
          "indexed": true,
          "internalType": "address",
          "name": "newOwner",
          "type": "address"
        }
      ],
      "name": "OwnershipTransferred",
      "type": "event"
    },
    {
      "anonymous": false,
      "inputs": [
        {
          "indexed": false,
          "internalType": "address",
          "name": "deployment",
          "type": "address"
        }
      ],
      "name": "unCryptoProxyDeployed",
      "type": "event"
    },
    {
      "inputs": [],
      "name": "UNCRYPTO_DIAMOND",
      "outputs": [
        {
          "internalType": "address",
          "name": "",
          "type": "address"
        }
      ],
      "stateMutability": "view",
      "type": "function"
    },
    {
      "inputs": [
        {
          "internalType": "address",
          "name": "underlyingToken",
          "type": "address"
        },
        {
          "internalType": "address",
          "name": "untradingManager",
          "type": "address"
        },
        {
          "internalType": "uint256",
          "name": "managerCut",
          "type": "uint256"
        },
        {
          "internalType": "string",
          "name": "name",
          "type": "string"
        },
        {
          "internalType": "string",
          "name": "symbol",
          "type": "string"
        },
        {
          "internalType": "string",
          "name": "baseURI",
          "type": "string"
        }
      ],
      "name": "deployCryptoProxy",
      "outputs": [
        {
          "internalType": "address",
          "name": "deployment",
          "type": "address"
        }
      ],
      "stateMutability": "nonpayable",
      "type": "function"
    },
    {
      "inputs": [
        {
          "internalType": "address",
          "name": "underlyingToken",
          "type": "address"
        }
      ],
      "name": "getProxy",
      "outputs": [
        {
          "internalType": "address",
          "name": "proxy",
          "type": "address"
        }
      ],
      "stateMutability": "view",
      "type": "function"
    },
    {
      "inputs": [],
      "name": "getProxyList",
      "outputs": [
        {
          "internalType": "address[]",
          "name": "proxyList",
          "type": "address[]"
        }
      ],
      "stateMutability": "view",
      "type": "function"
    }
  ],
  "transactionHash": "0x13114ccb1b0bad84c70088641e725118245364b8655120c0fe6ce19ee542b091",
  "args": [
    "0x8b5B9bcc5afB6ea9435aD3f065d27d323fc59900"
  ],
  "numDeployments": 1,
  "solcInputHash": "9fe8d29b97eac31a832b643c42051194",
  "bytecode": "0x60a060405234801561001057600080fd5b5060405161106938038061106983398101604081905261002f91610044565b60601b6001600160601b031916608052610074565b60006020828403121561005657600080fd5b81516001600160a01b038116811461006d57600080fd5b9392505050565b60805160601c610fd16100986000396000818160af015261024b0152610fd16000f3fe60806040523480156200001157600080fd5b5060043610620000525760003560e01c806315cc5ed114620000575780635328bc1114620000795780638accc67314620000a9578063b7fba4d314620000d1575b600080fd5b620000616200011f565b60405162000070919062000378565b60405180910390f35b620000906200008a366004620004a8565b620001a5565b6040516001600160a01b03909116815260200162000070565b620000907f000000000000000000000000000000000000000000000000000000000000000081565b62000090620000e236600462000568565b6001600160a01b0390811660009081527fdfc565b06383d9a12c80b76817c625dfd77c3f41f177787071deb69135596a7260205260409020541690565b60607fdfc565b06383d9a12c80b76817c625dfd77c3f41f177787071deb69135596a726001018054806020026020016040519081016040528092919081815260200182805480156200019b57602002820191906000526020600020905b81546001600160a01b031681526001909101906020018083116200017c575b5050505050905090565b6000620001d97f8a22373512790c48b83a1fe2efdd2888d4a917bcdc24d0adf63e60f671680460546001600160a01b031690565b6001600160a01b0316336001600160a01b03161462000224576040517f2f7a8ee100000000000000000000000000000000000000000000000000000000815260040160405180910390fd5b60007fdfc565b06383d9a12c80b76817c625dfd77c3f41f177787071deb69135596a7290507f00000000000000000000000000000000000000000000000000000000000000008888888888886040516200027e906200036a565b620002909796959493929190620005dd565b604051809103906000f080158015620002ad573d6000803e3d6000fd5b506001600160a01b03808a166000908152602084905260409020805473ffffffffffffffffffffffffffffffffffffffff191691831691909117905591506001818101805491820181556000908152602090819020909101805473ffffffffffffffffffffffffffffffffffffffff19166001600160a01b0385169081179091556040519081527f9b1fa357f29c9499ed736bf6d634d83e763cfcd4f313ab6ca29f7850166171d8910160405180910390a1509695505050505050565b61094a806200065283390190565b6020808252825182820181905260009190848201906040850190845b81811015620003bb5783516001600160a01b03168352928401929184019160010162000394565b50909695505050505050565b80356001600160a01b0381168114620003df57600080fd5b919050565b7f4e487b7100000000000000000000000000000000000000000000000000000000600052604160045260246000fd5b600082601f8301126200042557600080fd5b813567ffffffffffffffff80821115620004435762000443620003e4565b604051601f8301601f19908116603f011681019082821181831017156200046e576200046e620003e4565b816040528381528660208588010111156200048857600080fd5b836020870160208301376000602085830101528094505050505092915050565b60008060008060008060c08789031215620004c257600080fd5b620004cd87620003c7565b9550620004dd60208801620003c7565b945060408701359350606087013567ffffffffffffffff808211156200050257600080fd5b620005108a838b0162000413565b945060808901359150808211156200052757600080fd5b620005358a838b0162000413565b935060a08901359150808211156200054c57600080fd5b506200055b89828a0162000413565b9150509295509295509295565b6000602082840312156200057b57600080fd5b6200058682620003c7565b9392505050565b6000815180845260005b81811015620005b55760208185018101518683018201520162000597565b81811115620005c8576000602083870101525b50601f01601f19169290920160200192915050565b60006001600160a01b03808a168352808916602084015280881660408401525085606083015260e060808301526200061960e08301866200058d565b82810360a08401526200062d81866200058d565b905082810360c08401526200064381856200058d565b9a995050505050505050505056fe60a060405234801561001057600080fd5b5060405161094a38038061094a83398101604081905261002f91610572565b670de0b6b3a764000084111561008b5760405162461bcd60e51b815260206004820152601760248201527f6d616e6167657243757420657863656564732031303025000000000000000000604482015260640160405180910390fd5b866001600160a01b03166080816001600160a01b031660601b81525050336100bb61032360201b6101711760201c565b60000160006101000a8154816001600160a01b0302191690836001600160a01b0316021790555060006100f661034760201b6101951760201c565b845190915061010b90829060208701906103fb565b50825161012190600183019060208601906103fb565b50815161013790600283019060208501906103fb565b50600161014c61036b60201b6101b91760201c565b6301ffc9a760e01b6000908152602091825260409020805460ff1916921515929092179091556001906101869061036b811b6101b917901c565b6380ac58cd60e01b6000908152602091825260409020805460ff1916921515929092179091556001906101c09061036b811b6101b917901c565b63ba64365760e01b6000908152602091825260408120805460ff1916931515939093179092556101f79061038f811b6101dd17901c565b80546001600160a01b0319166001600160a01b038a16178155905060006102276103b3602090811b61020117901c565b8651602080890191909120604080517fd87cd6ef79d4e2b95e15ce8abf732db51ec771f1ca2edccf22a46c729ac56472938101939093528201527fc89efdaa54c0f20c7adf612882df0950f5a951637e0307cdcb4c672f298b8bc660608201524660808201523060a08201527fc25ebea6dd97ec30f15ce845010d7e9fee0398194f29ee544b5062c07454459060c082015290915060e00160408051601f19818403018152919052805160209182012082556000906102ed906102256103d7821b17901c565b80546001600160a01b0319166001600160a01b039a909a1699909917895550505050600190940192909255506106719350505050565b7f8a22373512790c48b83a1fe2efdd2888d4a917bcdc24d0adf63e60f67168046090565b7f99574a7094154bb123ae6ae102096f0bf9679b85a5cd1e727aaa0ae5f132e6b190565b7ffc606c433378e3a7e0a6a531deac289b66caa1b4aa8554fd4ab2c6f1570f92d890565b7fb49c8c57f283d8c9573eb96dfc83676d44502092b7b768c974851c545d2d89ff90565b7f6f3b2823da9934e3b96d58a132e5174fa0cfcdf3f481cf96f364cdf70ae1154490565b7f0a1932f308d56cf212053f1aaa8899548ab6083c0b2a38fcc19b4420795eedf190565b82805461040790610636565b90600052602060002090601f016020900481019282610429576000855561046f565b82601f1061044257805160ff191683800117855561046f565b8280016001018555821561046f579182015b8281111561046f578251825591602001919060010190610454565b5061047b92915061047f565b5090565b5b8082111561047b5760008155600101610480565b80516001600160a01b03811681146104ab57600080fd5b919050565b634e487b7160e01b600052604160045260246000fd5b600082601f8301126104d757600080fd5b81516001600160401b03808211156104f1576104f16104b0565b604051601f8301601f19908116603f01168101908282118183101715610519576105196104b0565b8160405283815260209250868385880101111561053557600080fd5b600091505b83821015610557578582018301518183018401529082019061053a565b838211156105685760008385830101525b9695505050505050565b600080600080600080600060e0888a03121561058d57600080fd5b61059688610494565b96506105a460208901610494565b95506105b260408901610494565b606089015160808a015191965094506001600160401b03808211156105d657600080fd5b6105e28b838c016104c6565b945060a08a01519150808211156105f857600080fd5b6106048b838c016104c6565b935060c08a015191508082111561061a57600080fd5b506106278a828b016104c6565b91505092959891949750929550565b600181811c9082168061064a57607f821691505b6020821081141561066b57634e487b7160e01b600052602260045260246000fd5b50919050565b60805160601c6102bc61068e600039600060dd01526102bc6000f3fe60806040523661000b57005b6000610015610089565b905073ffffffffffffffffffffffffffffffffffffffff81163b610065576040517f87c9fc3400000000000000000000000000000000000000000000000000000000815260040160405180910390fd5b3660008037600080366000845af43d6000803e808015610084573d6000f35b3d6000fd5b6040517fcdffacc6000000000000000000000000000000000000000000000000000000008152600080357fffffffff00000000000000000000000000000000000000000000000000000000166004830152907f000000000000000000000000000000000000000000000000000000000000000073ffffffffffffffffffffffffffffffffffffffff169063cdffacc69060240160206040518083038186803b15801561013457600080fd5b505afa158015610148573d6000803e3d6000fd5b505050506040513d601f19601f8201168201806040525081019061016c9190610249565b905090565b7f8a22373512790c48b83a1fe2efdd2888d4a917bcdc24d0adf63e60f67168046090565b7f99574a7094154bb123ae6ae102096f0bf9679b85a5cd1e727aaa0ae5f132e6b190565b7ffc606c433378e3a7e0a6a531deac289b66caa1b4aa8554fd4ab2c6f1570f92d890565b7fb49c8c57f283d8c9573eb96dfc83676d44502092b7b768c974851c545d2d89ff90565b7f6f3b2823da9934e3b96d58a132e5174fa0cfcdf3f481cf96f364cdf70ae1154490565b7f0a1932f308d56cf212053f1aaa8899548ab6083c0b2a38fcc19b4420795eedf190565b60006020828403121561025b57600080fd5b815173ffffffffffffffffffffffffffffffffffffffff8116811461027f57600080fd5b939250505056fea26469706673582212209aee0fbae56bfae974e7102c383e9b6d0f3e59145fa35a4b49b9ffa254d3717064736f6c63430008080033a26469706673582212209750560c64fb81213bc88e6cc098eeb097dd848c0d5a5c717741e6d9e0807c1664736f6c63430008080033",
  "devdoc": {
    "kind": "dev",
    "methods": {},
    "version": 1
  },
  "userdoc": {
    "kind": "user",
    "methods": {},
    "version": 1
  },
  "storageLayout": {
    "storage": [],
    "types": null
  }
}