{
  "address": "0xeb071DEC45CFc721AEa20dc4646c696AeA21B3Ee",
  "abi": [
    {
      "inputs": [],
      "name": "AddressUtils__NotContract",
      "type": "error"
    },
    {
      "inputs": [],
      "name": "ERC165Base__InvalidInterfaceId",
      "type": "error"
    },
    {
      "inputs": [],
      "name": "ERC721Base__BalanceQueryZeroAddress",
      "type": "error"
    },
    {
      "inputs": [],
      "name": "ERC721Base__ERC721ReceiverNotImplemented",
      "type": "error"
    },
    {
      "inputs": [],
      "name": "ERC721Base__InvalidOwner",
      "type": "error"
    },
    {
      "inputs": [],
      "name": "ERC721Base__MintToZeroAddress",
      "type": "error"
    },
    {
      "inputs": [],
      "name": "ERC721Base__NonExistentToken",
      "type": "error"
    },
    {
      "inputs": [],
      "name": "ERC721Base__NotOwnerOrApproved",
      "type": "error"
    },
    {
      "inputs": [],
      "name": "ERC721Base__NotTokenOwner",
      "type": "error"
    },
    {
      "inputs": [],
      "name": "ERC721Base__SelfApproval",
      "type": "error"
    },
    {
      "inputs": [],
      "name": "ERC721Base__TokenAlreadyMinted",
      "type": "error"
    },
    {
      "inputs": [],
      "name": "ERC721Base__TransferToZeroAddress",
      "type": "error"
    },
    {
      "inputs": [],
      "name": "ERC721Metadata__NonExistentToken",
      "type": "error"
    },
    {
      "inputs": [],
      "name": "EnumerableMap__IndexOutOfBounds",
      "type": "error"
    },
    {
      "inputs": [],
      "name": "EnumerableMap__NonExistentKey",
      "type": "error"
    },
    {
      "inputs": [],
      "name": "EnumerableSet__IndexOutOfBounds",
      "type": "error"
    },
    {
      "inputs": [],
      "name": "PRBMathSD59x18__AbsInputTooSmall",
      "type": "error"
    },
    {
      "inputs": [],
      "name": "PRBMathSD59x18__MulInputTooSmall",
      "type": "error"
    },
    {
      "inputs": [
        {
          "internalType": "uint256",
          "name": "rAbs",
          "type": "uint256"
        }
      ],
      "name": "PRBMathSD59x18__MulOverflow",
      "type": "error"
    },
    {
      "inputs": [
        {
          "internalType": "uint256",
          "name": "rAbs",
          "type": "uint256"
        }
      ],
      "name": "PRBMathSD59x18__PowuOverflow",
      "type": "error"
    },
    {
      "inputs": [
        {
          "internalType": "uint256",
          "name": "prod1",
          "type": "uint256"
        }
      ],
      "name": "PRBMath__MulDivFixedPointOverflow",
      "type": "error"
    },
    {
      "inputs": [
        {
          "internalType": "uint256",
          "name": "prod1",
          "type": "uint256"
        },
        {
          "internalType": "uint256",
          "name": "denominator",
          "type": "uint256"
        }
      ],
      "name": "PRBMath__MulDivOverflow",
      "type": "error"
    },
    {
      "inputs": [],
      "name": "SolidStateERC721__PayableApproveNotSupported",
      "type": "error"
    },
    {
      "inputs": [],
      "name": "SolidStateERC721__PayableTransferNotSupported",
      "type": "error"
    },
    {
      "anonymous": false,
      "inputs": [
        {
          "indexed": true,
          "internalType": "address",
          "name": "owner",
          "type": "address"
        },
        {
          "indexed": true,
          "internalType": "address",
          "name": "operator",
          "type": "address"
        },
        {
          "indexed": true,
          "internalType": "uint256",
          "name": "tokenId",
          "type": "uint256"
        }
      ],
      "name": "Approval",
      "type": "event"
    },
    {
      "anonymous": false,
      "inputs": [
        {
          "indexed": true,
          "internalType": "address",
          "name": "owner",
          "type": "address"
        },
        {
          "indexed": true,
          "internalType": "address",
          "name": "operator",
          "type": "address"
        },
        {
          "indexed": false,
          "internalType": "bool",
          "name": "approved",
          "type": "bool"
        }
      ],
      "name": "ApprovalForAll",
      "type": "event"
    },
    {
      "anonymous": false,
      "inputs": [
        {
          "indexed": true,
          "internalType": "uint256",
          "name": "tokenId",
          "type": "uint256"
        },
        {
          "indexed": true,
          "internalType": "uint256",
          "name": "salePrice",
          "type": "uint256"
        },
        {
          "indexed": true,
          "internalType": "uint256",
          "name": "saleAmount",
          "type": "uint256"
        }
      ],
      "name": "Bought",
      "type": "event"
    },
    {
      "anonymous": false,
      "inputs": [
        {
          "indexed": true,
          "internalType": "address",
          "name": "account",
          "type": "address"
        },
        {
          "indexed": true,
          "internalType": "address",
          "name": "token",
          "type": "address"
        },
        {
          "indexed": true,
          "internalType": "uint256",
          "name": "amount",
          "type": "uint256"
        }
      ],
      "name": "ERC20RewardsClaimed",
      "type": "event"
    },
    {
      "anonymous": false,
      "inputs": [
        {
          "indexed": true,
          "internalType": "address",
          "name": "account",
          "type": "address"
        },
        {
          "indexed": true,
          "internalType": "uint256",
          "name": "amount",
          "type": "uint256"
        }
      ],
      "name": "FRClaimed",
      "type": "event"
    },
    {
      "anonymous": false,
      "inputs": [
        {
          "indexed": true,
          "internalType": "uint256",
          "name": "tokenId",
          "type": "uint256"
        },
        {
          "indexed": true,
          "internalType": "uint256",
          "name": "allocatedFR",
          "type": "uint256"
        }
      ],
      "name": "FRDistributed",
      "type": "event"
    },
    {
      "anonymous": false,
      "inputs": [
        {
          "indexed": true,
          "internalType": "uint256",
          "name": "tokenId",
          "type": "uint256"
        },
        {
          "indexed": true,
          "internalType": "uint256",
          "name": "salePrice",
          "type": "uint256"
        }
      ],
      "name": "Listed",
      "type": "event"
    },
    {
      "anonymous": false,
      "inputs": [
        {
          "indexed": true,
          "internalType": "address",
          "name": "account",
          "type": "address"
        },
        {
          "indexed": true,
          "internalType": "uint256",
          "name": "amount",
          "type": "uint256"
        }
      ],
      "name": "ORClaimed",
      "type": "event"
    },
    {
      "anonymous": false,
      "inputs": [
        {
          "indexed": true,
          "internalType": "uint256",
          "name": "tokenId",
          "type": "uint256"
        },
        {
          "indexed": true,
          "internalType": "uint256",
          "name": "allocatedOR",
          "type": "uint256"
        }
      ],
      "name": "ORDistributed",
      "type": "event"
    },
    {
      "anonymous": false,
      "inputs": [
        {
          "indexed": true,
          "internalType": "address",
          "name": "from",
          "type": "address"
        },
        {
          "indexed": true,
          "internalType": "address",
          "name": "to",
          "type": "address"
        },
        {
          "indexed": true,
          "internalType": "uint256",
          "name": "tokenId",
          "type": "uint256"
        }
      ],
      "name": "OTokenTransfer",
      "type": "event"
    },
    {
      "anonymous": false,
      "inputs": [
        {
          "indexed": true,
          "internalType": "uint256",
          "name": "tokenId",
          "type": "uint256"
        }
      ],
      "name": "OTokensDistributed",
      "type": "event"
    },
    {
      "anonymous": false,
      "inputs": [
        {
          "indexed": true,
          "internalType": "address",
          "name": "from",
          "type": "address"
        },
        {
          "indexed": true,
          "internalType": "address",
          "name": "to",
          "type": "address"
        },
        {
          "indexed": true,
          "internalType": "uint256",
          "name": "tokenId",
          "type": "uint256"
        }
      ],
      "name": "Transfer",
      "type": "event"
    },
    {
      "anonymous": false,
      "inputs": [
        {
          "indexed": true,
          "internalType": "uint256",
          "name": "tokenId",
          "type": "uint256"
        },
        {
          "indexed": true,
          "internalType": "uint256",
          "name": "amount",
          "type": "uint256"
        },
        {
          "indexed": true,
          "internalType": "int256",
          "name": "profit",
          "type": "int256"
        },
        {
          "indexed": false,
          "internalType": "uint256",
          "name": "newTokenId",
          "type": "uint256"
        }
      ],
      "name": "Transferred",
      "type": "event"
    },
    {
      "anonymous": false,
      "inputs": [
        {
          "indexed": true,
          "internalType": "uint256",
          "name": "tokenId",
          "type": "uint256"
        }
      ],
      "name": "Unlisted",
      "type": "event"
    },
    {
      "anonymous": false,
      "inputs": [
        {
          "indexed": true,
          "internalType": "uint256",
          "name": "tokenId",
          "type": "uint256"
        },
        {
          "indexed": true,
          "internalType": "uint256",
          "name": "amount",
          "type": "uint256"
        }
      ],
      "name": "Unwrapped",
      "type": "event"
    },
    {
      "anonymous": false,
      "inputs": [
        {
          "indexed": true,
          "internalType": "address",
          "name": "account",
          "type": "address"
        },
        {
          "indexed": true,
          "internalType": "uint256",
          "name": "tokenAmount",
          "type": "uint256"
        },
        {
          "indexed": false,
          "internalType": "address",
          "name": "paymentToken",
          "type": "address"
        }
      ],
      "name": "Wrapped",
      "type": "event"
    },
    {
      "inputs": [
        {
          "internalType": "address",
          "name": "operator",
          "type": "address"
        },
        {
          "internalType": "uint256",
          "name": "tokenId",
          "type": "uint256"
        }
      ],
      "name": "approve",
      "outputs": [],
      "stateMutability": "payable",
      "type": "function"
    },
    {
      "inputs": [
        {
          "internalType": "address",
          "name": "operator",
          "type": "address"
        },
        {
          "internalType": "uint256",
          "name": "tokenId",
          "type": "uint256"
        },
        {
          "internalType": "uint256",
          "name": "amount",
          "type": "uint256"
        }
      ],
      "name": "approve",
      "outputs": [],
      "stateMutability": "nonpayable",
      "type": "function"
    },
    {
      "inputs": [
        {
          "internalType": "address",
          "name": "account",
          "type": "address"
        }
      ],
      "name": "balanceOf",
      "outputs": [
        {
          "internalType": "uint256",
          "name": "",
          "type": "uint256"
        }
      ],
      "stateMutability": "view",
      "type": "function"
    },
    {
      "inputs": [
        {
          "internalType": "uint256",
          "name": "tokenId",
          "type": "uint256"
        },
        {
          "internalType": "address",
          "name": "account",
          "type": "address"
        }
      ],
      "name": "balanceOfOTokens",
      "outputs": [
        {
          "internalType": "uint256",
          "name": "",
          "type": "uint256"
        }
      ],
      "stateMutability": "view",
      "type": "function"
    },
    {
      "inputs": [
        {
          "internalType": "uint256",
          "name": "tokenId",
          "type": "uint256"
        },
        {
          "internalType": "uint256",
          "name": "amount",
          "type": "uint256"
        }
      ],
      "name": "buy",
      "outputs": [],
      "stateMutability": "payable",
      "type": "function"
    },
    {
      "inputs": [
        {
          "internalType": "address",
          "name": "account",
          "type": "address"
        }
      ],
      "name": "getAllottedFR",
      "outputs": [
        {
          "internalType": "uint256",
          "name": "",
          "type": "uint256"
        }
      ],
      "stateMutability": "view",
      "type": "function"
    },
    {
      "inputs": [
        {
          "internalType": "address",
          "name": "account",
          "type": "address"
        }
      ],
      "name": "getAllottedOR",
      "outputs": [
        {
          "internalType": "uint256",
          "name": "",
          "type": "uint256"
        }
      ],
      "stateMutability": "view",
      "type": "function"
    },
    {
      "inputs": [
        {
          "internalType": "address",
          "name": "account",
          "type": "address"
        },
        {
          "internalType": "address",
          "name": "token",
          "type": "address"
        }
      ],
      "name": "getAllottedTokens",
      "outputs": [
        {
          "internalType": "uint256",
          "name": "",
          "type": "uint256"
        }
      ],
      "stateMutability": "view",
      "type": "function"
    },
    {
      "inputs": [
        {
          "internalType": "uint256",
          "name": "tokenId",
          "type": "uint256"
        }
      ],
      "name": "getApproved",
      "outputs": [
        {
          "internalType": "address",
          "name": "",
          "type": "address"
        }
      ],
      "stateMutability": "view",
      "type": "function"
    },
    {
      "inputs": [
        {
          "internalType": "uint256",
          "name": "tokenId",
          "type": "uint256"
        }
      ],
      "name": "getApprovedAmount",
      "outputs": [
        {
          "internalType": "uint256",
          "name": "",
          "type": "uint256"
        }
      ],
      "stateMutability": "view",
      "type": "function"
    },
    {
      "inputs": [
        {
          "internalType": "uint256",
          "name": "tokenId",
          "type": "uint256"
        }
      ],
      "name": "getAssetInfo",
      "outputs": [
        {
          "internalType": "uint256",
          "name": "",
          "type": "uint256"
        }
      ],
      "stateMutability": "view",
      "type": "function"
    },
    {
      "inputs": [
        {
          "internalType": "uint256",
          "name": "tokenId",
          "type": "uint256"
        }
      ],
      "name": "getFRInfo",
      "outputs": [
        {
          "internalType": "uint8",
          "name": "numGenerations",
          "type": "uint8"
        },
        {
          "internalType": "uint256",
          "name": "percentOfProfit",
          "type": "uint256"
        },
        {
          "internalType": "uint256",
          "name": "successiveRatio",
          "type": "uint256"
        },
        {
          "internalType": "uint256",
          "name": "lastSoldPrice",
          "type": "uint256"
        },
        {
          "internalType": "uint256",
          "name": "ownerAmount",
          "type": "uint256"
        },
        {
          "internalType": "address[]",
          "name": "addressesInFR",
          "type": "address[]"
        }
      ],
      "stateMutability": "view",
      "type": "function"
    },
    {
      "inputs": [
        {
          "internalType": "uint256",
          "name": "tokenId",
          "type": "uint256"
        }
      ],
      "name": "getListInfo",
      "outputs": [
        {
          "internalType": "uint256",
          "name": "",
          "type": "uint256"
        },
        {
          "internalType": "uint256",
          "name": "",
          "type": "uint256"
        },
        {
          "internalType": "address",
          "name": "",
          "type": "address"
        },
        {
          "internalType": "bool",
          "name": "",
          "type": "bool"
        }
      ],
      "stateMutability": "view",
      "type": "function"
    },
    {
      "inputs": [],
      "name": "getManagerInfo",
      "outputs": [
        {
          "internalType": "address",
          "name": "untradingManager",
          "type": "address"
        },
        {
          "internalType": "uint256",
          "name": "managerCut",
          "type": "uint256"
        }
      ],
      "stateMutability": "view",
      "type": "function"
    },
    {
      "inputs": [
        {
          "internalType": "uint256",
          "name": "tokenId",
          "type": "uint256"
        }
      ],
      "name": "getORInfo",
      "outputs": [
        {
          "internalType": "uint256",
          "name": "ORatio",
          "type": "uint256"
        },
        {
          "internalType": "uint256",
          "name": "rewardRatio",
          "type": "uint256"
        },
        {
          "internalType": "address",
          "name": "paymentToken",
          "type": "address"
        },
        {
          "internalType": "address[]",
          "name": "holders",
          "type": "address[]"
        }
      ],
      "stateMutability": "view",
      "type": "function"
    },
    {
      "inputs": [],
      "name": "getUnderlyingTokenAddress",
      "outputs": [
        {
          "internalType": "address",
          "name": "",
          "type": "address"
        }
      ],
      "stateMutability": "view",
      "type": "function"
    },
    {
      "inputs": [
        {
          "internalType": "address",
          "name": "account",
          "type": "address"
        },
        {
          "internalType": "address",
          "name": "operator",
          "type": "address"
        }
      ],
      "name": "isApprovedForAll",
      "outputs": [
        {
          "internalType": "bool",
          "name": "",
          "type": "bool"
        }
      ],
      "stateMutability": "view",
      "type": "function"
    },
    {
      "inputs": [
        {
          "internalType": "uint256",
          "name": "tokenId",
          "type": "uint256"
        },
        {
          "internalType": "uint256",
          "name": "amount",
          "type": "uint256"
        },
        {
          "internalType": "uint256",
          "name": "salePrice",
          "type": "uint256"
        }
      ],
      "name": "list",
      "outputs": [],
      "stateMutability": "nonpayable",
      "type": "function"
    },
    {
      "inputs": [],
      "name": "name",
      "outputs": [
        {
          "internalType": "string",
          "name": "",
          "type": "string"
        }
      ],
      "stateMutability": "view",
      "type": "function"
    },
    {
      "inputs": [
        {
          "internalType": "uint256",
          "name": "tokenId",
          "type": "uint256"
        }
      ],
      "name": "ownerOf",
      "outputs": [
        {
          "internalType": "address",
          "name": "",
          "type": "address"
        }
      ],
      "stateMutability": "view",
      "type": "function"
    },
    {
      "inputs": [
        {
          "internalType": "address",
          "name": "account",
          "type": "address"
        },
        {
          "internalType": "address",
          "name": "token",
          "type": "address"
        }
      ],
      "name": "releaseAllottedTokens",
      "outputs": [],
      "stateMutability": "nonpayable",
      "type": "function"
    },
    {
      "inputs": [
        {
          "internalType": "address payable",
          "name": "account",
          "type": "address"
        }
      ],
      "name": "releaseFR",
      "outputs": [],
      "stateMutability": "nonpayable",
      "type": "function"
    },
    {
      "inputs": [
        {
          "internalType": "address payable",
          "name": "account",
          "type": "address"
        }
      ],
      "name": "releaseOR",
      "outputs": [],
      "stateMutability": "nonpayable",
      "type": "function"
    },
    {
      "inputs": [
        {
          "internalType": "address",
          "name": "from",
          "type": "address"
        },
        {
          "internalType": "address",
          "name": "to",
          "type": "address"
        },
        {
          "internalType": "uint256",
          "name": "tokenId",
          "type": "uint256"
        }
      ],
      "name": "safeTransferFrom",
      "outputs": [],
      "stateMutability": "payable",
      "type": "function"
    },
    {
      "inputs": [
        {
          "internalType": "address",
          "name": "from",
          "type": "address"
        },
        {
          "internalType": "address",
          "name": "to",
          "type": "address"
        },
        {
          "internalType": "uint256",
          "name": "tokenId",
          "type": "uint256"
        },
        {
          "internalType": "bytes",
          "name": "data",
          "type": "bytes"
        }
      ],
      "name": "safeTransferFrom",
      "outputs": [],
      "stateMutability": "payable",
      "type": "function"
    },
    {
      "inputs": [
        {
          "internalType": "address",
          "name": "operator",
          "type": "address"
        },
        {
          "internalType": "bool",
          "name": "status",
          "type": "bool"
        }
      ],
      "name": "setApprovalForAll",
      "outputs": [],
      "stateMutability": "nonpayable",
      "type": "function"
    },
    {
      "inputs": [
        {
          "internalType": "uint256",
          "name": "newManagerCut",
          "type": "uint256"
        }
      ],
      "name": "setManagerCut",
      "outputs": [],
      "stateMutability": "nonpayable",
      "type": "function"
    },
    {
      "inputs": [
        {
          "internalType": "bytes4",
          "name": "interfaceId",
          "type": "bytes4"
        }
      ],
      "name": "supportsInterface",
      "outputs": [
        {
          "internalType": "bool",
          "name": "",
          "type": "bool"
        }
      ],
      "stateMutability": "view",
      "type": "function"
    },
    {
      "inputs": [],
      "name": "symbol",
      "outputs": [
        {
          "internalType": "string",
          "name": "",
          "type": "string"
        }
      ],
      "stateMutability": "view",
      "type": "function"
    },
    {
      "inputs": [
        {
          "internalType": "uint256",
          "name": "index",
          "type": "uint256"
        }
      ],
      "name": "tokenByIndex",
      "outputs": [
        {
          "internalType": "uint256",
          "name": "",
          "type": "uint256"
        }
      ],
      "stateMutability": "view",
      "type": "function"
    },
    {
      "inputs": [
        {
          "internalType": "address",
          "name": "owner",
          "type": "address"
        },
        {
          "internalType": "uint256",
          "name": "index",
          "type": "uint256"
        }
      ],
      "name": "tokenOfOwnerByIndex",
      "outputs": [
        {
          "internalType": "uint256",
          "name": "",
          "type": "uint256"
        }
      ],
      "stateMutability": "view",
      "type": "function"
    },
    {
      "inputs": [
        {
          "internalType": "uint256",
          "name": "tokenId",
          "type": "uint256"
        }
      ],
      "name": "tokenURI",
      "outputs": [
        {
          "internalType": "string",
          "name": "",
          "type": "string"
        }
      ],
      "stateMutability": "view",
      "type": "function"
    },
    {
      "inputs": [],
      "name": "totalSupply",
      "outputs": [
        {
          "internalType": "uint256",
          "name": "",
          "type": "uint256"
        }
      ],
      "stateMutability": "view",
      "type": "function"
    },
    {
      "inputs": [
        {
          "internalType": "address",
          "name": "from",
          "type": "address"
        },
        {
          "internalType": "address",
          "name": "to",
          "type": "address"
        },
        {
          "internalType": "uint256",
          "name": "tokenId",
          "type": "uint256"
        }
      ],
      "name": "transferFrom",
      "outputs": [],
      "stateMutability": "payable",
      "type": "function"
    },
    {
      "inputs": [
        {
          "internalType": "address",
          "name": "from",
          "type": "address"
        },
        {
          "internalType": "address",
          "name": "to",
          "type": "address"
        },
        {
          "internalType": "uint256",
          "name": "tokenId",
          "type": "uint256"
        },
        {
          "internalType": "uint256",
          "name": "amount",
          "type": "uint256"
        }
      ],
      "name": "transferFrom",
      "outputs": [],
      "stateMutability": "nonpayable",
      "type": "function"
    },
    {
      "inputs": [
        {
          "internalType": "address",
          "name": "to",
          "type": "address"
        },
        {
          "internalType": "uint256",
          "name": "tokenId",
          "type": "uint256"
        },
        {
          "internalType": "uint256",
          "name": "amount",
          "type": "uint256"
        }
      ],
      "name": "transferOTokens",
      "outputs": [],
      "stateMutability": "nonpayable",
      "type": "function"
    },
    {
      "inputs": [
        {
          "internalType": "uint256",
          "name": "tokenId",
          "type": "uint256"
        }
      ],
      "name": "unlist",
      "outputs": [],
      "stateMutability": "nonpayable",
      "type": "function"
    },
    {
      "inputs": [
        {
          "internalType": "address",
          "name": "to",
          "type": "address"
        },
        {
          "internalType": "uint256",
          "name": "tokenId",
          "type": "uint256"
        },
        {
          "internalType": "uint8",
          "name": "sigV",
          "type": "uint8"
        },
        {
          "internalType": "bytes32",
          "name": "sigR",
          "type": "bytes32"
        },
        {
          "internalType": "bytes32",
          "name": "sigS",
          "type": "bytes32"
        }
      ],
      "name": "unwrap",
      "outputs": [],
      "stateMutability": "nonpayable",
      "type": "function"
    },
    {
      "inputs": [
        {
          "internalType": "address",
          "name": "to",
          "type": "address"
        },
        {
          "internalType": "uint256",
          "name": "tokenAmount",
          "type": "uint256"
        },
        {
          "internalType": "address",
          "name": "paymentToken",
          "type": "address"
        },
        {
          "internalType": "uint8",
          "name": "numGenerations",
          "type": "uint8"
        },
        {
          "internalType": "uint256",
          "name": "rewardRatio",
          "type": "uint256"
        },
        {
          "internalType": "uint256",
          "name": "ORatio",
          "type": "uint256"
        }
      ],
      "name": "wrap",
      "outputs": [
        {
          "internalType": "uint256",
          "name": "",
          "type": "uint256"
        }
      ],
      "stateMutability": "nonpayable",
      "type": "function"
    }
  ],
  "transactionHash": "0xe6fe45629dde7c78598f0b6a4b6b9d78f73c549eddd9cb5c530a1b9fb2de76a9",
  "args": [],
  "numDeployments": 1,
  "solcInputHash": "3eccd09c1c26f0b6dc37a26757e8cea0",
  "bytecode": "0x608060405234801561001057600080fd5b50615d2380620000216000396000f3fe6080604052600436106102a05760003560e01c8063644026341161016e578063cd19f95f116100cb578063e985e9c51161007f578063efc7377a11610064578063efc7377a146108e5578063f637d95014610985578063fe99049a146109d157600080fd5b8063e985e9c514610848578063e9d805181461086857600080fd5b8063e112ce77116100b0578063e112ce77146107aa578063e428ce43146107f6578063e85280f21461082857600080fd5b8063cd19f95f14610716578063d6febde81461079757600080fd5b8063b598590511610122578063b9cc28e811610107578063b9cc28e8146106b6578063bf5a4dd3146106d6578063c87b56dd146106f657600080fd5b8063b59859051461064e578063b88d4fde146106a357600080fd5b806370a082311161015357806370a08231146105f957806395d89b4114610619578063a22cb4651461062e57600080fd5b806364402634146105a95780636be3da26146105c957600080fd5b806332dea1951161021c5780634f6ccce7116101d05780635da6916a116101b55780635da6916a14610549578063603f3fcf146105695780636352211e1461058957600080fd5b80634f6ccce71461050957806354193d331461052957600080fd5b8063426a849311610201578063426a84931461049957806342842e0e146104b9578063440f5fd2146104cc57600080fd5b806332dea1951461042457806338e0e89b1461044457600080fd5b80631667a9f71161027357806319aeb4901161025857806319aeb490146103d157806323b872dd146103f15780632f745c591461040457600080fd5b80631667a9f71461034957806318160ddd146103bc57600080fd5b806301ffc9a7146102a557806306fdde03146102da578063081812fc146102fc578063095ea7b314610334575b600080fd5b3480156102b157600080fd5b506102c56102c036600461546b565b6109f1565b60405190151581526020015b60405180910390f35b3480156102e657600080fd5b506102ef610a34565b6040516102d191906154e0565b34801561030857600080fd5b5061031c6103173660046154f3565b610a43565b6040516001600160a01b0390911681526020016102d1565b610347610342366004615521565b610a4e565b005b34801561035557600080fd5b506103ae61036436600461554d565b6001600160a01b0391821660009081527f2bdc8c6d1bbe8471e8d4da02782043d3836700165c400eb80193f5ff5e83843d6020908152604080832093909416825291909152205490565b6040519081526020016102d1565b3480156103c857600080fd5b506103ae610a5c565b3480156103dd57600080fd5b506103476103ec366004615586565b610a66565b6103476103ff3660046155b2565b610c39565b34801561041057600080fd5b506103ae61041f366004615521565b610c49565b34801561043057600080fd5b5061034761043f3660046155f3565b610c5c565b34801561045057600080fd5b506103ae61045f3660046155f3565b6001600160a01b031660009081527f2bdc8c6d1bbe8471e8d4da02782043d3836700165c400eb80193f5ff5e83843c602052604090205490565b3480156104a557600080fd5b506103476104b4366004615610565b610de2565b6103476104c73660046155b2565b610eb2565b3480156104d857600080fd5b507fb49c8c57f283d8c9573eb96dfc83676d44502092b7b768c974851c545d2d89ff546001600160a01b031661031c565b34801561051557600080fd5b506103ae6105243660046154f3565b610ebd565b34801561053557600080fd5b506103ae61054436600461565b565b610ec8565b34801561055557600080fd5b506103476105643660046154f3565b610fe8565b34801561057557600080fd5b5061034761058436600461554d565b611068565b34801561059557600080fd5b5061031c6105a43660046154f3565b6111f8565b3480156105b557600080fd5b506103476105c43660046155f3565b611203565b3480156105d557600080fd5b506105e96105e43660046154f3565b611389565b6040516102d19493929190615702565b34801561060557600080fd5b506103ae6106143660046155f3565b61145e565b34801561062557600080fd5b506102ef611469565b34801561063a57600080fd5b5061034761064936600461573e565b611473565b34801561065a57600080fd5b506103ae6106693660046155f3565b6001600160a01b031660009081527f9e2510b4d59b813edef0dae2e1b6c87ee280a0f5524ef39bc6fe83ba371c55cf602052604090205490565b6103476106b1366004615782565b61147d565b3480156106c257600080fd5b506103476106d1366004615862565b61148f565b3480156106e257600080fd5b506103476106f13660046154f3565b6118ee565b34801561070257600080fd5b506102ef6107113660046154f3565b6119fc565b34801561072257600080fd5b506107787f0a1932f308d56cf212053f1aaa8899548ab6083c0b2a38fcc19b4420795eedf1547f0a1932f308d56cf212053f1aaa8899548ab6083c0b2a38fcc19b4420795eedf2546001600160a01b0390911691565b604080516001600160a01b0390931683526020830191909152016102d1565b6103476107a53660046158b2565b611a07565b3480156107b657600080fd5b506103ae6107c53660046154f3565b60009081527f9e2510b4d59b813edef0dae2e1b6c87ee280a0f5524ef39bc6fe83ba371c55ce602052604090205490565b34801561080257600080fd5b506108166108113660046154f3565b611b6d565b6040516102d1969594939291906158d4565b34801561083457600080fd5b50610347610843366004615610565b611c2e565b34801561085457600080fd5b506102c561086336600461554d565b611f45565b34801561087457600080fd5b506103ae610883366004615908565b60009182527f2bdc8c6d1bbe8471e8d4da02782043d3836700165c400eb80193f5ff5e83843b60209081526040808420548452600080516020615cce83398151915282528084206001600160a01b039390931684526004909201905290205490565b3480156108f157600080fd5b506109546109003660046154f3565b60009081527f9e2510b4d59b813edef0dae2e1b6c87ee280a0f5524ef39bc6fe83ba371c55cc602052604090208054600182015460029092015490926001600160a01b03821691600160a01b900460ff1690565b6040516102d1949392919093845260208401929092526001600160a01b031660408301521515606082015260800190565b34801561099157600080fd5b506103ae6109a03660046154f3565b60009081527f9e2510b4d59b813edef0dae2e1b6c87ee280a0f5524ef39bc6fe83ba371c55cd602052604090205490565b3480156109dd57600080fd5b506103476109ec36600461592d565b611f94565b6001600160e01b0319811660009081527ffc606c433378e3a7e0a6a531deac289b66caa1b4aa8554fd4ab2c6f1570f92d8602052604081205460ff165b92915050565b6060610a3e611ff7565b905090565b6000610a2e826120a8565b610a58828261210b565b5050565b6000610a3e612171565b610a70338461219c565b610ae75760405162461bcd60e51b815260206004820152602e60248201527f455243353137333a206c6973742063616c6c6572206973206e6f74206f776e6560448201527f72206e6f7220617070726f76656400000000000000000000000000000000000060648201526084015b60405180910390fd5b60008381527f9e2510b4d59b813edef0dae2e1b6c87ee280a0f5524ef39bc6fe83ba371c55cd6020526040902054600080516020615cae83398151915290831115610b745760405162461bcd60e51b815260206004820152601360248201527f616d6f756e7420697320746f6f206c61726765000000000000000000000000006044820152606401610ade565b6040518060800160405280838152602001848152602001610b923390565b6001600160a01b039081168252600160209283018190526000888152600986018452604080822086518155948601519285019290925584820151600290940180546060909601511515600160a01b0274ffffffffffffffffffffffffffffffffffffffffff1990961694909316939093179390931790559051839186917f1ea45e30b31292f9d7c5d37d275b2feca555f13f47dce0fdea2f47e8852ecd789190a350505050565b610c448383836121ef565b505050565b6000610c55838361222d565b9392505050565b6001600160a01b03811660009081527f9e2510b4d59b813edef0dae2e1b6c87ee280a0f5524ef39bc6fe83ba371c55cf6020526040902054600080516020615cae83398151915290610cf05760405162461bcd60e51b815260206004820152601160248201527f4e6f204652205061796d656e74206475650000000000000000000000000000006044820152606401610ade565b6001600160a01b0382166000818152600c83016020526040808220805490839055905190929083908381818185875af1925050503d8060008114610d50576040519150601f19603f3d011682016040523d82523d6000602084013e610d55565b606091505b5050905080610da65760405162461bcd60e51b815260206004820152601460248201527f4661696c656420746f2072656c656173652046520000000000000000000000006044820152606401610ade565b60405182906001600160a01b038616907f5a9202ceea6770814401fd72940be33fb25a4b30d55ca69183766ad7feb3e5ef90600090a350505050565b60008281527f9e2510b4d59b813edef0dae2e1b6c87ee280a0f5524ef39bc6fe83ba371c55cd6020526040902054600080516020615cae83398151915290821115610e945760405162461bcd60e51b8152602060048201526024808201527f417070726f76616c20616d6f756e74206578636565647320617373657420616d60448201527f6f756e74000000000000000000000000000000000000000000000000000000006064820152608401610ade565b610e9e848461226e565b6000928352600b0160205260409091205550565b610c448383836123ae565b6000610a2e826123c9565b600080610ed98888888888886123fc565b905060007fb49c8c57f283d8c9573eb96dfc83676d44502092b7b768c974851c545d2d89ff80549091506001600160a01b03166323b872dd336040516001600160e01b031960e084901b1681526001600160a01b039091166004820152306024820152604481018b9052606401602060405180830381600087803b158015610f6057600080fd5b505af1158015610f74573d6000803e3d6000fd5b505050506040513d601f19601f82011682018060405250810190610f989190615973565b506040516001600160a01b0388811682528991908b16907f1dcb5a508170be4d49f81a2e679aea5a1a064f5e7c34d73cd8bc670305d74b169060200160405180910390a350979650505050505050565b7f0a1932f308d56cf212053f1aaa8899548ab6083c0b2a38fcc19b4420795eedf180546001600160a01b031633146110625760405162461bcd60e51b815260206004820152601460248201527f43616c6c6572206e6f74207065726d69747465640000000000000000000000006044820152606401610ade565b60010155565b6001600160a01b0382811660009081527f2bdc8c6d1bbe8471e8d4da02782043d3836700165c400eb80193f5ff5e83843d6020908152604080832093851683529290522054600080516020615cce833981519152906111095760405162461bcd60e51b815260206004820152600e60248201527f4e6f205061796d656e74206475650000000000000000000000000000000000006044820152606401610ade565b6001600160a01b03838116600081815260038401602090815260408083209487168084529490915280822080549290555163a9059cbb60e01b8152600481019290925260248201819052919063a9059cbb90604401602060405180830381600087803b15801561117857600080fd5b505af115801561118c573d6000803e3d6000fd5b505050506040513d601f19601f820116820180604052508101906111b09190615973565b5080836001600160a01b0316856001600160a01b03167f20a17e8069eb1d67676a98bd16777f25b9c270125a6eba1e452cac5eb602eade60405160405180910390a450505050565b6000610a2e82612689565b6001600160a01b03811660009081527f2bdc8c6d1bbe8471e8d4da02782043d3836700165c400eb80193f5ff5e83843c6020526040902054600080516020615cce833981519152906112975760405162461bcd60e51b815260206004820152601160248201527f4e6f204f52205061796d656e74206475650000000000000000000000000000006044820152606401610ade565b6001600160a01b0382166000818152600283016020526040808220805490839055905190929083908381818185875af1925050503d80600081146112f7576040519150601f19603f3d011682016040523d82523d6000602084013e6112fc565b606091505b505090508061134d5760405162461bcd60e51b815260206004820152601460248201527f4661696c656420746f2072656c65617365204f520000000000000000000000006044820152606401610ade565b60405182906001600160a01b038616907f3feca93bd3b961b230c096b1ef22dba609260c0c044ff23600c1c76075b50a4690600090a350505050565b60008181527f2bdc8c6d1bbe8471e8d4da02782043d3836700165c400eb80193f5ff5e83843b60209081526040808320548352600080516020615cce8339815191528083528184208054600182015460028301546003840180548751818a0281018a0190985280885289988998606098979695946001600160a01b03169392909183919083018282801561144657602002820191906000526020600020905b81546001600160a01b03168152600190910190602001808311611428575b50505050509050955095509550955050509193509193565b6000610a2e826126f8565b6060610a3e61277a565b610a5882826127ab565b61148984848484612860565b50505050565b600080516020615cae8339815191527fb49c8c57f283d8c9573eb96dfc83676d44502092b7b768c974851c545d2d89ff6114c9338761219c565b6115155760405162461bcd60e51b815260206004820152601c60248201527f43616c6c6572206973206e6f74206f776e6572206f6620746f6b656e000000006044820152606401610ade565b600086815260088301602052604090206004015460011461180b57604080517f483665e9e07e6be4695ecf90c93d681970aae53296f2918718e155b6db14f3456020808301919091526001600160a01b038a168284015260608083018a9052835180840390910181526080830190935282519201919091207f6f3b2823da9934e3b96d58a132e5174fa0cfcdf3f481cf96f364cdf70ae1154480547f190100000000000000000000000000000000000000000000000000000000000060a085015260a284015260c283018290529160009060e20160408051601f198184030181528282528051602091820120600080855291840180845281905260ff8c1692840192909252606083018a9052608083018990529092509060019060a0016020604051602081039080840390855afa158015611654573d6000803e3d6000fd5b50505060206040510351905060006116897f0a1932f308d56cf212053f1aaa8899548ab6083c0b2a38fcc19b4420795eedf190565b60008c81527f2bdc8c6d1bbe8471e8d4da02782043d3836700165c400eb80193f5ff5e83843b6020908152604080832054808452600080516020615cce8339815191529283905290832093945090929091805b6003830154811015611788576001600160a01b038216600090815260048401602081905260408220546003860180549193918590811061171e5761171e615990565b60009182526020808320909101546001600160a01b0316835282019290925260400190205411156117765782600301818154811061175e5761175e615990565b6000918252602090912001546001600160a01b031691505b80611780816159bc565b9150506116dc565b5084546001600160a01b03878116911614806117b55750806001600160a01b0316866001600160a01b0316145b6118015760405162461bcd60e51b815260206004820152601a60248201527f496e76616c6964207369676e61747572652070726f76696465640000000000006044820152606401610ade565b5050505050505050505b80546000878152600a840160205260409020546001600160a01b03909116906118338861289f565b60405163a9059cbb60e01b81526001600160a01b038a811660048301526024820183905283169063a9059cbb90604401602060405180830381600087803b15801561187d57600080fd5b505af1158015611891573d6000803e3d6000fd5b505050506040513d601f19601f820116820180604052508101906118b59190615973565b50604051819089907f0d07f15ec2ad2ed280969ff5b2d73e2625ccd131d5bf99729fab49d7dc0217e690600090a3505050505050505050565b6118f8338261219c565b61196a5760405162461bcd60e51b815260206004820152603060248201527f455243353137333a20756e6c6973742063616c6c6572206973206e6f74206f7760448201527f6e6572206e6f7220617070726f766564000000000000000000000000000000006064820152608401610ade565b60008181527f9e2510b4d59b813edef0dae2e1b6c87ee280a0f5524ef39bc6fe83ba371c55cc602052604080822082815560018101839055600201805474ffffffffffffffffffffffffffffffffffffffffff1916905551600080516020615cae8339815191529183917f6318005f6dc5a71d3e4ad5b4d1fe455ef3402d62b64573777af55bb6bfe3daab9190a25050565b6060610a2e826128d8565b60008281527f2bdc8c6d1bbe8471e8d4da02782043d3836700165c400eb80193f5ff5e83843b60209081526040808320548352600080516020615cce8339815191529182905290912060028101546001600160a01b0316611a7157611a6c8484612ae6565b611489565b60008481527f9e2510b4d59b813edef0dae2e1b6c87ee280a0f5524ef39bc6fe83ba371c55cc6020526040812054600080516020615cae8339815191529190611abb908690612af2565b60028401549091506001600160a01b03166323b872dd336040516001600160e01b031960e084901b1681526001600160a01b03909116600482015230602482015260448101849052606401602060405180830381600087803b158015611b2057600080fd5b505af1158015611b34573d6000803e3d6000fd5b505050506040513d601f19601f82011682018060405250810190611b589190615973565b50611b6586866001612afe565b505050505050565b600080808080606081600080516020615cae8339815191526000898152600882016020908152604091829020805460018201546002830154600384015460048501546005909501805488518189028101890190995280895298995060ff9094169792969195909493928391830182828015611c1157602002820191906000526020600020905b81546001600160a01b03168152600190910190602001808311611bf3575b505050505090509650965096509650965096505091939550919395565b600080516020615cce8339815191526001600160a01b038416611c935760405162461bcd60e51b815260206004820152601c60248201527f7472616e7366657220746f20746865207a65726f2061646472657373000000006044820152606401610ade565b6001600160a01b038416331415611cec5760405162461bcd60e51b815260206004820152601060248201527f7472616e7366657220746f2073656c66000000000000000000000000000000006044820152606401610ade565b60008211611d3c5760405162461bcd60e51b815260206004820152601460248201527f7472616e7366657220616d6f756e7420697320300000000000000000000000006044820152606401610ade565b60008381526001820160209081526040808320548352838252808320338452600481019092529091205483811015611db65760405162461bcd60e51b815260206004820152601f60248201527f7472616e7366657220616d6f756e7420657863656564732062616c616e6365006044820152606401610ade565b33600090815260048301602052604080822086840390556001600160a01b03881682529020805485019055611deb84826159d7565b611ee05760005b6003830154811015611e9757336001600160a01b0316836003018281548110611e1d57611e1d615990565b6000918252602090912001546001600160a01b03161415611e855786836003018281548110611e4e57611e4e615990565b9060005260206000200160006101000a8154816001600160a01b0302191690836001600160a01b0316021790555050505050505050565b80611e8f816159bc565b915050611df2565b5060405162461bcd60e51b815260206004820152600960248201527f4e6f7420466f756e6400000000000000000000000000000000000000000000006044820152606401610ade565b6003820180546001810182556000918252602082200180546001600160a01b0319166001600160a01b038916908117909155604051879233917fcabb64bf74c3918e2dead3a14bbffbb72db126018e7ec25b6477447c50022fac9190a4505050505050565b6001600160a01b0380831660009081527f3c7bf052874fa81625121783266a03507bd2cd48b16e571c01a04e8dd3fb07aa6020908152604080832093851683529290529081205460ff16610c55565b611f9f338383612cd3565b611feb5760405162461bcd60e51b815260206004820181905260248201527f63616c6c6572206973206e6f74206f776e6572206e6f7220617070726f7665646044820152606401610ade565b61148984848484612dc4565b60607f99574a7094154bb123ae6ae102096f0bf9679b85a5cd1e727aaa0ae5f132e6b18054612025906159ee565b80601f0160208091040260200160405190810160405280929190818152602001828054612051906159ee565b801561209e5780601f106120735761010080835404028352916020019161209e565b820191906000526020600020905b81548152906001019060200180831161208157829003601f168201915b5050505050905090565b60006120b382612dd2565b6120d05760405163c1b843ef60e01b815260040160405180910390fd5b5060009081527f3c7bf052874fa81625121783266a03507bd2cd48b16e571c01a04e8dd3fb07a960205260409020546001600160a01b031690565b612115828261226e565b60009081527f9e2510b4d59b813edef0dae2e1b6c87ee280a0f5524ef39bc6fe83ba371c55cd60209081526040808320547f9e2510b4d59b813edef0dae2e1b6c87ee280a0f5524ef39bc6fe83ba371c55ce9092529091205550565b6000610a3e7f3c7bf052874fa81625121783266a03507bd2cd48b16e571c01a04e8dd3fb07a6612dfe565b60008181527f9e2510b4d59b813edef0dae2e1b6c87ee280a0f5524ef39bc6fe83ba371c55cd6020526040812054600080516020615cae833981519152906121e79085908590612cd3565b949350505050565b6121fb83838334612e08565b612205338261219c565b61222257604051632f5de44f60e01b815260040160405180910390fd5b610c44838383612e40565b6001600160a01b03821660009081527f3c7bf052874fa81625121783266a03507bd2cd48b16e571c01a04e8dd3fb07a860205260408120610c559083612e8d565b612279828234612e99565b600061228482612689565b9050806001600160a01b0316836001600160a01b031614156122b95760405163424a22cb60e01b815260040160405180910390fd5b336001600160a01b0382161480159061231557506001600160a01b03811660009081527f3c7bf052874fa81625121783266a03507bd2cd48b16e571c01a04e8dd3fb07aa6020908152604080832033845290915290205460ff16155b1561233357604051632f5de44f60e01b815260040160405180910390fd5b60008281527f3c7bf052874fa81625121783266a03507bd2cd48b16e571c01a04e8dd3fb07a9602052604080822080546001600160a01b0319166001600160a01b0387811691821790925591518593918516917f8c5be1e5ebec7d5bd14f71427d1e84f3dd0314c0f7b2291e5b200ac8c7c3b92591a4505050565b610c4483838360405180602001604052806000815250612860565b60006123f57f3c7bf052874fa81625121783266a03507bd2cd48b16e571c01a04e8dd3fb07a683612ed1565b5092915050565b600060058460ff1610158015612416575060148460ff1611155b6124885760405162461bcd60e51b815260206004820152602760248201527f6e756d47656e65726174696f6e73206d757374206265206265747765656e203560448201527f20616e64203230000000000000000000000000000000000000000000000000006064820152608401610ade565b66b1a2bc2ec5000083101580156124a757506706f05b59d3b200008311155b6125195760405162461bcd60e51b815260206004820152602660248201527f726577617264526174696f206d757374206265206265747765656e203525206160448201527f6e642035302500000000000000000000000000000000000000000000000000006064820152608401610ade565b66b1a2bc2ec50000821015801561253857506706f05b59d3b200008211155b6125aa5760405162461bcd60e51b815260206004820152602160248201527f4f526174696f206d757374206265206265747765656e20352520616e6420353060448201527f25000000000000000000000000000000000000000000000000000000000000006064820152608401610ade565b600060646125f46716744a6d6e9500006125cf60ff8916670de0b6b3a7640000615a29565b6125d991906159d7565b6125ee60ff8916670de0b6b3a7640000615a29565b90612eed565b6125fe9190615a5e565b612609906064615a29565b9050600061262961262285670de0b6b3a76400006159d7565b8690612af2565b90506126358585612af2565b935061263f612f02565b7f0bec8ab077af1e12783ac8c970bca6dada042613c1ff87b4d0953dea6b0115fc5461266e8a8287898c612f3c565b61267c8a828b8a8688613082565b9998505050505050505050565b6000806126b67f3c7bf052874fa81625121783266a03507bd2cd48b16e571c01a04e8dd3fb07a6846130bf565b90506001600160a01b038116610a2e576040517f7e1a7d8b00000000000000000000000000000000000000000000000000000000815260040160405180910390fd5b60006001600160a01b03821661273a576040517f810ff97000000000000000000000000000000000000000000000000000000000815260040160405180910390fd5b6001600160a01b03821660009081527f3c7bf052874fa81625121783266a03507bd2cd48b16e571c01a04e8dd3fb07a860205260409020610a2e90612dfe565b60607f99574a7094154bb123ae6ae102096f0bf9679b85a5cd1e727aaa0ae5f132e6b16001018054612025906159ee565b6001600160a01b0382163314156127d55760405163424a22cb60e01b815260040160405180910390fd5b3360008181527f3c7bf052874fa81625121783266a03507bd2cd48b16e571c01a04e8dd3fb07aa602090815260408083206001600160a01b03871680855290835292819020805460ff191686151590811790915590519081529192917f17307eab39ab6107e8899845ad3d59bd9653f200f220920489ca2b5937696c31910160405180910390a35050565b61286c84848434612e08565b612876338361219c565b61289357604051632f5de44f60e01b815260040160405180910390fd5b611489848484846130cb565b6128a881613118565b60009081527f2bdc8c6d1bbe8471e8d4da02782043d3836700165c400eb80193f5ff5e83843b6020526040812055565b60606128e382612dd2565b612919576040517f2382d38000000000000000000000000000000000000000000000000000000000815260040160405180910390fd5b60008281527f99574a7094154bb123ae6ae102096f0bf9679b85a5cd1e727aaa0ae5f132e6b46020526040812080547f99574a7094154bb123ae6ae102096f0bf9679b85a5cd1e727aaa0ae5f132e6b1929190612975906159ee565b80601f01602080910402602001604051908101604052809291908181526020018280546129a1906159ee565b80156129ee5780601f106129c3576101008083540402835291602001916129ee565b820191906000526020600020905b8154815290600101906020018083116129d157829003601f168201915b505050505090506000826002018054612a06906159ee565b80601f0160208091040260200160405190810160405280929190818152602001828054612a32906159ee565b8015612a7f5780601f10612a5457610100808354040283529160200191612a7f565b820191906000526020600020905b815481529060010190602001808311612a6257829003601f168201915b50505050509050805160001415612a9857509392505050565b815115612acb578082604051602001612ab2929190615a72565b6040516020818303038152906040529350505050919050565b80612ad5866131ef565b604051602001612ab2929190615a72565b610a5882826000612afe565b6000610c558383613321565b60008381527f9e2510b4d59b813edef0dae2e1b6c87ee280a0f5524ef39bc6fe83ba371c55cc6020526040902060020154600080516020615cae83398151915290600160a01b900460ff161515600114612b9a5760405162461bcd60e51b815260206004820152601360248201527f546f6b656e206973206e6f74206c6973746564000000000000000000000000006044820152606401610ade565b6000848152600982016020526040902060010154831115612bfd5760405162461bcd60e51b815260206004820152601e60248201527f42757920616d6f756e742065786365656473206c69737420616d6f756e7400006044820152606401610ade565b600084815260098201602052604081205490612c198583612af2565b90508380612c2657503481145b612c725760405162461bcd60e51b815260206004820181905260248201527f73616c65507269636520616e64206d73672e76616c7565206d69736d617463686044820152606401610ade565b6000868152600984016020526040902060020154612c9c906001600160a01b031633888885613416565b8482877f871cca9c30ebd3d38d92d08304561880d6466ddb658d2fd88e501a929c497fd960405160405180910390a4505050505050565b6000600080516020615cae833981519152612ced84612dd2565b612d0a5760405163c1b843ef60e01b815260040160405180910390fd5b6000612d1585612689565b9050806001600160a01b0316866001600160a01b03161480612d6b5750856001600160a01b0316612d45866120a8565b6001600160a01b0316148015612d6b57506000858152600b830160205260409020548411155b80612dba57506001600160a01b0380821660009081527f3c7bf052874fa81625121783266a03507bd2cd48b16e571c01a04e8dd3fb07aa60209081526040808320938a168352929052205460ff165b9695505050505050565b611489848484846000613416565b6000610a2e7f3c7bf052874fa81625121783266a03507bd2cd48b16e571c01a04e8dd3fb07a68361389c565b6000610a2e825490565b8015611a6c576040517f22b1813900000000000000000000000000000000000000000000000000000000815260040160405180910390fd5b60008181527f9e2510b4d59b813edef0dae2e1b6c87ee280a0f5524ef39bc6fe83ba371c55cd6020526040902054600080516020615cae8339815191529061148990859085908590612dc4565b6000610c5583836138b4565b8015610c44576040517fb56d7c1b00000000000000000000000000000000000000000000000000000000815260040160405180910390fd5b6000808080612ee08686613919565b9097909650945050505050565b6000610c5583670de0b6b3a764000084613995565b60017f0bec8ab077af1e12783ac8c970bca6dada042613c1ff87b4d0953dea6b0115fc8054600090612f35908490615aa1565b9091555050565b6000848152600080516020615cce833981519152602081815260408084207f2bdc8c6d1bbe8471e8d4da02782043d3836700165c400eb80193f5ff5e83843b83529381902088905586845560018401869055600280850180546001600160a01b0319166001600160a01b038881169190911790915582518084019093527f0a1932f308d56cf212053f1aaa8899548ab6083c0b2a38fcc19b4420795eedf1805482168452908b169383019390935292939192612ffc916003840191615384565b50600182015482546001600160a01b03166000908152600483016020526040902081905561303290670de0b6b3a76400006159d7565b6001600160a01b038916600090815260048301602052604080822092909255905188917fe33b4df6ca519196f49edc783e3efade92579814fa72600f8104e5db7439d4a691a25050505050505050565b611b6586868686868660006001816040519080825280602002602001820160405280156130b9578160200160208202803683370190505b50613a7c565b6000610c558383613cb4565b6130d6848484612e40565b6130e284848484613d2f565b611489576040517f9ff10cdd00000000000000000000000000000000000000000000000000000000815260040160405180910390fd5b61312181613e43565b60008181527f9e2510b4d59b813edef0dae2e1b6c87ee280a0f5524ef39bc6fe83ba371c55cb60205260408120805460ff1916815560018101829055600281018290556003810182905560048101829055600080516020615cae8339815191529161318f60058301826153e9565b50600601805460ff191690556000918252600981016020908152604080842084815560018101859055600201805474ffffffffffffffffffffffffffffffffffffffffff19169055600a83018252808420849055600b9092019052812055565b60608161322f57505060408051808201909152600181527f3000000000000000000000000000000000000000000000000000000000000000602082015290565b8160005b81156132595780613243816159bc565b91506132529050600a83615a5e565b9150613233565b60008167ffffffffffffffff8111156132745761327461576c565b6040519080825280601f01601f19166020018201604052801561329e576020820181803683370190505b5090505b84156121e7576132b36001836159d7565b91506132c0600a86615ab9565b6132cb906030615aa1565b60f81b8183815181106132e0576132e0615990565b60200101907effffffffffffffffffffffffffffffffffffffffffffffffffffffffffffff1916908160001a90535061331a600a86615a5e565b94506132a2565b60008080600019848609848602925082811083820303915050670de0b6b3a7640000811061337e576040517fd31b340200000000000000000000000000000000000000000000000000000000815260048101829052602401610ade565b600080670de0b6b3a76400008688099150506706f05b59d3b1ffff8111826133b85780670de0b6b3a7640000850401945050505050610a2e565b6204000082850304939091119091037d40000000000000000000000000000000000000000000000000000000000002919091177faccb18165bd6fe31ae1cf318dc5b51eee0e1ba569b88cd74c1773b91fac106690201905092915050565b836001600160a01b0316856001600160a01b031614156134785760405162461bcd60e51b815260206004820152601060248201527f7472616e7366657220746f2073656c66000000000000000000000000000000006044820152606401610ade565b60008381527f9e2510b4d59b813edef0dae2e1b6c87ee280a0f5524ef39bc6fe83ba371c55cd6020526040902054600080516020615cae833981519152908311156135055760405162461bcd60e51b815260206004820152601360248201527f616d6f756e7420697320746f6f206c61726765000000000000000000000000006044820152606401610ade565b60005b60008581526008830160205260409020600501548110156135c9576000858152600883016020526040902060050180546001600160a01b03881691908390811061355457613554615990565b6000918252602090912001546001600160a01b031614156135b75760405162461bcd60e51b815260206004820181905260248201527f416c726561647920696e2074686520465220736c6964696e672077696e646f776044820152606401610ade565b806135c1816159bc565b915050613508565b5060008481526009820160209081526040808320546008850190925282206003015482906136039087906135fd9085615acd565b90613f5b565b9050600081131561361b576136188782614052565b92505b6000878152600a8501602052604081205487146136a85761363e89898986614082565b6000898152600a870160205260408120805492935089929091906136639084906159d7565b909155505060008881527f3c7bf052874fa81625121783266a03507bd2cd48b16e571c01a04e8dd3fb07a96020526040902080546001600160a01b0319169055613775565b6136b38a8a8a6140d3565b6136ce8a8a8a60405180602001604052806000815250613d2f565b6137405760405162461bcd60e51b815260206004820152603260248201527f4552433732313a207472616e7366657220746f206e6f6e20455243373231526560448201527f63656976657220696d706c656d656e74657200000000000000000000000000006064820152608401610ade565b6000888152600886016020526040812060038101859055600401805491613766836159bc565b919050555061377589896142a6565b6000888152600b860160209081526040808320839055600988019091529020600201546001600160a01b03811690600160a01b900460ff1680156137cb5750600089815260098701602052604090206001015488105b156137fe576000898152600987016020526040812060010180548a92906137f39084906159d7565b909155506138399050565b600089815260098701602052604081208181556001810191909155600201805474ffffffffffffffffffffffffffffffffffffffffff191690555b861561385357613853898261384e888b6159d7565b61441b565b82888a7f50aec29a6212c27c07815605c5a6fec920288307b28ac03b1cb1e5e23b929fb18560405161388791815260200190565b60405180910390a45050505050505050505050565b60008181526001830160205260408120541515610c55565b815460009082106138f1576040517fe637bf3b00000000000000000000000000000000000000000000000000000000815260040160405180910390fd5b82600001828154811061390657613906615990565b9060005260206000200154905092915050565b815460009081908310613958576040517f117ec13800000000000000000000000000000000000000000000000000000000815260040160405180910390fd5b600084600001848154811061396f5761396f615990565b906000526020600020906002020190508060000154816001015492509250509250929050565b6000808060001985870985870292508281108382030391505080600014156139d0578382816139c6576139c6615a48565b0492505050610c55565b838110613a13576040517f773cc18c0000000000000000000000000000000000000000000000000000000081526004810182905260248101859052604401610ade565b60008486880960026001871981018816978890046003810283188082028403028082028403028082028403028082028403028082028403029081029092039091026000889003889004909101858311909403939093029303949094049190911702949350505050565b60008660ff16118015613a8f5750600085115b8015613aa35750670de0b6b3a76400008511155b8015613aaf5750600084115b8015613abb5750600087115b8015613ac75750600082115b613b135760405162461bcd60e51b815260206004820152601360248201527f496e76616c6964204461746120506173736564000000000000000000000000006044820152606401610ade565b613b1d8989614515565b613b3960008a8a60405180602001604052806000815250613d2f565b613bab5760405162461bcd60e51b815260206004820152603260248201527f4552433732313a207472616e7366657220746f206e6f6e20455243373231526560448201527f63656976657220696d706c656d656e74657200000000000000000000000000006064820152608401610ade565b6000600080516020615cae83398151915290506040518060e001604052808860ff168152602001878152602001868152602001858152602001848152602001838152602001600115158152508160080160008b815260200190815260200160002060008201518160000160006101000a81548160ff021916908360ff1602179055506020820151816001015560408201518160020155606082015181600301556080820151816004015560a0820151816005019080519060200190613c71929190615384565b5060c091909101516006909101805460ff1916911515919091179055613c978a8a6142a6565b6000988952600a0160205250506040909520939093555050505050565b600081815260018301602052604081205480613cfc576040517ff551fb1400000000000000000000000000000000000000000000000000000000815260040160405180910390fd5b836000016001820381548110613d1457613d14615990565b90600052602060002090600202016001015491505092915050565b60006001600160a01b0384163b613d48575060016121e7565b6000613df363150b7a0260e01b33888787604051602401613d6c9493929190615b0c565b604051602081830303815290604052907bffffffffffffffffffffffffffffffffffffffffffffffffffffffff19166020820180517bffffffffffffffffffffffffffffffffffffffffffffffffffffffff8381831617835250505050604051806060016040528060328152602001615c7c603291396001600160a01b038816919061464e565b9050600081806020019051810190613e0b9190615b3e565b6001600160e01b0319167f150b7a02000000000000000000000000000000000000000000000000000000001492505050949350505050565b6000613e4e82612689565b9050613e5c8160008461465d565b6001600160a01b03811660009081527f3c7bf052874fa81625121783266a03507bd2cd48b16e571c01a04e8dd3fb07a8602052604090207f3c7bf052874fa81625121783266a03507bd2cd48b16e571c01a04e8dd3fb07a690613ebf9084614668565b50613eca8184614674565b50600083815260038201602052604080822080546001600160a01b0319169055518491906001600160a01b038516907f8c5be1e5ebec7d5bd14f71427d1e84f3dd0314c0f7b2291e5b200ac8c7c3b925908390a460405183906000906001600160a01b038516907fddf252ad1be2c89b69c2b068fc378daa952ba7f163c4a11628f55a4df523b3ef908390a4505050565b6000600160ff1b831480613f725750600160ff1b82145b15613fa9576040517f3406846c00000000000000000000000000000000000000000000000000000000815260040160405180910390fd5b60008060008512613fba5784613fbf565b846000035b915060008412613fcf5783613fd4565b836000035b90506000613fe28383613321565b90506001600160ff1b03811115614028576040517fbf79e8d900000000000000000000000000000000000000000000000000000000815260048101829052602401610ade565b6000198087139086138082186001146140415782614046565b826000035b98975050505050505050565b60008061405f8484614680565b9050600061406d8585614835565b90506140798282615aa1565b95945050505050565b600080614091868686866149c3565b60009586527f2bdc8c6d1bbe8471e8d4da02782043d3836700165c400eb80193f5ff5e83843b6020526040808720548288529620959095555092949350505050565b60006140de82612689565b9050836001600160a01b0316816001600160a01b03161461412b576040517f0f2db4ad00000000000000000000000000000000000000000000000000000000815260040160405180910390fd5b6001600160a01b03831661416b576040517f40311a0900000000000000000000000000000000000000000000000000000000815260040160405180910390fd5b61417684848461465d565b6001600160a01b03841660009081527f3c7bf052874fa81625121783266a03507bd2cd48b16e571c01a04e8dd3fb07a8602052604090207f3c7bf052874fa81625121783266a03507bd2cd48b16e571c01a04e8dd3fb07a6906141d99084614668565b506001600160a01b038416600090815260028201602052604090206141fe9084614b03565b5061420a818486614b0f565b50600083815260038201602052604080822080546001600160a01b0319169055518491906001600160a01b038516907f8c5be1e5ebec7d5bd14f71427d1e84f3dd0314c0f7b2291e5b200ac8c7c3b925908390a482846001600160a01b0316866001600160a01b03167fddf252ad1be2c89b69c2b068fc378daa952ba7f163c4a11628f55a4df523b3ef60405160405180910390a45050505050565b60008181527f9e2510b4d59b813edef0dae2e1b6c87ee280a0f5524ef39bc6fe83ba371c55cb60205260409020805460059091018054600080516020615cae8339815191529260ff1611156143255780546001810182556000828152602090200180546001600160a01b0319166001600160a01b038616179055611489565b60005b8154614336906001906159d7565b8110156143c45781614349826001615aa1565b8154811061435957614359615990565b9060005260206000200160009054906101000a90046001600160a01b031682828154811061438957614389615990565b600091825260209091200180546001600160a01b0319166001600160a01b0392909216919091179055806143bc816159bc565b915050614328565b508054849082906143d7906001906159d7565b815481106143e7576143e7615990565b9060005260206000200160006101000a8154816001600160a01b0302191690836001600160a01b0316021790555050505050565b60008381527f2bdc8c6d1bbe8471e8d4da02782043d3836700165c400eb80193f5ff5e83843b60209081526040808320548352600080516020615cce8339815191529182905290912060028101546001600160a01b031661448657614481858585614b25565b61450e565b600281015460405163a9059cbb60e01b81526001600160a01b038681166004830152602482018690529091169063a9059cbb90604401602060405180830381600087803b1580156144d657600080fd5b505af11580156144ea573d6000803e3d6000fd5b505050506040513d601f19601f82011682018060405250810190611b659190615973565b5050505050565b6001600160a01b038216614555576040517f23e5311a00000000000000000000000000000000000000000000000000000000815260040160405180910390fd5b61455e81612dd2565b15614595576040517f6c35dbd800000000000000000000000000000000000000000000000000000000815260040160405180910390fd5b6145a16000838361465d565b6001600160a01b03821660009081527f3c7bf052874fa81625121783266a03507bd2cd48b16e571c01a04e8dd3fb07a8602052604090207f3c7bf052874fa81625121783266a03507bd2cd48b16e571c01a04e8dd3fb07a6906146049083614b03565b50614610818385614b0f565b5060405182906001600160a01b038516906000907fddf252ad1be2c89b69c2b068fc378daa952ba7f163c4a11628f55a4df523b3ef908290a4505050565b60606121e78484600085614bee565b610c44838383614cc4565b6000610c558383614ccf565b6000610c558383614d89565b60008281527f2bdc8c6d1bbe8471e8d4da02782043d3836700165c400eb80193f5ff5e83843b60209081526040808320548352600080516020615cce833981519152918290528220805483906146d7908690612af2565b905060005b60038301548110156147fa5760008360030182815481106146ff576146ff615990565b60009182526020909120015460028501546001600160a01b0391821692501661477d576001600160a01b0381166000908152600485016020526040902054614748908490612af2565b6001600160a01b038216600090815260028701602052604081208054909190614772908490615aa1565b909155506147e79050565b6001600160a01b03811660009081526004850160205260409020546147a3908490612af2565b6001600160a01b038083166000908152600388016020908152604080832060028a0154909416835292905290812080549091906147e1908490615aa1565b90915550505b50806147f2816159bc565b9150506146dc565b5080935080867f99d751b947931395503588a593e4b2633075e8663ca8d18186bea6027b7a0ac160405160405180910390a350505092915050565b60008281527f9e2510b4d59b813edef0dae2e1b6c87ee280a0f5524ef39bc6fe83ba371c55cb6020526040812060040154600080516020615cae8339815191529060011415614888576000915050610a2e565b6000848152600882016020526040812060018082015460028301546004909301546148e393889390916148bb91906159d7565b60008a81526008880160205260409020546148db9060019060ff16615b5b565b60ff16614e71565b905060005b815181101561496b576000868152600884016020526040902060050180546149599188918490811061491c5761491c615990565b9060005260206000200160009054906101000a90046001600160a01b031684848151811061494c5761494c615990565b6020026020010151614fcc565b80614963816159bc565b9150506148e8565b50600085815260088301602052604090206001015461498b908590612af2565b925082857f09677febd5432025c90cc93ac911b3b73b35d9b3ae1d5d10e201d81eb089994e60405160405180910390a3505092915050565b6000806149ce615099565b60008681527f9e2510b4d59b813edef0dae2e1b6c87ee280a0f5524ef39bc6fe83ba371c55cb60209081526040808320815160e081018352815460ff1681526001820154818501526002820154818401526003820154606082015260048201546080820152600582018054845181870281018701909552808552969750600080516020615cae833981519152969194929360a0860193909290830182828015614aa057602002820191906000526020600020905b81546001600160a01b03168152600190910190602001808311614a82575b505050505081526020016006820160009054906101000a900460ff1615151515815250509050614af78884888460000151856020015186604001518b88608001516001614aed9190615aa1565b8960a00151613a7c565b50909695505050505050565b6000610c5583836150c9565b60006121e784846001600160a01b03851661510c565b6000826001600160a01b03168260405160006040518083038185875af1925050503d8060008114614b72576040519150601f19603f3d011682016040523d82523d6000602084013e614b77565b606091505b50509050806114895760405162461bcd60e51b815260206004820152602560248201527f455243353137333a204661696c656420746f2073656e642045544820746f206c60448201527f69737465720000000000000000000000000000000000000000000000000000006064820152608401610ade565b6060843b614c28576040517f89c35afc00000000000000000000000000000000000000000000000000000000815260040160405180910390fd5b600080866001600160a01b03168587604051614c449190615b7e565b60006040518083038185875af1925050503d8060008114614c81576040519150601f19603f3d011682016040523d82523d6000602084013e614c86565b606091505b50915091508115614c9a5791506121e79050565b805115614caa5780518082602001fd5b8360405162461bcd60e51b8152600401610ade91906154e0565b610c448383836151a9565b600081815260018301602052604081205480156123f557835460009085906000198101908110614d0157614d01615990565b9060005260206000200154905080856000016001840381548110614d2757614d27615990565b6000918252602080832090910192909255918252600186019052604090208190558354849080614d5957614d59615b9a565b60008281526020808220830160001990810183905590920190925593815260019485019093525050604081205590565b60008181526001830160205260408120548015614e6757835460009085906000198101908110614dbb57614dbb615990565b9060005260206000209060020201905080856000016001840381548110614de457614de4615990565b6000918252602080832084546002909302019182556001938401549184019190915592548152908601909152604090208190558354849080614e2857614e28615b9a565b6000828152602080822060026000199094019384020182815560019081018390559290935585815286820190925260408220919091559150610a2e9050565b6000915050610a2e565b60606000614e7f84846151ed565b905060008167ffffffffffffffff811115614e9c57614e9c61576c565b604051908082528060200260200182016040528015614ec5578160200160208202803683370190505b50905060015b614ed6836001615aa1565b811015614fc057600087670de0b6b3a764000014614f75576000614efa8986615203565b614f0c90670de0b6b3a7640000615acd565b90506000614f25614f1e6001866159d7565b8b90615203565b90506000614f338d8d613f5b565b90506000614f53614f4c8d670de0b6b3a7640000615acd565b8390613f5b565b905083614f608483615bb0565b614f6a9190615c37565b945050505050614f86565b614f83846125ee8c8c612af2565b90505b8083614f9284876159d7565b81518110614fa257614fa2615990565b60209081029190910101525080614fb8816159bc565b915050614ecb565b50979650505050505050565b60008381527f2bdc8c6d1bbe8471e8d4da02782043d3836700165c400eb80193f5ff5e83843b60209081526040808320548352600080516020615cce8339815191529182905290912060028101546001600160a01b0316615032576144818585856152de565b6001600160a01b0384811660009081527f2bdc8c6d1bbe8471e8d4da02782043d3836700165c400eb80193f5ff5e83843d6020908152604080832060028601549094168352929052908120805485929061508d908490615aa1565b90915550505050505050565b60006150a3612f02565b507f0bec8ab077af1e12783ac8c970bca6dada042613c1ff87b4d0953dea6b0115fc5490565b6000818152600183016020526040812054610a2e575081546001808201845560008481526020808220909301849055845493815293810190915260409092205590565b600082815260018401602052604081205480615171575050604080518082018252838152602080820184815286546001818101895560008981528481209551600290930290950191825591519082015586548684528188019092529290912055610c55565b8285600001600183038154811061518a5761518a615990565b9060005260206000209060020201600101819055506000915050610c55565b6001600160a01b038216610c445760008181527f99574a7094154bb123ae6ae102096f0bf9679b85a5cd1e727aaa0ae5f132e6b460205260408120610c449161540a565b60008183106151fc5781610c55565b5090919050565b60008061520f8461532f565b9050600080846001161161522b57670de0b6b3a764000061522d565b815b9050600184901c5b8015615265576152458384613321565b9250600181161561525d5761525a8284613321565b91505b60011c615235565b6001600160ff1b038211156152a9576040517fffb15bcd00000000000000000000000000000000000000000000000000000000815260048101839052602401610ade565b600080871280156152bd5750856001166001145b9050806152ca57826152d3565b6152d383615c65565b979650505050505050565b6001600160a01b03821660009081527f9e2510b4d59b813edef0dae2e1b6c87ee280a0f5524ef39bc6fe83ba371c55cf602052604081208054839290615325908490615aa1565b9091555050505050565b6000600160ff1b82141561536f576040517f741d0b8c00000000000000000000000000000000000000000000000000000000815260040160405180910390fd5b6000821261537d5781610a2e565b5060000390565b8280548282559060005260206000209081019282156153d9579160200282015b828111156153d957825182546001600160a01b0319166001600160a01b039091161782556020909201916001909101906153a4565b506153e5929150615440565b5090565b50805460008255906000526020600020908101906154079190615440565b50565b508054615416906159ee565b6000825580601f10615426575050565b601f01602090049060005260206000209081019061540791905b5b808211156153e55760008155600101615441565b6001600160e01b03198116811461540757600080fd5b60006020828403121561547d57600080fd5b8135610c5581615455565b60005b838110156154a357818101518382015260200161548b565b838111156114895750506000910152565b600081518084526154cc816020860160208601615488565b601f01601f19169290920160200192915050565b602081526000610c5560208301846154b4565b60006020828403121561550557600080fd5b5035919050565b6001600160a01b038116811461540757600080fd5b6000806040838503121561553457600080fd5b823561553f8161550c565b946020939093013593505050565b6000806040838503121561556057600080fd5b823561556b8161550c565b9150602083013561557b8161550c565b809150509250929050565b60008060006060848603121561559b57600080fd5b505081359360208301359350604090920135919050565b6000806000606084860312156155c757600080fd5b83356155d28161550c565b925060208401356155e28161550c565b929592945050506040919091013590565b60006020828403121561560557600080fd5b8135610c558161550c565b60008060006060848603121561562557600080fd5b83356156308161550c565b95602085013595506040909401359392505050565b803560ff8116811461565657600080fd5b919050565b60008060008060008060c0878903121561567457600080fd5b863561567f8161550c565b95506020870135945060408701356156968161550c565b93506156a460608801615645565b92506080870135915060a087013590509295509295509295565b600081518084526020808501945080840160005b838110156156f75781516001600160a01b0316875295820195908201906001016156d2565b509495945050505050565b8481528360208201526001600160a01b0383166040820152608060608201526000612dba60808301846156be565b801515811461540757600080fd5b6000806040838503121561575157600080fd5b823561575c8161550c565b9150602083013561557b81615730565b634e487b7160e01b600052604160045260246000fd5b6000806000806080858703121561579857600080fd5b84356157a38161550c565b935060208501356157b38161550c565b925060408501359150606085013567ffffffffffffffff808211156157d757600080fd5b818701915087601f8301126157eb57600080fd5b8135818111156157fd576157fd61576c565b604051601f8201601f19908116603f011681019083821181831017156158255761582561576c565b816040528281528a602084870101111561583e57600080fd5b82602086016020830137600060208483010152809550505050505092959194509250565b600080600080600060a0868803121561587a57600080fd5b85356158858161550c565b94506020860135935061589a60408701615645565b94979396509394606081013594506080013592915050565b600080604083850312156158c557600080fd5b50508035926020909101359150565b60ff8716815285602082015284604082015283606082015282608082015260c060a0820152600061404660c08301846156be565b6000806040838503121561591b57600080fd5b82359150602083013561557b8161550c565b6000806000806080858703121561594357600080fd5b843561594e8161550c565b9350602085013561595e8161550c565b93969395505050506040820135916060013590565b60006020828403121561598557600080fd5b8151610c5581615730565b634e487b7160e01b600052603260045260246000fd5b634e487b7160e01b600052601160045260246000fd5b60006000198214156159d0576159d06159a6565b5060010190565b6000828210156159e9576159e96159a6565b500390565b600181811c90821680615a0257607f821691505b60208210811415615a2357634e487b7160e01b600052602260045260246000fd5b50919050565b6000816000190483118215151615615a4357615a436159a6565b500290565b634e487b7160e01b600052601260045260246000fd5b600082615a6d57615a6d615a48565b500490565b60008351615a84818460208801615488565b835190830190615a98818360208801615488565b01949350505050565b60008219821115615ab457615ab46159a6565b500190565b600082615ac857615ac8615a48565b500690565b600080831283600160ff1b01831281151615615aeb57615aeb6159a6565b836001600160ff1b03018313811615615b0657615b066159a6565b50500390565b60006001600160a01b03808716835280861660208401525083604083015260806060830152612dba60808301846154b4565b600060208284031215615b5057600080fd5b8151610c5581615455565b600060ff821660ff841680821015615b7557615b756159a6565b90039392505050565b60008251615b90818460208701615488565b9190910192915050565b634e487b7160e01b600052603160045260246000fd5b60006001600160ff1b03600084136000841385830485118282161615615bd857615bd86159a6565b600160ff1b6000871286820588128184161615615bf757615bf76159a6565b60008712925087820587128484161615615c1357615c136159a6565b87850587128184161615615c2957615c296159a6565b505050929093029392505050565b600082615c4657615c46615a48565b600160ff1b821460001984141615615c6057615c606159a6565b500590565b6000600160ff1b82141561537d5761537d6159a656fe4552433732313a207472616e7366657220746f206e6f6e20455243373231526563656976657220696d706c656d656e7465729e2510b4d59b813edef0dae2e1b6c87ee280a0f5524ef39bc6fe83ba371c55c32bdc8c6d1bbe8471e8d4da02782043d3836700165c400eb80193f5ff5e83843aa26469706673582212201f6439d68829313b80ab7bf1e0a1a18735b7e12c069b748b3a0b8f48e89e0eab64736f6c63430008080033",
  "devdoc": {
    "kind": "dev",
    "methods": {
      "approve(address,uint256)": {
        "params": {
          "operator": "address to be approved",
          "tokenId": "token to approve"
        }
      },
      "balanceOf(address)": {
        "returns": {
          "_0": "quantity of tokens held"
        }
      },
      "getApproved(uint256)": {
        "params": {
          "tokenId": "token to query"
        },
        "returns": {
          "_0": "address approved to spend token"
        }
      },
      "isApprovedForAll(address,address)": {
        "params": {
          "account": "address to query for approval granted",
          "operator": "address to query for approval received"
        },
        "returns": {
          "_0": "whether operator is approved to spend tokens held by account"
        }
      },
      "ownerOf(uint256)": {
        "params": {
          "tokenId": "token to query"
        },
        "returns": {
          "_0": "token owner"
        }
      },
      "safeTransferFrom(address,address,uint256)": {
        "params": {
          "from": "sender of token",
          "to": "receiver of token",
          "tokenId": "token id"
        }
      },
      "safeTransferFrom(address,address,uint256,bytes)": {
        "params": {
          "data": "data payload",
          "from": "sender of token",
          "to": "receiver of token",
          "tokenId": "token id"
        }
      },
      "setApprovalForAll(address,bool)": {
        "params": {
          "operator": "address to be approved",
          "status": "approval status"
        }
      },
      "supportsInterface(bytes4)": {
        "params": {
          "interfaceId": "interface id"
        },
        "returns": {
          "_0": "bool whether interface is supported"
        }
      },
      "tokenByIndex(uint256)": {
        "params": {
          "index": "position in global token list to query"
        },
        "returns": {
          "_0": "id of retrieved token"
        }
      },
      "tokenOfOwnerByIndex(address,uint256)": {
        "params": {
          "index": "position in owner's token list to query",
          "owner": "token holder to query"
        },
        "returns": {
          "_0": "id of retrieved token"
        }
      },
      "totalSupply()": {
        "returns": {
          "_0": "total supply"
        }
      },
      "transferFrom(address,address,uint256)": {
        "params": {
          "from": "sender of token",
          "to": "receiver of token",
          "tokenId": "token id"
        }
      }
    },
    "version": 1
  },
  "userdoc": {
    "errors": {
      "PRBMathSD59x18__AbsInputTooSmall()": [
        {
          "notice": "Emitted when the input is MIN_SD59x18."
        }
      ],
      "PRBMathSD59x18__MulInputTooSmall()": [
        {
          "notice": "Emitted when one of the inputs is MIN_SD59x18."
        }
      ],
      "PRBMathSD59x18__MulOverflow(uint256)": [
        {
          "notice": "Emitted when the intermediary absolute result overflows SD59x18."
        }
      ],
      "PRBMathSD59x18__PowuOverflow(uint256)": [
        {
          "notice": "Emitted when the intermediary absolute result overflows SD59x18."
        }
      ],
      "PRBMath__MulDivFixedPointOverflow(uint256)": [
        {
          "notice": "Emitted when the result overflows uint256."
        }
      ],
      "PRBMath__MulDivOverflow(uint256,uint256)": [
        {
          "notice": "Emitted when the result overflows uint256."
        }
      ]
    },
    "kind": "user",
    "methods": {
      "approve(address,uint256)": {
        "notice": "grant approval to given account to spend token"
      },
      "balanceOf(address)": {
        "notice": "query the balance of given address"
      },
      "getApproved(uint256)": {
        "notice": "get approval status for given token"
      },
      "isApprovedForAll(address,address)": {
        "notice": "query approval status of given operator with respect to given address"
      },
      "name()": {
        "notice": "inheritdoc IERC721Metadata"
      },
      "ownerOf(uint256)": {
        "notice": "query the owner of given token"
      },
      "safeTransferFrom(address,address,uint256)": {
        "notice": "transfer token between given addresses, checking for ERC721Receiver implementation if applicable"
      },
      "safeTransferFrom(address,address,uint256,bytes)": {
        "notice": "transfer token between given addresses, checking for ERC721Receiver implementation if applicable"
      },
      "setApprovalForAll(address,bool)": {
        "notice": "grant approval to or revoke approval from given account to spend all tokens held by sender"
      },
      "supportsInterface(bytes4)": {
        "notice": "query whether contract has registered support for given interface"
      },
      "symbol()": {
        "notice": "inheritdoc IERC721Metadata"
      },
      "tokenByIndex(uint256)": {
        "notice": "get token at given internal storage index"
      },
      "tokenOfOwnerByIndex(address,uint256)": {
        "notice": "get token of given owner at given internal storage index"
      },
      "tokenURI(uint256)": {
        "notice": "inheritdoc IERC721Metadata"
      },
      "totalSupply()": {
        "notice": "get total token supply"
      },
      "transferFrom(address,address,uint256)": {
        "notice": "transfer token between given addresses, without checking for ERC721Receiver implementation if applicable"
      }
    },
    "version": 1
  },
  "storageLayout": {
    "storage": [],
    "types": null
  }
}